:020000040800F2
:1000000078200220C10100080F0D00080B0D000828
:100010000D0D00081D040008511E0008000000001E
:10002000000000000000000000000000711A00083D
:10003000D509000800000000890D0008451B0008D4
:10004000DB010008DB010008DB010008DB01000820
:10005000DB010008DB010008DB010008DB01000810
:10006000DB010008DB010008DB010008DB01000800
:10007000DB010008A5050008DB010008DB01000822
:10008000CD050008DB010008DB010008DB010008EA
:10009000DB010008DB010008DB010008DB010008D0
:1000A000DB010008DB010008DB010008DB010008C0
:1000B000FF1B0008DB010008DB010008DB01000872
:1000C000DB010008DB010008DB010008DB010008A0
:1000D000DB010008E11C0008DB010008DB0100086F
:1000E000DB010008DB010008DB010008DB01000880
:1000F000DB010008DB010008DB010008DB01000870
:10010000DB010008DB010008DB010008DB0100085F
:10011000DB010008DB010008DB010008DB0100084F
:10012000F5050008DB010008DB010008DB01000821
:10013000DB010008DB010008DB010008DB0100082F
:10014000DB010008DB010008DB010008DB0100081F
:10015000DB010008DB010008DB010008DB0100080F
:10016000DB010008DB010008DB010008DB010008FF
:10017000DB010008DB010008DB010008DB010008EF
:10018000DB010008DB010008DB010008DB010008DF
:10019000DB010008DB010008DB010008DB010008CF
:1001A000DB010008DB010008DB010008DFF80CD0F0
:1001B00000F06EF800480047A122000878200220D5
:1001C0000648804706480047FEE7FEE7FEE7FEE7F1
:1001D000FEE7FEE7FEE7FEE7FEE7FEE7491B000855
:1001E000AD01000840EA01039B0703D009E008C9FC
:1001F000121F08C0042AFAD203E011F8013B00F8EC
:10020000013B521EF9D27047D2B201E000F8012B37
:10021000491EFBD270470022F6E710B513460A4686
:1002200004461946FFF7F0FF204610BD2DE9F05FA8
:100230000546002092469B46884606468146402455
:100240001BE0284641464746224600F042F8534606
:100250005A46C01A914110D311461846224600F062
:1002600029F82D1A67EB01084F462246012000218C
:1002700000F020F817EB00094E41201EA4F1010404
:10028000DFDC484631462A464346BDE8F09F000081
:10029000064C074D06E0E06840F0010394E80700D3
:1002A00098471034AC42F6D3FFF784FF6826000865
:1002B00088260008202A04DB203A00FA02F10020F8
:1002C00070479140C2F1200320FA03F31943904094
:1002D0007047202A04DB203A21FA02F000217047FF
:1002E00021FA02F3D040C2F120029140084319469E
:1002F00070470029816802D041F0010101E021F03E
:100300000101816070470029816802D041F4807149
:1003100001E021F48071816070470029816802D07A
:1003200041F4007101E021F400718160704710B563
:1003300001210C02204600F059FD2046BDE8104086
:10034000002100F053BD000030B542680F4B0C791E
:100350001A400B6842EA04221343436082680C4B44
:100360004D791A40D1E9034323438C6844EA45049C
:10037000234313438360C26A097D22F47002491E3D
:10038000C9B242EA0151C16230BD0000FFFEFFFC6C
:10039000FDF7FFC070B5072609290AD9C568A1F184
:1003A0000A0404EB4404A640B543A3401D43C560C2
:1003B00007E0056901EB4104A640B543A3401D4396
:1003C00005611F23072A09D2446B521E02EB8202E9
:1003D00093409C4391400C43446370BD0D2A09D265
:1003E000046BD21F02EB820293409C4391400C436A
:1003F000046370BDC46A0D3A02EB820293409C43D1
:1004000091400C43C46270BD0021016001714171D3
:100410008160C1600161012101757047FEE7000044
:10042000044B01228240186809B1104300E0904358
:10043000186070470074004030B5012187B008464D
:1004400000F0A4FC0121480700F0B8FC1020009047
:1004500003208DF8040000248DF807408DF8050076
:10046000104D8DF806406946284600F0F9FB202122
:1004700000916946284600F0F3FB2C20CDE90204E8
:100480008001CDE9040402A9002000F019F802A9B6
:10049000102000F015F80121002000F005F807B049
:1004A00030BD000000000240044B9A1482401868DE
:1004B00009B1104300E09043186070470074004099
:1004C00030B5084C236840F6FE7282409343D1E970
:1004D00000252A43D1E902510D432A4382401A43A1
:1004E000226030BD0074004070B590B00024FFF76A
:1004F000A3FF0121042000F061FC0A2001901220DA
:10050000ADF800000026224DADF80860ADF802609D
:100510006946284601F0A6FB2021284601F09AFBF7
:100520000121284601F080FB1A491B4D31F81400C7
:1005300000EB004045F82400641CF7D00121480579
:1005400000F024FC4FF0606000901448CDE90105F4
:10055000402003900120CDE904068002069080002F
:10056000079080000890801109904002CDE90A06AA
:100570000320CDE90C060A4C694620460E9600F091
:10058000C5F90121204600F0A7F810B070BD0000A9
:10059000000800406426000820000020207400406D
:1005A0008860024070B5084D4FF0815421462846BE
:1005B00000F052F9012805D121462846BDE87040D7
:1005C00000F074B870BD00004060024070B5074C88
:1005D000074D2146284600F059F9002805D021464C
:1005E0002846BDE8704000F061B870BD008800206A
:1005F0008860024070B5194D194C2946204600F01C
:100600002BF9012828D12946204600F04FF8611522
:10061000144800F071FB01281ED1204600F014F9A7
:100620001149124D01280A6814D011480168286840
:10063000FFF7D8FD00F096F900242868015D0DA0B1
:1006400001F008FC641C102CF7DBBDE870400AA028
:1006500001F000BC0948E9E770BD0000200000106F
:100660001064024000180240100000202400002006
:100670001C000020257820000D0A00001800002032
:10068000074A904201D2074801E005481038064A5F
:100690008B0001EA020101D5C1607047816070479B
:1006A00010640240006002407D0F7D0F074A9042B7
:1006B00001D2074801E005481038064A8B0001EADC
:1006C000020101D5C160704781607047106402402B
:1006D000006002407D0F7D0F0029016802D041F0CB
:1006E000010101E021F00101016070472DE9F043B3
:1006F000016821F001010160002101604160816019
:10070000C1600161212141613C493C4A3D251039CC
:10071000904202D18D60BDE8F083384A4FF4746690
:100720001832904201D18E60F5E7344A4FF47417C5
:100730003032904201D18F60EDE7304A4FF0746C57
:100740004832904202D1C1F808C0E4E72B4B2C4A52
:100750006033984201D1CA60DDE7284C294B7834D8
:10076000A04201D1CB60D6E7DFF89080264C08F19B
:100770009008404501D1CC60CDE7DFF880804FF094
:100780003D5908F1A808404502D1C1F80C90C2E7D4
:100790001E49DFF878800839404501D10D60BAE77D
:1007A0001A4D1835A84201D10E60B4E7174D303507
:1007B000A84201D10F60AEE7144D4835A84202D1DE
:1007C000C1F800C0A7E7114D10496035091FA842C4
:1007D00001D10A609FE70D4A7832904201D10B6047
:1007E00099E70A4A9032904201D10C6093E7074A98
:1007F000A83290428FD1C1F800908CE7106002407F
:100800003D000020400F002000003D201064024009
:100810000029016802D041F4802101E021F4802107
:1008200001607047002A026802D042F4002201E011
:1008300022F400220260016170470146002009682D
:10084000C90700D00120704701460020096809034C
:1008500000D50120704700000246094B00209A4253
:1008600001D2084A01E0064A103A8B0001D55268CD
:1008700000E01268044B1A400A4200D00120704781
:1008800010640240006002407D0F7D0F30B5104AB9
:100890000024904201D20F4A01E00D4A103A0E4B5B
:1008A000194205D01E2303EAD12503682B4002E03C
:1008B000406900F08003880001D5506800E01068AE
:1008C000064A1040084201D003B10124204630BD41
:1008D00010640240006002403C0F3C0F7D0F7D0F12
:1008E0000B0607D5436912B143F0800301E023F002
:1008F00080034361802908D0002A026801F01E01AC
:1009000001D00A4300E08A430260704730B50368B3
:10091000124ACC6813400A682243D1E905452C43AA
:100920002243CC6922430C6A22434C6A22438C6ADC
:1009300022434C6B22438C6B22431A430260426970
:1009400022F00703D1E90B2422431A4342610A69CA
:1009500042604A6882608968C16030BD3F801CF097
:100960004160704770B50FA001F074FA124C13A0EB
:10097000216801F06FFA144D00212846FFF7ACFE04
:10098000208881B22846FFF7EBFF10480088104905
:100990002846FFF775FE2846BDE870400121FFF7A5
:1009A0009BBE0000444D415F57726974655F62757C
:1009B000663A0D0A000000001000002042756666CD
:1009C00053697A653A256400886002400C3C004017
:1009D0000088002070470000F0B5012187B008466C
:1009E00000F0D4F90121102000F0F4F902250024D0
:1009F0008DF8064001268DF807602802234F8DF8F8
:100A0000055000908DF804506946384600F028F9EA
:100A1000680200908DF804506946384600F020F9CD
:100A200007220A21384600F057F9072209213846E3
:100A300000F052F94FF4E1300290ADF810400C2074
:100A4000134DADF80C40ADF81200ADF80E40ADF806
:100A5000144002A9284601F09DF925208DF81800C0
:100A60008DF819408DF81A408DF81B6006A800F02B
:100A70004FF9012240F22551284601F073F9012176
:100A8000284601F03FF907B0F0BD00000000024029
:100A90000010014000224FF0204310280AD0B0F58A
:100AA000807F09D0B0F5805F09D0D3F85801814329
:100AB00009D107E0586EFAE7D3F88400F7E7D3F8D6
:100AC000A400F4E7012210467047D0E90012114358
:100AD00082686FF01F03C06803EB421242EA4020B5
:100AE00001434FF02040C0F850117047F0B5066840
:100AF000B100A1F1C041D1F84011CD0BD0E90112F4
:100B00001143D0E903231A4311434269046A114394
:100B10008269436A1143C269ED03114321431943BA
:100B200029434FF02045EEB3D5F8406122436FF3DF
:100B30000E0633431A43C5F8402102689200A2F121
:100B4000C042C2F840116FF00F0213011403016894
:100B5000160441B38900A1F1C041D1F8481101F058
:100B6000704C816AD1E9007E02EB0E127F1E1743A2
:100B70008A6803EB022217430A8A04EB02421743F6
:100B8000D5F8482147EA0C0702F07043CA68898A01
:100B9000120306EB0151A2F580520A431A43C5F82D
:100BA000482101E007E009E000688000A0F1C040B2
:100BB000C0F84871F0BDC5F84011C4E7D5F8481138
:100BC000806A01F07047D0E9001C02EB0C12491E4C
:100BD0001143826803EB022211430B4BC26803EB03
:100BE00002321143028A04EB02421143828A007EE0
:100BF00006EB025211431A0302EB00600143394332
:100C0000C5F84811F0BD000000F0FFFF4FF0204193
:100C1000D1F8542142EA4000C1F854017047000065
:100C20007CB50121402000F0B1F84FF400700024A1
:100C30000A4E00908DF8044002258DF80750694651
:100C4000304600F00DF8680300908DF804408DF8F0
:100C500007506946304600F003F87CBD001802409A
:100C6000F0B5002201274FF0030C0B6807FA02F5DC
:100C70002B40AB422CD1066853000CFA03F4A64378
:100C800006600E79D0F800E09E4046EA0E06066047
:100C90000E79012E01D0022E12D18668A6438660FD
:100CA0004E79D0F808E09E4046EA0E068660466817
:100CB000AE43466045688E799640B6B2354345608E
:100CC000C568A543C560CC799C40C3681C43C4601B
:100CD000521C102AC9D3F0BD4B07DB0E9A40C9083D
:100CE00010B500EB8100016A0F249C40A143016212
:100CF000016A1143016210BD0246002012690A42D6
:100D000000D00120704741837047FEE7FEE770473F
:100D100030B50F23C27801780125FAB1144A126860
:100D200001F1E02102F4E062C2F5E062C2F30722C1
:100D3000C2F10404D3404278A24084781C4014439A
:100D4000220181F80024007800F01F018D40400945
:100D5000800000F1E020C0F8005130BD01F01F001C
:100D600085404809800000F1E020C0F8805130BD86
:100D70000CED00E00249084302490860704700009A
:100D80000000FA050CED00E070470000044A00295D
:100D9000116801D0014300E08143116070470000F9
:100DA00030380240044A0029116801D0014300E0B4
:100DB000814311607047000038380240044A00291E
:100DC000116801D0014300E08143116070470000C9
:100DD00040380240044A0029116801D0014300E074
:100DE000814311607047000044380240044A0029E2
:100DF000116801D0014300E0814311607047000099
:100E00002438024070B5204B1968204C11F00C01B9
:100E100004D01F4E042903D0082903D004601BE02E
:100E2000066019E0184A121F1168C1F38055116855
:100E300001F03F0115B1B6FBF1F101E0B4FBF1F1B6
:100E400014681268C4F388146143C2F30142521C4F
:100E50005200B1FBF2F1016019680F2202EA111190
:100E60000C4A545C0168E14041601C68072505EAB2
:100E70009424145D21FA04F484601B6805EA53335A
:100E8000D25CD140C16070BD083802400024F4003B
:100E900040787D01000000202DE9FC5F0026082736
:100EA00083464FF001084FF002094FF0040A344620
:100EB00003255BF8260000287BD00D2E79D2DFE8D1
:100EC00006F007162637485868798898A8B8C800E9
:100ED00001210846FFF75AFF8DF8045000978DF85E
:100EE000074069466748FFF7BBFE0121C1E00121C9
:100EF0002020FFF74BFF402000908DF804508DF824
:100F0000074069466048FFF7ABFE0221B1E00121CE
:100F10002020FFF73BFF4FF4807000908DF80450C5
:100F20008DF8074069465848FFF79AFE0321A0E074
:100F300001212020FFF72AFF4FF4007000908DF868
:100F400004508DF8074069464F48FFF789FE042199
:100F50008FE001210420FFF719FF8DF80450CDF830
:100F600000808DF8074069464848FFF779FE052163
:100F70007FE001210420FFF709FF8DF80450CDF830
:100F800000908DF8074069464048FFF769FE06214A
:100F90006FE001212020FFF7F9FE802000908DF8FE
:100FA00004508DF8074069463748FFF759FE07217E
:100FB0005FE061E001210420FFF7E8FE8DF80450B6
:100FC00000978DF8074069463048FFF749FE082131
:100FD0004FE001210420FFF7D9FE8DF80450CDF831
:100FE00000A08DF8074069462848FFF739FE09211F
:100FF0003FE001210846FFF7C9FE8DF80450CDF807
:1010000000808DF8074069461E48FFF729FE0A2137
:101010002FE001210846FFF7B9FE8DF80450CDF806
:1010200000908DF8074069461648FFF719FE0B211E
:101030001FE001210846FFF7A9FE8DF80450CDF806
:1010400000A08DF8074069460E48FFF709FE0C2105
:101050000FE001212020FFF799FE4FF480600090FF
:101060008DF804508DF8074069460748FFF7F8FDF2
:101070000D2107A000F0EEFE761C102EFFF619AF32
:10108000BDE8FC9F0000024000140240000802403E
:1010900025640D0A000000002DE9F0470F460121EC
:1010A00096B015468805FFF771FE7748DFF8DC81BA
:1010B00001900024D8F80010B8020291CDE9034055
:1010C0004FF480694FF40060CDE9069080000890ED
:1010D000401109900AAA05944002012682E85100B5
:1010E0004002DFF8ACA100900D9400220E9450460F
:1010F000FFF798FBF2045046D8F80410FFF792FB74
:1011000001215046FFF784FB69465046FFF7FEFB7E
:10111000012210215046FFF7E3FB38208DF85400E0
:101120008DF8554002208DF856008DF8576015A8AF
:10113000FFF7EEFD01215046FFF7CEFA01214846A8
:10114000FFF748FE0FA8FFF75FF9300711908DF801
:1011500040604FF0C060CDE912044B4E0F944C3EFE
:101160008DF841408DF850700FA93046FFF7ECF82C
:1011700055F82400002874D00D2C72D2DFE804F05A
:10118000070F171F272F373F474F575F6700012370
:101190001A4603213046FFF7FDF801215EE00123E6
:1011A000022204213046FFF7F5F8022156E0012320
:1011B000032206213046FFF7EDF803214EE001231C
:1011C000042207213046FFF7E5F8042146E0012319
:1011D00005220A213046FFF7DDF805213EE0012314
:1011E00006220B213046FFF7D5F8062136E0012311
:1011F000072205213046FFF7CDF807212EE0012315
:1012000008220D213046FFF7C5F8082126E001230A
:1012100009220C213046FFF7BDF809211EE0012309
:101220000A2200213046FFF7B5F80A2116E0012313
:101230000B2219463046FFF7ADF80B210EE00123D3
:101240000C2202213046FFF7A5F80C2106E001230D
:101250000D2208213046FFF79DF80D210DA000F06A
:10126000F9FD641C102C83DB01213046FFF755F893
:1012700001213046FFF747F801213046FFF739F8E2
:1012800016B0BDE8F08700004C2201401800002095
:101290001064024025640D0A000000002DE9F041B1
:1012A000114C0E460746D4E90001014304D000F07A
:1012B00063FF606800F060FFF502284601F0DEF889
:1012C0002060284601F0DAF8B10260600D4620681F
:1012D000FEF7A1FF29466068FEF79DFF3846BDE88E
:1012E000F041FFF7D9BD0000180000202DE9FC5F98
:1012F0000121F820FFF74AFD02208DF804008DF847
:10130000050000208DF806008DF8070001246946CD
:10131000D0480094FFF7A4FC0C220021CD48FFF731
:10132000DBFC022000906946CA48FFF799FC0C22BA
:101330000121C848FFF7D0FC042000906946C54849
:10134000FFF78EFC0C220221C248FFF7C5FC0820E3
:1013500000906946BF48FFF783FC0C220321BD487B
:10136000FFF7BAFC10276946BA480097FFF778FCE8
:101370000C220421B748FFF7AFFC20266946B54888
:101380000096FFF76DFC0C220521B248FFF7A4FC84
:101390004FF4805B6946AF48CDF800B0FFF760FCC2
:1013A0000C221146AB48FFF797FC6003009069469A
:1013B000A848FFF755FC0C220D21A648FFF78CFC2E
:1013C0004FF480486946A348CDF80080FFF748FCF9
:1013D0000C220E219F48FFF77FFCE50369469D48DC
:1013E0000095FFF73DFC0C220F219A48FFF774FC93
:1013F000694699480094FFF733FC0C220021964877
:10140000FFF76AFC0220009069469348FFF728FC2A
:101410000C2201219048FFF75FFC69468E48009737
:10142000FFF71EFC0C2204218B48FFF755FC694690
:1014300089480096FFF714FC0C2205218648FFF727
:101440004BFC69468548CDF80080FFF709FC0C226B
:101450000E218248FFF740FC694680480095FFF75F
:10146000FFFB0C220F217D48FFF736FC69467B48C5
:101470000094FFF7F5FB0C2200217848FFF72CFCC5
:101480000220009069467548FFF7EAFB0C22012113
:101490007248FFF721FC8020009069467048FFF7F2
:1014A000DFFB0C2207216E48FFF716FC2702694676
:1014B0006B480097FFF7D4FB0C2208216848FFF720
:1014C0000BFC6002009069466548FFF7C9FB0C22DF
:1014D00009216348FFF700FC4FF4806969466048C2
:1014E000CDF80090FFF7BCFB0C220A215C48FFF707
:1014F000F3FB4FF4006A69465948CDF800A0FFF7A6
:10150000AFFB0C220B215648FFF7E6FB6946544817
:10151000CDF800B0FFF7A4FB0C2211465048FFF7AE
:10152000DBFB6003009069464D48FFF799FB0C22F6
:101530000D214B48FFF7D0FB69464948CDF80080A4
:10154000FFF78EFB0C220E214548FFF7C5FB6946CD
:1015500043480095FFF784FB0C220F214048FFF71A
:10156000BBFB69463D480097FFF77AFB0C22082138
:101570003A48FFF7B1FB6002009069463748FFF731
:101580006FFB0C2209213548FFF7A6FB694633485B
:10159000CDF80090FFF764FB0C220A212F48FFF7DB
:1015A0009BFB4020DFF8BC80009069464046FFF777
:1015B00057FB0C2206214046FFF78EFB694640464A
:1015C0000096FFF74DFB0C2205214046FFF784FBF8
:1015D00069462048CDF800A0FFF742FB0C220B2102
:1015E0001C48FFF779FB69461B480095FFF738FB5D
:1015F0000C220F211848FFF76FFB69461648009729
:10160000FFF72EFB0C2208211348FFF765FB802013
:10161000009069464046FFF723FB0C220721404615
:10162000FFF75AFB0220009069460D48FFF718FBB0
:101630000C2201210A48FFF74FFB69460848009435
:10164000FFF70EFB0C2200210548FFF745FBBDE824
:10165000FC9F00000014024000180240000C0240F1
:1016600000100240001C024000B593B0FFF73EFEA0
:1016700001210846FFF796FB0421022007220D9165
:10168000CDE90B02CDE90E201090119001200090C1
:101690000020CDE90101102103914021049189002E
:1016A000CDE90510C90007914900CDE908100BA844
:1016B0000A906846FFF71AFA00F002F813B000BD6E
:1016C000F0B585B00126082500240096CDE9015427
:1016D000039420210120FFF7DDF90028F9D16846A5
:1016E000FFF7F3F90A201E480490401E0490FCD135
:1016F0000227CDE90264CDE9007520210120FFF722
:10170000C9F90028F9D16846FFF7DFF903200394EF
:101710008DE8A10020210120FFF7BCF90028F9D1B4
:101720006846FFF7D2F940F222200421CDE9026099
:10173000CDE9001520210120FFF7ACF90028F9D1EF
:101740006846FFF7C2F940F26A50FFF75FFA2021BE
:101750000120FFF79FF90028F9D105B0F0BD000086
:1017600040420F0010B5012190B04805FFF70EFB75
:10177000154C2046FEF7BAFF2046FFF75EF800281A
:10178000FAD11249CDE9000111494968CDE90210A9
:1017900010490968CDE904104FF48061CDE90610C5
:1017A000C9010890CDE909010B900C900D900E90A5
:1017B00069462046FFF7AAF8012210212046FFF7CC
:1017C0008FF810B010BD0000406002400C3C00409B
:1017D000240000201000002030B58FB01CA000F0C5
:1017E00039FB1E4C1EA0216800F034FB0121480586
:1017F000FFF7CCFA1E4D2846FEF778FF2846FFF784
:101800001CF80028FAD11B49CDE900011A490968E2
:101810000291402103912168CDE904104FF48061C9
:10182000CDE90610C9010890CDE909010B900C9093
:101830000D900E9069462846FFF768F801221021A6
:101840002846FFF74DF80DA000F004FB0FB030BDA7
:1018500054585F444D41D6D00D0A000010000020BE
:101860004275666653697A653A2025640D0A000060
:10187000886002400C3C004024000020696E6974BE
:10188000000000000029018802D041F0400101E081
:1018900021F0400101807047F0B587B0012104209C
:1018A000FFF774FA01210846FFF770FA0121CE0311
:1018B0003046FFF783FA364F06220B213846FFF7F2
:1018C0000BFA06220C213846FFF706FA06220A21F7
:1018D0003846FFF701FA022570118DF80450009088
:1018E0008DF8055000248DF8064069463846FFF70C
:1018F000B7F9A8028DF8045000908DF806408DF8D5
:10190000055069463846FFF7ABF9E8028DF80450F8
:1019100000908DF805508DF8064069463846FFF76F
:101920009FF901208DF804008DF806408DF80550D0
:10193000184D009669462846FFF792F9164F002188
:101940003846FFF79FFFADF808404FF48270ADF8BE
:101950000A00ADF810406815ADF812000720ADF888
:101960000C40ADF81440ADF81800ADF80E40ADF8DD
:10197000164002A9384600F05FF801213846FFF70B
:1019800081FF31462846FFF7BEF907B0F0BD0000E1
:101990000008024000000240003C00402DE9F041F8
:1019A0001C4E00213046FEF797FE1A4C0021483CA1
:1019B0002046FEF791FE184D288881B23046FEF78A
:1019C000CFFF288881B22046FEF7CAFF134F30466A
:1019D0003946FEF755FE124D20462946FEF750FEC9
:1019E0001048008801213046FEF776FE012120468E
:1019F000FEF772FE29462046FEF748FF0028F9D080
:101A000039463046FEF73CFE29462046BDE8F04107
:101A1000FEF736BE886002401000002000880020DB
:101A2000008020100C3C0040002A828801D00A432C
:101A300000E08A438280704730B502884C8802F407
:101A400041530A88CD8822438C882C4322430C8939
:101A500022434C8922438C892243CC8922431A4356
:101A60000280828B22F400628283098A018230BD67
:101A7000704700001CB500212E4A009101911068AA
:101A800040F4803010604FF4A043106800F4003040
:101A900001900098401C0090019810B9009898425D
:101AA000F3D11068800342D50120019021484030D5
:101AB000016841F0805101601F49086840F44040CE
:101AC00008601C48083003680360036843F400435F
:101AD0000360036843F4A0530360041F174B2360A3
:101AE000136843F08073136013689B01FCD50A6888
:101AF00042F480320A604A68D203FCD50A6842F494
:101B000000320A604A689203FCD50D4A40F2057122
:101B10001160016821F003010160016841F00201D8
:101B200001600168C1F381010229FAD11CBD019154
:101B30001CBD00000038024000700040195A4007E8
:101B4000003C024070470000124810B5016841F4A3
:101B5000700101601048016841F0010101600E4A06
:101B600000210832116002680C4B1A400260031D0C
:101B70000B4A1A60026822F48022026006480C3088
:101B80000160FFF777FF03494FF00060803908607C
:101B900010BD000088ED00E000380240FFFFF6FEB7
:101BA000103000241FB501210846FFF707F9132064
:101BB000029042F22730ADF804004FF0804401A9B2
:101BC000204600F04FF80121204600F027F82021A0
:101BD000204600F03FF84FF4E060FFF7CBF81C2000
:101BE0008DF8000000208DF8010003208DF8020020
:101BF00001208DF803006846FFF78AF81FBD10B575
:101C000001218C07204600F019F8002805D0204655
:101C1000BDE81040012100F004B810BDC9430182A5
:101C20007047C943018270470029018802D041F002
:101C3000010101E021F0010101807047024600200E
:101C4000138A92890B4202EA010202D0002A00D0D4
:101C500001207047828822F07002828082880A43C5
:101C60008280704730B50288164C174DA0420DD0C7
:101C7000A8420BD0B0F1804F08D0144B984205D049
:101C8000134B984202D0134B984203D122F07003B9
:101C90004A881A43104B984206D0104B984203D002
:101CA00022F440730A891A4302804A68C2620A8891
:101CB0000285A04201D0A84201D1897A0186012182
:101CC000818230BD0000014000040140000400405A
:101CD00000080040000C00400010004000140040CC
:101CE00010B5074C40F22551204600F01CF80028A2
:101CF00004D02046BDE8104000F0A2B810BD00009E
:101D0000001001400029818902D041F4005101E016
:101D100021F40051818170470246002012880A4256
:101D200000D00120704770B501F01F050126002486
:101D3000C1F3421306FA05F2012B0FD0022B0FD08C
:101D4000838A4FEA11210088134206FA01F600EA5D
:101D5000060001D000B10124204670BD8389F0E760
:101D6000038AEEE710B5C1F3421301F01F0401210D
:101D7000A140012B07D0022B07D01430002A0268A3
:101D800005D00A4304E00C30F8E71030F6E78A4348
:101D9000026010BD7FB50446008A0D46C98820F454
:101DA000405001432182A08941F20C618843A988F7
:101DB0002A8911436A8902431143A181A08A20F430
:101DC0004071A8890843A0826846FFF71BF81A48AB
:101DD000844202D01948844201D1039800E002985D
:101DE000A189090400EBC00101EB0010296801D5AD
:101DF000490000E08900B0FBF1F06422B0FBF2F191
:101E000009010B096FF018056B4300EB8300A389F0
:101E10001D044FF0320306D503EBC000B0FBF2F017
:101E200000F0070005E003EB0010B0FBF2F000F05B
:101E30000F00084320817FBD0010014000140140C5
:101E40008088C0F308007047C1F3080181807047A3
:101E5000FEE700000FB4054B10B503A9044A029831
:101E600000F018F810BC5DF814FB000055210008C4
:101E70002C00002002E008C8121F08C1002AFAD175
:101E800070477047002001E001C1121F002AFBD1FA
:101E9000704700002DE9FF4F8DB09B460F4604466A
:101EA000002606E025280BD05A460F999047641C5F
:101EB000761C20780028F5D111B03046BDE8F08FAF
:101EC0000025A8460122984900E0054314F8013F87
:101ED000203B02FA03F00842F7D120782E2817D1D0
:101EE00014F8010F45F004052A280ED06FF02F02D8
:101EF0002078A0F1300109290AD808EB880102EB0B
:101F0000410100EB0108641CF2E757F8048B641CE4
:101F100020786C280DD004DC4C2812D06A2811D10E
:101F200004E074280DD07A280CD10AE045F400159D
:101F300007E0617845F48015814202D1641C05F503
:101F40008015641C2278692A45D008DC002AB3D0A9
:101F5000582A69D0632A10D0642A08D13BE0702A3D
:101F600067D0732A13D0752A5CD0782A5CD01046CB
:101F70005A460F999047761CD3E017F8040B8DF85A
:101F8000000000208DF80100E946012003E057F829
:101F9000049B4FF0FF3069074FF0000501D40AE0C1
:101FA0006D1C45450DDA8542FADB19F8051000294C
:101FB000F6D106E06D1C8542FCDB19F805100029FE
:101FC000F8D12E4404E019F8010B5A460F999047B6
:101FD0006D1EF8D2A5E00A200021CDE90801C5F365
:101FE000025002280DD001CFC117031E71F100036A
:101FF0000DDA4FF0000CD0EB0C006CEB01012D233F
:1020000008E0FF1D27F00707F7E80201EDE72B05C1
:1020100004D52B238DF8283001233BE0EB0739D082
:102020002023F7E70A2000E010200021CDE9080175
:1020300007E01020002145F00405CDE908014FF02C
:102040000808C5F3025002280FD001CF00214FF03D
:10205000000A2B071FD5702A0DD0DDE908C38CF0CC
:10206000100C5CEA030C0CD015E0FF1D27F00707ED
:10207000F7E80201EBE740228DF828204FF0010A33
:102080000BE050EA010306D030238DF828308DF89C
:10209000292002239A46582A04D024A20DF12009AF
:1020A0000B9209E026A2F9E7DDE90823FEF7BEF866
:1020B0000B9B9B5C09F8013D50EA0102F4D1ADEBAA
:1020C000090020300890680701D44FF001080899F2
:1020D000884502DDA8EB010000E0002080460025D5
:1020E00006E00AA85A46405D0F9990476D1C761C81
:1020F0005545F6DB04E030205A460F999047761C90
:10210000B8F10001A8F10108F5DC05E019F8010BB0
:102110005A460F999047761C0899481E0890002946
:10212000F4DC641CC5E600000928010030313233BC
:102130003435363738396162636465660000000003
:1021400030313233343536373839414243444546ED
:102150000000000070B5074D0446C1B22846FFF7E5
:1021600073FE80212846FFF7D7FD0028F9D02046CE
:1021700070BD00000010014010B5002821D0114BA7
:102180000022001F196803E0814203D80A4649680B
:102190000029F9D152B11368841A9C4204D1006815
:1021A00018441060104602E0506000E0186039B139
:1021B00002680B1A934203D10B681A440260496803
:1021C000416010BD300000202DE9F04104460E466C
:1021D00000201A4F014647F82010401C1028FADB57
:1021E000002517A057F82510FFF734FE6D1C102DA1
:1021F000F7DB01256EB913A0FFF72CFE0020E107E5
:1022000001D047F820506408401C0828F7DB002E56
:1022100012D00020E10702D007EB80010D626408B4
:10222000401C0828F6DB0020F10701D047F82050B9
:102230007608401C0828F7DBBDE8F0813800002054
:10224000256420006C696E653135370070B50C4629
:10225000054601460CA0FFF7FDFD21460DA0FFF746
:10226000F9FD00200146EA0700D0401C6D08491C1A
:102270000829F8DB0021E20700D0401C6408491C53
:102280000829F8DB70BD000062797465313A257861
:102290000D0A000062797465323A25780D0A000053
:1022A000FEF79AFBFFF77EFCFEF7BAFCFFF7DCF9BE
:1022B000FEF71AF9012000F05BF901210020FEF77A
:1022C000AFF801211020FEF7ABF84EA0FFF7C2FDDA
:1022D0004E4F4F4D4FF480464FF0804831463846C0
:1022E000FEF70AFD0128F9D1FFF758FB0024286802
:1022F000015D48A0FFF7AEFD641C102CF7DB46A083
:10230000FFF7A8FD2868417B11B1122940D045E0B4
:10231000817B002942D1C17B052904D0012932D01B
:10232000082930D03AE0C1798079FFF78FFF3B4C24
:10233000606021684143480020602868C179807945
:10234000FFF742FF36486168FEF7A8FF1420616876
:1023500000F0CAF8606800F0EBF801214046FFF792
:1023600063FC2868C178042908D00229B6D1007915
:10237000C128B3D12BA0FFF76DFDAFE70079E228AC
:10238000ACD12DA0F7E731A0FFF764FD01210CE0EF
:10239000817B342902D1C17B56290AD00078732869
:1023A0009CD12DA0FFF756FD00214046FFF73CFCD5
:1023B00094E72CA0FFF74EFD2868C078012807D1CC
:1023C00001210020FEF72CF800211020FEF728F84C
:1023D0002868C078022807D100210846FEF720F8B7
:1023E00001211020FEF71CF82868C0780328C4D10A
:1023F00001210020FEF714F801211020FEF710F84B
:102400006CE70000737461727400000000180240F1
:1024100028000020257820000D0A00001000002070
:10242000380000207265636F6E666967757265417A
:102430004443720A000000007265636F6E6669674C
:102440007572654144430D0A0000000073746172A7
:1024500074206164630D0A0073746F70206164639B
:102460000D0A0000656E74657220636F6E74726F82
:102470006C206C696768740D0A000000F0B50B30C1
:10248000154D20F007010024144A0FE003688B4229
:102490000BD38B4205D95E1A43184768C3E900671E
:1024A00000E04368136002C004E0021D10680028C9
:1024B000ECD12046002802D1286808B10020F0BDE8
:1024C000064A07481060074A121A22F00702C0E9BC
:1024D000002401202860D7E73400002030000020CD
:1024E0007C0000207800022070B50D4606460021D1
:1024F0000C48FEF7F1F80C4C00212046FDF70DFFCB
:1025000000212046FDF7FFFE00212046FDF7F1FEE9
:10251000FDF70DFF29463046BDE87040034AFEF73F
:10252000BBBD0000106402400022014038000020C2
:1025300070B5054600210C48FEF7CEF80A48002188
:102540004838FEF7C9F8094C002202212046FFF75F
:102550006BFA002201212046FFF766FA2846BDE803
:10256000704000F043B8000088600240003C00402A
:1025700070B51A4CD4E90001014304D0FFF7FCFD0B
:102580006068FFF7F9FD4FF480652846FFF776FF96
:1025900020602846FFF772FF6060216801B110B922
:1025A0000FA0FFF757FC29462068FDF734FE2946A7
:1025B0006068FDF730FEFFF76FF9FFF70DF9FFF7E1
:1025C000D1F8094C012202212046FFF72DFA2046BE
:1025D000BDE8704001221146FFF726BA2400002012
:1025E0006E756C6C0D0A0000003C004070B5194D12
:1025F0000446D5E90001014304D0FFF7BDFD68683A
:10260000FFF7BAFDE4022046FFF738FF28602046B6
:10261000FFF734FF6860296801B110B90EA0FFF719
:1026200019FC21462868FDF7F6FD21466868FDF78C
:10263000F2FDFFF7D1F8FFF795F8094C01220221CE
:102640002046FFF7F1F92046BDE87040012211460F
:10265000FFF7EAB9240000206E756C6C0D0A0000CB
:10266000003C004084030000882600080000002091
:1026700038000000741E0008C02600083800002042
:1026800040200200841E0008000000000102030434
:10269000010203040607080900040000000000000E
:1026A000000000000000000000000000000000002A
:1026B000000000000000000000000000000000001A
:04000005080001AD41
:00000001FF
