:020000040800F2
:1000000028530120C10100082D13000881120008A7
:1000100029130008D9070008DF300008000000009D
:10002000000000000000000000000000292B000874
:10003000650E00080000000001140008912C000863
:10004000DB010008DB010008DB010008DB01000820
:10005000DB010008DB010008DB010008DB01000810
:10006000DB010008DB010008DB010008DB01000800
:10007000DB010008DB010008ED0A00081D0B000889
:10008000DB010008DB010008DB010008DB010008E0
:10009000DB010008DB010008DB010008DB010008D0
:1000A000DB010008DB010008DB010008DB010008C0
:1000B000DB010008DB010008DB010008DB010008B0
:1000C000DB010008DB010008DB010008DB010008A0
:1000D000DB010008DB010008812D0008DB010008BE
:1000E000DB010008DB010008DB010008DB01000880
:1000F000DB010008DB010008DB010008DB01000870
:10010000DB01000889170008DB010008DB0100089B
:10011000DB010008DB010008DB010008DB0100084F
:10012000DB010008DB010008DB0100083D0B0008D3
:10013000DB010008DB010008DB010008DB0100082F
:10014000DB010008DB010008DB010008DB0100081F
:10015000450B0008DB010008DB010008692E0008E0
:10016000DB010008DB010008DB010008DB010008FF
:10017000DB010008DB010008DB010008DB010008EF
:10018000DB010008DB010008DB010008DB010008DF
:10019000DB010008DB010008DB010008DB010008CF
:1001A000DB010008DB010008DB010008DFF80CD0F0
:1001B00000F0EEFA00480047255D000828530120B2
:1001C0000648804706480047FEE7FEE7FEE7FEE7F1
:1001D000FEE7FEE7FEE7FEE7FEE7FEE7012D00088B
:1001E000AD0100082DE9F05F0546002092469B46D0
:1001F00088460646814640241BE02846414647463D
:10020000224600F012F953465A46C01A914110D3C3
:1002100011461846224600F0F9F82D1A67EB01083E
:100220004F4622460120002100F0F0F817EB0009AC
:100230004E41201EA4F10104DFDC484631462A4627
:100240004346BDE8F09F40EA01039B0703D009E065
:1002500008C9121F08C0042AFAD203E011F8013BB2
:1002600000F8013B521EF9D27047D2B201E000F80B
:10027000012B491EFBD270470022F6E710B513464A
:100280000A4604461946FFF7F0FF204610BD421CFF
:1002900010F8011B0029FBD1801A70472DE9FE4F91
:1002A00081EA030404F0004421F0004100944FF07F
:1002B000000B23F0004350EA01045ED052EA03042D
:1002C0005BD0C3F30A54C1F30A552C44A4F2F334AF
:1002D0000194A0FB0254C1F3130141F48011C3F354
:1002E000130343F4801301FB024400FB034E840A12
:1002F000970A44EA815447EA8357A4FB07680295AA
:100300008D0A05FB07854FEA932C04FB0C54270547
:10031000029D4FEA065847EA1637B5EB08056EEB23
:10032000070C870E920E47EA811742EA8312A7FB59
:100330000201B6EB0B0164EB00042B0D43EA0C3316
:100340005E1844EB1C50DA465146E7FB0201C5F348
:1003500013044FEA0B3343EA14534FEA0432019C6F
:1003600043EA0603A4F10C040294009CCDE900B416
:1003700000F07AF803B0BDE8F08F00200146F9E7FD
:100380000EB5C10F80EAE0700844CA07002140F2B0
:1003900033438DE80E000A460B4600F065F803B0C3
:1003A00000BD70B5C1F30A5201F000450024C1F34D
:1003B000130140F2FF3341F480119A4201DA002028
:1003C00070BD40F233439A42A2F2334203DC524200
:1003D00000F02BF800E090402C43F1D0404270BD7B
:1003E00030B50B46014600202022012409E021FA05
:1003F00002F59D4205D303FA02F5491B04FA02F502
:100400002844151EA2F10102F1DC30BD202A04DBD4
:10041000203A00FA02F1002070479140C2F1200317
:1004200020FA03F3194390407047202A04DB203A56
:1004300021FA02F00021704721FA02F3D040C2F104
:100440002002914008431946704710B5141E73F1FD
:10045000000408DA401C41F1000192185B411A4384
:1004600001D120F0010010BD2DE9F04D92469B46D0
:1004700011B1B1FA81F202E0B0FA80F22032904676
:10048000FFF7C4FF04460F4640EA0A0041EA0B01A9
:1004900053465A46084313D0114653EA010019D077
:1004A000C8F140025046FFF7C0FF05460E465046D1
:1004B00059464246FFF7AAFF084305D0012004E051
:1004C00020463946BDE8F08D0020054346EAE07637
:1004D0002C4337430A986305E40AA0EB0800002286
:1004E000FD0A44EA47540A3002D500200146E9E7F4
:1004F000010510196941DDE9084500196941BDE8A8
:10050000F04DA2E72DE9FE4F804681EA0300C00FBF
:100510000C46009021F0004123F00045B8EB0200AA
:10052000A94105D24046214690461C460B4602464C
:1005300023F00040104347D0270DC7F30A00C3F350
:100540000A510290401A019040286BDAC3F313005D
:1005500040F4801B0098924620B10023D2EB030A9E
:1005600063EB0B0B01985946C0F140025046FFF770
:100570004DFF06460D4650465946019A00F01AF9BD
:1005800010EB08006141002487EA115284EAE77306
:100590001A4340D0009A62B3019A012A4FEA0752E7
:1005A00015DC001B61EB02014FF0004202EA07522A
:1005B000CDE90042001C41F5801132462B46FFF781
:1005C00053FF03B0BDE8F08F40462146F9E7001B1A
:1005D00061EB0201001C41F5801300185B412018FB
:1005E000A2F5001747EB030140EAD570B6196D413B
:1005F00011E06D084FEA360645EAC0754FEA07522A
:10060000001B61EB0201001C41F5801149084FEA13
:1006100030000019514132462B4603B0BDE8F04F7F
:10062000FFF713BF0098012240000023D0EB020225
:1006300063EBE073009821464FEAE074B8EB0000EA
:1006400061EB0401E9E783F000435BE781F00041DF
:1006500058E72DE9F04D81EA030404F0004B21F046
:10066000004514464FF0000A23F0004150EA05020D
:1006700020D054EA01021DD0C5F30A570246C5F343
:100680001303C1F31300C1F30A5640F4801543F479
:100690008013A7EB0608101BD64608F2FD3873EB53
:1006A000050002D308F1010801E092185B41B8F19E
:1006B000000F03DA00200146BDE8F08D00204FF462
:1006C0008011064684460EE0171B73EB050705D321
:1006D000121B63EB050306434CEA010C49084FEA81
:1006E000300092185B4150EA0107EDD152EA030055
:1006F00012D082EA040083EA0501084305D0101BEA
:10070000AB4106D20122002306E000224FF0004355
:1007100002E06FF0010253101AEB06004CEB085197
:1007200010EB0A0041EB0B01BDE8F04DFFF78DBE69
:10073000C1F30A52C1F3130140F2FF3341F48011B7
:100740009A4202DA00200146704740F233439A424F
:10075000A2F2334202DC5242FFF767BEFFF756BEF9
:1007600030B5041E71F1000404DB4FF00044404238
:1007700064EB0101141E73F1000405DB1C464FF00D
:100780000043524263EB0403994208BF904230BDDC
:10079000064C074D06E0E06840F0010394E80700CE
:1007A00098471034AC42F6D3FFF704FD3820030815
:1007B00058200308202A06DBCB17203A41FA02F022
:1007C00043EAE07306E041FA02F3D040C2F12002AE
:1007D000914008431946704700BFFEE71CB50EA0C4
:1007E000006801900DA00068009000F04BFD41F200
:1007F000883000F095FB01A806F0FEF842F2107078
:1008000000F08EFB684606F0F7F841F2883000F001
:1008100087FB00F06DFD1CBDC1C1C100C3C3C30097
:1008200070B500254FF4803400E0641E24B18020B0
:1008300000F07EFF0028F8D014B90325284670BDCB
:1008400040F2FF5000F030FF2846F8E72DE9F04174
:10085000064600274848056801E04748056805F056
:1008600045000028F9D005F0040030B1032704202A
:1008700000F01AFF3846BDE8F08105F0010028B10C
:100880000127012000F010FF3846F4E700F04AFF8E
:10089000B04202D010273846EDE740F2FF5000F09A
:1008A00003FF002000F064FF04463448204008B9EC
:1008B0003846E0E704F0004008B11C20DBE704F014
:1008C000804008B10920D6E704F0005008B10A20A2
:1008D000D1E704F0805008B10B20CCE704F00060B1
:1008E00008B10C20C7E704F0806008B10D20C2E712
:1008F00004F0807008B10E20BDE704F4000008B1D8
:100900000F20B8E704F4800008B11020B3E704F426
:10091000001008B11120AEE704F4801008B11220D5
:10092000A9E704F4002008B11320A4E704F4802010
:1009300008B114209FE704F4003008B115209AE7AD
:1009400004F4803008B1162095E704F4004008B1A3
:10095000172090E704F4804008B118208BE704F4D6
:10096000005008B1192086E704F0080008B11A20E9
:1009700081E738467FE70000342C014008E0FFFDA6
:1009800070B500251048046801E00F48046804F0C1
:1009900045000028F9D004F0040028B10325042004
:1009A00000F082FE284670BD04F0010028B1012548
:1009B000012000F079FE2846F5E740F2FF5000F0F4
:1009C00073FE2846EFE70000342C014070B5002587
:1009D0000B48046801E00A48046804F04500002858
:1009E000F9D004F0040028B10325042000F05CFED7
:1009F000284670BD40F2FF5000F056FE2846F8E74A
:100A0000342C01402DE9F04106460F464FF0000816
:100A10002248056801E02148056805F045000028E6
:100A2000F9D005F0040038B14FF00308042000F0BD
:100A30003BFE4046BDE8F08105F0010030B14FF0CB
:100A40000108012000F030FE4046F3E700F06AFEA6
:100A5000B04203D04FF010084046EBE740F2FF50A1
:100A600000F022FE002000F083FE044604F4604003
:100A700018B9200C38804046DCE704F4005008B177
:100A80001320D7E704F4804008B11020D2E704F423
:100A9000004008B10F20CDE74046CBE7342C0140A1
:100AA00070B500264FF480350F48046802E06D1ED3
:100AB0000D48046804F0450008B9002DF7D115B1C0
:100AC00004F0040028B10326042000F0EDFD3046B8
:100AD00070BD04F0400028B10026402000F0E4FD85
:100AE0003046F5E73046F3E7342C014010B50024DA
:100AF00006A002F0F7FA0749074800F035F918B1E7
:100B00000449054800F048F810BD00007263760DF6
:100B10000A000000008000185860024010B5002450
:100B20000449054800F020F918B10249024800F0D4
:100B300033F810BD208000207060024010B501F035
:100B40001FFB10BD10B500240449054800F00CF946
:100B500018B10249024800F01FF810BD00880020BB
:100B6000886402400246094B9A4201D2084801E0DB
:100B70000648103801F000531BB1064B0B40C36010
:100B800002E0044B0B408360704700001064024099
:100B9000006002407D0F7D0F0246094B9A4201D250
:100BA000084801E00648103801F000531BB1064B1D
:100BB0000B40C36002E0044B0B40836070470000B1
:100BC00010640240006002407D0F7D0F21B1026879
:100BD00042F00102026003E0026822F001020260BA
:100BE00070470000016821F00101016000210160EF
:100BF00041608160C1600161212141614A498842AF
:100C000004D13D21484A103A91608CE046491831A0
:100C1000884205D14FF47461434A103A916082E0F2
:100C200041493031884205D14FF474113E4A103A9F
:100C3000916078E03C494831884205D14FF07461B9
:100C4000394A103A91606EE037496031884204D1E8
:100C50003649354A103AD16065E0334978318842E7
:100C600004D13349304A103AD1605CE02E499031CA
:100C7000884204D12F492C4A103AD16053E02A49C6
:100C8000A831884205D14FF03D51274A103AD16032
:100C900049E02949884204D13D21274A083A116098
:100CA00041E025491831884205D14FF47461224A48
:100CB000083A116037E020493031884205D14FF4BD
:100CC00074111D4A083A11602DE01B4948318842D1
:100CD00005D14FF07461184A083A116023E01649B3
:100CE0006031884204D11149134A121F11601AE081
:100CF00011497831884204D10D490F4A121F116001
:100D000011E00D499031884204D10A490A4A121F64
:100D1000116008E00849A831884204D14FF03D51E4
:100D2000054A121F11607047106002403D0000200C
:100D3000400F002000003D201064024021B10268F5
:100D400042F02002026003E0026822F0200202600A
:100D50007047014600200A6802F001020AB1012032
:100D600000E000207047000070B50246002000241B
:100D70000025124EB24201D2114B01E00F4B103B45
:100D8000104E0E4036B11E2606EAD124166806EA39
:100D9000040502E0566906F0800501F000560EB128
:100DA0005C6800E01C68084E344004EA010616B195
:100DB0000DB1012000E0002070BD00001064024071
:100DC000006002403C0F3C0F7D0F7D0F10B501F01D
:100DD00080034BB122B1436943F08003436103E0D8
:100DE000436923F08003436180290BD02AB1036853
:100DF00001F01E042343036004E0036801F01E04B5
:100E0000A343036010BD000010B500220268134B1D
:100E10001A40CC680B6823434C6923438C692343F5
:100E2000CC6923430C6A23434C6A23438C6A2343D3
:100E30004C6B23438C6B23431A430260426922F0BC
:100E40000702D1E90B3423431A4342610B69436023
:100E50004B6883608B68C36010BD00003F801CF04E
:100E6000416070477047000000B587B0012108203D
:100E700000F0C8FA0121480400F0D4FA00208DF8EF
:100E80001A0001208DF81B0002208DF819008DF842
:100E900018002020059005A91A4800F06BF90220DF
:100EA0008DF818004020059005A9164800F062F959
:100EB00007220621134800F0A5F907220521114851
:100EC00000F0A0F94FF4E13001900020ADF80800E7
:100ED000ADF80A00ADF80C00ADF810000C20ADF82C
:100EE0000E0001A9084802F087F8012240F22551BE
:100EF000054802F05CF80121034802F00DF807B044
:100F000000BD0000000C02400044004001B502E0BA
:100F10000098401E009000980028F9D108BD0000FC
:100F200001B504490098086000BF02480068002825
:100F3000FBD108BD880000202DE9FC4107460D4685
:100F40000026002400200090019008205B490860E2
:100F500010204860402088600020C8604FF4806006
:100F60000861084600F042FC1020FFF76FFC0446C1
:100F700014B12046BDE8FC815148008800044F4967
:100F8000086037204860402088600020C8604FF427
:100F900080600861084600F029FC3720FFF756FC06
:100FA00004460CB12046E5E74FF0FF3045490860A4
:100FB00008204860302088600220C8600020086156
:100FC00001204861084600F087FB00203B4908608B
:100FD00033204860402088600020C8604FF4806063
:100FE0000861084600F002FC3320FFF72FFC04469E
:100FF0000CB12046BEE709E04FF4001000F098FB6A
:1010000020B100F0EDFB4DF82600761C2E4800685C
:1010100040F22A6108400028EED0082000F088FB4A
:1010200028B1082000F040FB04242046A2E702205B
:1010300000F07EFB28B1022000F036FB022420469F
:1010400098E7202000F074FB28B1202000F02CFB52
:10105000062420468EE74FF4007000F069FB30B1A3
:101060004FF4007000F020FB0724204682E740F296
:10107000FF5000F019FB00980006009901F47F4131
:1010800040EA0120009901F47F0140EA1120009913
:1010900040EA1160686001980006019901F47F41FF
:1010A00040EA0120019901F47F0140EA11200199F1
:1010B00040EA1160286020465CE70000F82E00201E
:1010C000740000200C2F0020342C01401CB501219D
:1010D000084600F097F90121802000F093F90120E3
:1010E00000908DF804008DF8070000208DF80600B0
:1010F0008DF8050069461D4800F03CF8022000907C
:1011000001208DF804008DF8070000208DF80600FE
:101110008DF805006946154800F02CF84FF40040A2
:10112000009000208DF8040001208DF8070069462A
:101130000F4800F01FF84FF48040009001208DF818
:10114000040002208DF807006946094800F012F8F3
:101150000121064800F08BF80221044800F087F8CE
:101160004FF48041024800F084F81CBD00000240AA
:10117000001C0240F0B50A4600210023002400BFF5
:101180003DE0012505FA01F3156805EA03049C42D8
:1011900034D105684F000326BE40B543056015797C
:1011A0004E00B5400668354305601579012D02D023
:1011B0001579022D16D185684F000326BE40B54330
:1011C000856055794E00B540866835438560456831
:1011D00001268E40B5434560456896798E40B6B28B
:1011E00035434560C5684F000326BE40B543C56022
:1011F000D5794E00B540C6683543C560491C1029F5
:10120000BFD3F0BDF0B5002300244D07ED0E02FA68
:1012100005F3CE1000F1200555F826504E07F70EC5
:101220000F26BE40B543CF1000F1200646F82750E8
:10123000CE1000F1200555F8265045EA0304CE10E3
:1012400000F1200545F82640F0BD02460020136954
:101250000B400BB1012000E0002070470246002047
:1012600053690B400BB1012000E00020704741831F
:101270007047018370470AB1018300E041837047E2
:1012800000BFFEE710B5012251020748FFF7F3FF48
:101290004FF400710448FFF7E1FF0446214603A024
:1012A00001F020FF10BD0000000002405041392035
:1012B0004269743A25640D0A000000001CB5012142
:1012C000084600F09FF800208DF8060002208DF8F7
:1012D00007008DF8050001208DF804004002009001
:1012E00069460248FFF746FF1CBD000000000240AF
:1012F00010B500224FF400710648FFF7BCFF4FF411
:1013000000710448FFF7AAFF0446214602A001F03D
:10131000E9FE10BD00000240504139204269743A94
:1013200025640D0A0000000000BFFEE7704708B505
:101330004FF4A06000F05AF826208DF8000000203D
:101340008DF8010001208DF802008DF80300684639
:1013500000F010F847208DF8000000208DF8010003
:1013600002208DF8020001208DF80300684600F08D
:1013700001F808BD70B5002100230F22C4781CB30A
:10138000174C246804F4E064C4F5E064C4F3072156
:10139000C1F10404E3B20A4144789C40E1B284788C
:1013A000144021430C07210E0E4C0578615504783A
:1013B00004F01F050124AC4005786D11AD0005F166
:1013C000E025C5F8004109E0047804F01F05012478
:1013D000AC40054D0678761145F8264070BD0000FA
:1013E0000CED00E000E400E080E100E00249014390
:1013F000024A1160704700000000FA050CED00E0A1
:101400007047000029B1064A12680243044B1A6073
:1014100004E0034A12688243014B1A6070470000DF
:101420003038024029B1064A12680243044B1A6060
:1014300004E0034A12688243014B1A6070470000BF
:101440004038024029B1064A12680243044B1A6030
:1014500004E0034A12688243014B1A60704700009F
:101460004438024029B1064A12680243044B1A600C
:1014700004E0034A12688243014B1A60704700007F
:1014800024380240F0B50021002200240225002665
:101490000223324F3F6807F00C0121B1042905D027
:1014A000082937D105E02E4F076036E02D4F076041
:1014B00033E02A4F3F1F3F68C7F38056274F3F1F37
:1014C0003F6807F03F036EB1264FB7FBF3F7DFF835
:1014D0008CC0ACF1040CDCF800C0CCF3881C07FB1A
:1014E0000CF40CE01E4FB7FBF3F7DFF870C0ACF163
:1014F000040CDCF800C0CCF3881C07FB0CF4174F7D
:101500003F1F3F68C7F301477F1C7D00B4FBF5F721
:10151000076002E0124F076000BF00BF0F4F3F6837
:1015200007F0F0010909104F7A5C0768D74047605F
:101530000A4F3F6807F4E051890A0B4F7A5C47680D
:10154000D7408760054F3F6807F46041490B064F5D
:101550007A5C4768D740C760F0BD00000838024099
:101560000024F40040787D01140000200548007834
:10157000012804D100200349087003487047002067
:10158000FCE7000096000020242F00207CB50546D3
:10159000002400200090019000F0EAF800F00070B4
:1015A00010B10E2420467CBD3D49098888B26946A9
:1015B000FFF7C2FC04460CB12046F4E7012D36D1FA
:1015C000019800F4802000282ED0354800880004BF
:1015D0003449086037204860402088600020C86097
:1015E000A8020861084600F001F93720FFF72EF93C
:1015F00004460CB12046D6E702202A49086006209E
:101600004860402088600020C8604FF48060086116
:10161000084600F0EBF80620FFF718F904460CB175
:101620002046C0E72046BEE725242046BBE70198B8
:1016300000F4803078B31A48008800041949086023
:1016400037204860402088600020C8604FF48060E8
:101650000861084600F0CAF83720FFF7F7F804469B
:101660000CB120469FE700200E4908600620486024
:10167000402088600020C8604FF480600861084600
:1016800000F0B4F80620FFF7E1F804460CB120465C
:1016900089E7204687E7FFE72524204683E7000007
:1016A00074000020F82E00200149086070470000F7
:1016B000382C01400149086070470000382C014077
:1016C0000149086070470000A08025420149086078
:1016D000704700008C85254200210B4B02681A6080
:1016E0001B1D42681A601A1D116821F0F701D0E92C
:1016F00002231A4303691A4343691A431143024AF6
:101700000832116070470000242C014010B50121FF
:10171000C802FFF7A7FE00214FF40060FFF7A2FE0A
:1017200010BD000001480068C0B27047102C014095
:1017300001460020034A12680A400AB1012000E075
:1017400000207047342C014001460020034A1268F3
:101750000A400AB1012000E000207047342C01400B
:101760000248006800F0030070470000002C0140B0
:1017700008B50146002000900248084400900098F7
:10178000006808BD142C014010B500F00DFD10BD1F
:1017900029B1064A12680243044B1A6004E0034A66
:1017A00012688243014B1A60704700003C2C0140D4
:1017B00000210A4A116847F6FF629143027D83685F
:1017C0001A4343681A43C3681A4303681A430369F8
:1017D0001A431143014A116070470000042C014074
:1017E0000148006870470000802C01400021094B2F
:1017F00002681A601A1D11686FF30A01D0E901230B
:101800001A43C3681A4303691A431143014A121D5C
:1018100011607047082C01400149086070470000C2
:10182000002C014008B5012000909DF8000008BD83
:1018300070B50446002520480068032802D12725FA
:10184000284670BD1C48006838B11B480068012854
:1018500003D01948006802282CD1B4F5805F02D16A
:1018600027252846EDE7B4F5006F13D10120FFF7D7
:101870008DFE0546F5B900201049087508604860DE
:1018800088604FF40060C860002008610846FFF7D8
:101890008FFF0FE00020FFF779FE054655B90020C5
:1018A00006490875086048608860C8600861084695
:1018B000FFF77EFF2846C4E770000020E02E0020DE
:1018C000F0B5014600200022C04B1B7881F856304D
:1018D000BF4B1B88A1F85430BE4B1B681A0E9309EE
:1018E0000B70C2F383034B7002F003038B70B94B90
:1018F0001B68C3F30742CA70B64B1B88C3F30722A9
:101900000A71B44B1A784A715B681A0E1301CB80C6
:10191000B04B5B68C3F30742CB8843EA1213CB801A
:1019200002F00F030B72AB4B9B88C3F30722D30962
:101930004B72C2F380138B72C2F34013CB72C2F3AB
:1019400000130B7300234B73A04B1B681BB19F4B01
:101950001B68012B4FD193071B0D0B619D4B1A790F
:101960000B6943EA82030B619A4B9B681A0E0B6961
:1019700043EA92130B61C2F3C2030B7502F0070333
:101980004B75944B9B68C3F3074253098B75C2F3A5
:101990008203CB7593075B0F0B768E4B1B89C3F3CA
:1019A00007220B7E43EAD2130B760B695B1C0024E3
:1019B000C1E912340B7ED1E912469B1C012505FAC0
:1019C00003F3DF17A4FB035C06FB03C304FB07332D
:1019D000C1E912530C7A0123A3400B650027D1E91A
:1019E00012560B6DA5FB034C06FB03C305FB073327
:1019F000C1E9124336E0754B1B68022B32D1754B9F
:101A00001A7993069B0A0B61724B9B681A0E0B693D
:101A100043EA02230B616F4B9B68C3F307420B69D8
:101A200013430B616B4B1B89C3F307220B69002423
:101A30005B1C44EB04074FF400760025A3FB064C27
:101A400007FB06C603FB05664FF480650027A4FB71
:101A5000053C06FB05C504FB0754C1E912344FF4ED
:101A600000730B65C2F3801301F8193F93065B0EF8
:101A70004B70584B1A7A4B7843EAD2134B7002F0F2
:101A80007F038B70534BDB681A0ED309CB70C2F304
:101A900041130B71C2F382034B7193071B0F8B71C0
:101AA0004C4BDB68C3F307428B7943EA92138B718B
:101AB000C2F34013CB7100230B7202F001034B728F
:101AC000444B9B89C3F30722D3098B72C2F3801363
:101AD000CB72C2F340130B73C2F300134B73C2F308
:101AE00081038B7302F00303CB733A4B1A7B5308C9
:101AF0000B7401234B74384B1B681A0ECA741939C6
:101B0000354B1B68C3F307421402CC85324B1B884C
:101B1000C3F30722CB8D1343CB852F4B1A781406C2
:101B20000C635B681A0E0B6B43EA02440C632A4B8E
:101B30005B68C3F307420B6B43EA02240C63264B3A
:101B40009B88C3F307220B6B13430B63224B1A7959
:101B500034235A54204B9B681A0E35235A541E4B7B
:101B60009B68C3F3074214068C631B4B1B89C3F3AA
:101B700007228B6B43EA02448C63174B1A7A8B6BF8
:101B800043EA02248C63144BDB681A0E8B6B1343FD
:101B90008B63114BDB68C3F307423C235B5C43EA76
:101BA00012143C235C5413071C0DCC870A4B9B89F1
:101BB000C3F30722CB8F1343CB87074B1A7B540801
:101BC00040235C54012441235C54F0BD700000208C
:101BD00074000020582E0020682E002008B5002038
:101BE0000090FFF71FFE012809D1684600F0CAFBEC
:101BF00008B1FF2008BD0098C0F34320FAE7FF209A
:101C0000F8E710B50424FFF7E9FF0446042C01D1DE
:101C1000002010BDFF2C01D10220FAE70120F8E7D7
:101C20001CB5002001904FF4C060FFF7DFFB3120AE
:101C30008DF8000001208DF8010000208DF80200D1
:101C400001208DF803006846FFF794FB3B208DF8D8
:101C5000000001208DF801006846FFF78BFB00F0C3
:101C60006DF9FFF753FD00F0BBF901909DF80400FA
:101C700010B19DF804001CBD00F032F801909DF8F1
:101C8000040010B19DF80400F5E700201249087522
:101C9000086048608860C86008610846FFF788FDF2
:101CA0000E48FFF70DFE01909DF8040040B90B4867
:101CB000B0F8540002041046002100F047FB0190E8
:101CC0009DF8040020B94FF40060FFF7B1FD0190CA
:101CD0009DF80400CFE70000E02E0020882E0020B1
:101CE00038B5002401200090FFF73AFD10B92524F3
:101CF000204638BD44480068042828D000204349C5
:101D0000086002204860C02088600020C8604FF44E
:101D1000806008610846FFF769FDFEF731FE044662
:101D20000CB12046E5E70020FFF722FD38490860A6
:101D30000420FFF71DFD364948600820FFF718FD15
:101D4000334988600C20FFF713FD3149C8602E48E5
:101D5000006858B12C480068012807D02A4800685C
:101D6000062803D028480068022816D100202749F9
:101D7000086003204860402088600020C8604FF45D
:101D8000806008610846FFF731FD69460320FEF7D1
:101D900039FE04460CB12046ABE71B480068042816
:101DA0002ED0BDF800001B490860BDF800000004FB
:101DB0001649086009204860C02088600020C8607B
:101DC0004FF4806008610846FFF710FDFEF7D8FD6C
:101DD00004460CB120468CE70020FFF7C9FC0E49F1
:101DE00008600420FFF7C4FC0B4948600820FFF797
:101DF000BFFC094988600C20FFF7BAFC0649C8609F
:101E00000024204675E7000070000020F82E002016
:101E1000682E002074000020582E002030B58FB0AE
:101E200004460D464FF0FA511E48FEF79BFE002176
:101E30001C48FEF7CBFE1B48FEF7D4FE4FF00060B7
:101E40000090194801900294002003900120049012
:101E5000002005904FF4806006908000079080007D
:101E60000890002009904FF440300A9004200B9015
:101E700003200C904FF400000D9080100E906946E6
:101E80000848FEF7C1FF012210210648FEF79EFF19
:101E900020210448FEF752FF01210248FEF796FE7A
:101EA0000FB030BD58640240802C014030B58FB077
:101EB00004460D464FF0FA511E48FEF753FE00212E
:101EC0001C48FEF783FE1B48FEF78CFE4FF00060B7
:101ED0000090194801900294402003900120049042
:101EE000002005904FF480600690800007908000ED
:101EF0000890002009904FF440300A9004200B9085
:101F000003200C904FF400000D9080100E90694655
:101F10000848FEF779FF012210210648FEF756FF18
:101F200020210448FEF70AFF01210248FEF74EFE79
:101F30000FB030BD58640240802C01401CB5012117
:101F40000C20FFF75FFA0C2208212348FFF75AF90B
:101F50000C2209212048FFF755F90C220A211E48BE
:101F6000FFF750F90C220B211B48FFF74BF90C220D
:101F700011461948FFF746F90C2202211748FFF7CE
:101F800041F94FF47060009002208DF805008DF843
:101F9000040000208DF8060001208DF80700694636
:101FA0000D48FFF7E7F80420009069460B48FFF75B
:101FB000E1F84FF48050009000208DF8070069464A
:101FC0000548FFF7D7F80121C802FFF73BFA0121C6
:101FD0008805FFF717FA1CBD00080240000C0240FC
:101FE000F8B5002000900025002400260027762068
:101FF0005F4908750020086048608860C860086113
:102000000846FFF7D5FB0320FFF706FC0120FFF78A
:1020100057FB00205749086048608860C8604FF44B
:10202000806008610846FFF7E1FBFEF7F9FB0090CE
:102030009DF8000010B19DF80000F8BD4FF4D57078
:102040004C49086008204860402088600020C86033
:102050004FF4806008610846FFF7C8FBFEF720FDDB
:1020600000909DF8000020B90120434908608707CF
:1020700012E000203F490860372048604020886017
:102080000020C8604FF4806008610846FFF7AEFB8F
:102090003720FEF7DBFB0090002036490860372030
:1020A0004860402088600020C8604FF4806008616C
:1020B0000846FFF79BFB3720FEF7C8FB00909DF812
:1020C0000000002851D13BE000202A490860372059
:1020D0004860402088600020C8604FF4806008613C
:1020E0000846FFF783FB3720FEF7B0FB00909DF812
:1020F000000010B19DF800009FE7204838431D49BB
:10210000086029204860402088600020C8604FF4A3
:10211000806008610846FFF769FBFEF757FC0090F6
:102120009DF8000010B19DF8000086E70020FFF741
:102130001FFB0546012080EAD57080F00106641C73
:102140001EB94FF6FF708442BED34FF6FF70844233
:1021500004D31B2000909DF800006EE705F080403E
:10216000050002D00220044908609DF8000064E7E1
:10217000E02E0020F82E00207000002000001080CB
:1021800010B50748006800F0C05040B10120054973
:1021900008604FF0C25102485830FEF7E3FC10BD12
:1021A000006402408400002010B54FF48070FFF7F7
:1021B000CBFA50B10020254908704FF48070FFF72A
:1021C00079FA01202249086037E00220FFF7BCFAC3
:1021D00030B10220FFF76EFA02201C4908702CE093
:1021E0000820FFF7B1FA30B10820FFF763FA0420A6
:1021F0001649087021E02020FFF7A6FA30B1202010
:10220000FFF758FA06201149087016E01020FFF772
:102210009BFA30B11020FFF74DFA05200B490870EA
:102220000BE04FF40070FFF78FFA30B14FF40070FD
:10223000FFF740FA07200549087000214CF23A30B8
:10224000FFF7A6FA0148007810BD00007C000020CE
:10225000800000202DE9F047814614461D46DDE947
:1022600008680027002032490870324908600120C0
:1022700031490860002031490860012140F22A30CC
:10228000FFF786FA08FB06F14846FFF7C7FD012075
:10229000FFF71CFA2A480068022808D10602020249
:1022A000002320462946FDF79DFF04460D4625489C
:1022B0000660102023494860402088600020C860E4
:1022C0004FF4806008610846FFF790FA1020FEF78F
:1022D000BDFA074617B13846BDE8F0874FF0FF302A
:1022E0001949086008FB06F04860902088600220C9
:1022F000C86000200861012048610846FFF7ECF93A
:102300001048046012200F49486040208860002077
:10231000C8604FF4806008610846FFF767FA122032
:10232000FEF794FA07460FB13846D5E73846D3E7AB
:102330007C00002080000020780000202C2C014030
:1023400070000020F82E00200C2F002070B50446ED
:102350000D4600260A4804600720094948604020CD
:1023600088600020C8604FF4806008610846FFF76D
:102370003DFA0720FEF76AFA0646304670BD0000B7
:10238000F82E002070B50446002514B926252846ED
:1023900070BD0F48008800040E4908600D20486099
:1023A000402088600020C8604FF4806008610846C3
:1023B000FFF71CFA0D20FEF749FA05460DB1284635
:1023C000E6E70020FFF7D4F920602846E0E70000A8
:1023D00074000020F82E002010B5002400200A49C7
:1023E00008600C204860402088600020C8604FF4DE
:1023F000806008610846FFF7F9F90C20FEF726FA1D
:102400000446204610BD0000F82E002070B50025BF
:102410006C1E00E0641E1848006838B91748006850
:1024200020B91748007808B9002CF3D100201249D0
:102430000860441E00E0641E1248006800F400506A
:1024400008B1002CF7D110480068012805D1FFF72A
:10245000C3FF054600200C4908600CB905B90425E6
:1024600040F2FF50FFF720F90548007810B104480A
:10247000007870BD2846FCE7840000208000002022
:102480007C000020342C01407800002070B500252D
:102490006C1E00E0641E1848006838B917480068D0
:1024A00020B91748007808B9002CF3D10020124950
:1024B0000860441E00E0641E1248006800F480506A
:1024C00008B1002CF7D110480068012805D1FFF7AA
:1024D00083FF054600200C4908600CB905B90425A6
:1024E00040F2FF50FFF7E0F80548007810B10448CB
:1024F000007870BD2846FCE78400002080000020A2
:102500007C000020342C0140780000202DE9F047A9
:10251000814615461E46DDE9087800240020494919
:10252000087049490860012048490860002048496E
:102530000860012140F21A30FFF72AF908FB07F181
:102540004846FFF7B3FC0120FFF7C0F84148006898
:10255000022808D107020202002328463146FDF76F
:1025600041FE05460E463C48076010203A49486047
:10257000402088600020C8604FF4806008610846F1
:10258000FFF734F91020FEF761F9044614B1204634
:10259000BDE8F0873148008800042F4908603720E3
:1025A0004860402088600020C8604FF48060086167
:1025B0000846FFF71BF93720FEF748F904460CB12F
:1025C0002046E5E72448C0F80080172022494860EB
:1025D000402088600020C8604FF480600861084691
:1025E000FFF704F91720FEF731F904460CB1204635
:1025F000CEE71948056019201749486040208860D7
:102600000020C8604FF4806008610846FFF7EEF8CC
:102610001920FEF71BF904460CB12046B8E74FF02D
:10262000FF300F49086008FB07F048609020886081
:102630000020C8600861012048610846FFF74CF897
:102640002046A5E77C0000208000002078000020C4
:102650002C2C014070000020F82E00207400002077
:102660000C2F002000B58FB01D4801681DA000F0A0
:1026700039FD01218805FEF7C5FE2148FEF7B2FAB3
:1026800000BF1F48FEF765FB0028FAD14FF0C0607D
:1026900000901C4801901C480068029000200390A4
:1026A0000F4800680490002005904FF48060069069
:1026B0000020079008904FF48070099040020A9023
:1026C00000200B900C900D900E9069460C48FEF780
:1026D0009BFB012210210A48FEF778FB0FB000BDDA
:1026E00038000020535049315F41445F52585F44E5
:1026F0004D415F436F6E6669673A25640D0A0000BD
:10270000406402400C3001406800002000B58FB0EA
:102710001D4801681DA000F0E5FC01218805FEF7B9
:1027200071FE2148FEF75EFA00BF1F48FEF711FB5D
:102730000028FAD14FF0C06000901C4801901C485E
:1027400000680290402003900F4800680490002029
:1027500005904FF480600690002007900890099043
:102760004FF400300A9000200B900C900D900E90CA
:1027700069460D48FEF748FB012210210A48FEF782
:1027800025FB0FB000BD0000380000205350493138
:102790005F41445F54585F444D415F436F6E6669CB
:1027A000673A25640D0A0000886402400C3001403D
:1027B0006C00002000B58FB001214805FEF722FE15
:1027C0001748FEF70FFA00BF1548FEF7C2FA0028B7
:1027D000FAD1009013480190134802900020039012
:1027E0004FF480600490002005904FF480600690C4
:1027F00000200790089009904FF400300A900020C4
:102800000B900C900D900E9069460548FEF7FCFA6F
:10281000012210210248FEF7D9FA0FB000BD0000D6
:10282000586002400C380040542A002000B58FB098
:1028300001214805FEF7E6FD1648FEF7D3F900BF73
:102840001448FEF786FA0028FAD100901248019049
:10285000124802904020039000010490002005904F
:102860004FF48060069000200790089009904FF484
:1028700000300A9000200B900C900D900E9069464D
:102880000448FEF7C1FA012210210248FEF79EFA21
:102890000FB000BD706002400C380040542600208C
:1028A00000B587B001210846FEF7ACFD01210220EA
:1028B000FEF7A8FD01210803FEF7C4FD01218805EC
:1028C000FEF7A0FD052204212D48FEF79BFC052202
:1028D00007212C48FEF796FC052203212848FEF725
:1028E00091FC0820059002208DF8180003208DF837
:1028F000190000208DF81A0005A92148FEF73AFCBE
:102900001020059002208DF8180000208DF81A0084
:1029100003208DF8190005A91948FEF72BFC80202B
:10292000059002208DF8180000208DF81A00032071
:102930008DF8190005A91348FEF71CFC0021124868
:1029400000F024F80020ADF80000ADF80200ADF86A
:102950000400ADF80600ADF80800ADF80A00ADF8C7
:102960000C00ADF80E000720ADF8100069460648CF
:1029700000F021F80121044800F008F807B000BD7C
:1029800000040240000002400030014021B10288F2
:1029900042F04002028004E002884FF6BF731A4002
:1029A000028070471AB183880B43838002E08388DA
:1029B0008B438380704710B50022028802F4415295
:1029C0000B884C8823438C882343CC8823430C8971
:1029D00023434C8923438C892343CC8923431A43C3
:1029E0000280838B4FF2FF74234083830B8A038220
:1029F00010BD000000B587B001210220FEF702FDE6
:102A000001210802FEF7FEFC01218803FEF70AFD02
:102A100001214805FEF7F6FC05220E213F48FEF78E
:102A2000F1FB05220F213D48FEF7ECFB05220121B9
:102A30003B48FEF7E7FB052200213948FEF7E2FBA1
:102A4000022005908DF818008DF81B0003208DF8EA
:102A5000190000208DF81A0005A93148FEF78AFBFD
:102A60004FF48040059002208DF8180000208DF86A
:102A70001A0001208DF81B0003208DF8190005A90C
:102A80002648FEF777FB4FF40040059002208DF8B2
:102A9000180003208DF8190000208DF81A0005A9F0
:102AA0001E48FEF767FB012005908DF818000320F3
:102AB0008DF8190000208DF81A0005A91848FEF7B6
:102AC00059FB01211648FEF7D2FB00211548FFF7FC
:102AD0005DFF0020ADF800004FF48270ADF80200F9
:102AE0000020ADF80400ADF80600ADF808004FF482
:102AF0000070ADF80A001820ADF80C000020ADF809
:102B00000E000720ADF8100069460648FFF753FF96
:102B100001210448FFF73AFF07B000BD000402405E
:102B20000020024000380040704700001CB50446F9
:102B30000DA103C9CDE900018DF80340FEF7A2FB0A
:102B400042F21070FEF7ECF9684603F055FF42F2CE
:102B50001070FEF7E5F9FEF7CBFB42F21070FEF7BE
:102B6000DFF9FDF73BFE1CBDC01234001744000026
:102B70000CB50020019000904148006840F480307E
:102B80003F49086000BF3E48006800F400300090F4
:102B90000198401C0190009818B90198B0F5A04F19
:102BA000F1D13748006800F4003010B101200090E6
:102BB00001E0002000900098012860D130484030AA
:102BC000006840F080502E49403108602D48006870
:102BD00040F440402B4908602948083000682849E3
:102BE000083108600846006840F400400860084664
:102BF000006840F4A05008602348091F0860081FBF
:102C0000006840F08070091F086000BF1C48006821
:102C100000F000700028F9D01A48006840F48030B5
:102C20001849086000BF1748406800F48030002849
:102C3000F9D01448006840F400301249086000BF21
:102C40001048406800F400300028F9D040F20570C8
:102C50000E4908600A480830006820F0030008495F
:102C6000083108600846006840F00200086000BFB4
:102C700003480830006800F00C000828F8D10CBDAB
:102C80000038024000700040195A4007003C0240E2
:102C900010B500F069F810BD30B515480068154A48
:102CA000B0FBF2F1481EB0F1807F01D301201BE0A0
:102CB000481E4FF0E022506150170F22002807DA1B
:102CC00013071D0E0C4B00F00F04241F1D5503E0CD
:102CD00013071C0E094B1C5400BF00204FF0E022CC
:102CE000906107201061002008B100BFFEE730BDF1
:102CF00000000020A086010018ED00E000E400E0E4
:102D000010B51548006840F4700013490860134876
:102D1000006840F001001149086000200F490831A7
:102D200008600E4800680E4908400C4908600D48CC
:102D3000091D0860081F006820F48020091F086032
:102D4000002006490C310860FFF712FF4FF00060C9
:102D500001498039086010BD88ED00E0003802406C
:102D6000FFFFF6FE103000240448006820B103483D
:102D70000068401E0149086070470000880000207C
:102D800010B540F22551094800F0E7F868B107484E
:102D900000F09CF9C4B2312C02D101200449086032
:102DA000322C02D102200249086010BD00440040CC
:102DB0005C00002000B587B001214420FEF722FB13
:102DC00001212020FEF73EFB00208DF81A00012093
:102DD0008DF81B0002208DF819008DF81800402096
:102DE000059005A91D48FEF7C5F902208DF81800C9
:102DF0000002059005A91A48FEF7BCF9082209212E
:102E00001748FEF7FFF9082206211448FEF7FAF9E1
:102E10004FF4165001900020ADF80800ADF80A00FC
:102E2000ADF80C00ADF810000C20ADF80E0001A9B3
:102E30000C4800F0E1F8012240F22441094800F07A
:102E4000B6F8012240F22551064800F0B0F8012101
:102E5000044800F061F807B000BD0000000802401F
:102E6000001802400014014010B50821224800F06B
:102E700067F8012804D1204800881F48001D0088F9
:102E800040F225511C4800F068F8B8B11A4800F02B
:102E90001DF9C4B21948008800F4004070B92146F9
:102EA00017A000F01FF915480088C0F30D0017495E
:102EB0000C5412480088401C1049088040F22441FC
:102EC0000D4800F04AF8A8B10B4800880A48001DD8
:102ED00000880020094908804FF496720B490C487D
:102EE000FDF7B1F94FF496710848FDF7C5F90120D7
:102EF0000849087010BD0000001401405400002073
:102F00007265733A2025580D0A000000FC2300204A
:102F1000242F00209600002021B1828942F4005223
:102F2000828104E082894DF6FF731A4082817047E6
:102F300010B5FEF7FCF9FDF797FFFFF73BFF10BD5B
:102F400002460020B1F5007F00D100BF13880B407E
:102F50000BB1012000E00020704770B5024600244C
:102F600000230025002040F66A16B14200D100BFC0
:102F7000C1F3421501F01F03012606FA03F3012DE8
:102F800002D19689334006E0022D02D1168A3340E1
:102F900001E0968A33400C12012606FA04F41688E2
:102FA000344013B10CB1012000E0002070BDF0B539
:102FB0000346002400260025002040F66A17B94287
:102FC00000D100BF1846C1F3421401F01F060127CB
:102FD00007FA06F5012C01D10C3004E0022C01D1D6
:102FE000103000E014301AB107682F43076002E088
:102FF0000768AF430760F0BD2DE9FF4705460E4661
:103000000024A14600BFA046B08900B100BF2C8AB1
:1030100024F44054F08804432C82AC8941F20C60C3
:103020008443B08831890843718908430443AC81E3
:10303000AC8A24F44074B0890443AC826846FEF73D
:1030400021FA2048854202D01F48854202D1DDF88E
:103050000C9001E0DDF80890A88900F4004040B130
:1030600009EBC90000EB091031684900B0FBF1F72A
:1030700007E009EBC90000EB091031688900B0FBDB
:10308000F1F76420B7FBF0F004012009642101FB93
:103090001078A88900F4004040B1322000EBC8004D
:1030A000B0FBF1F000F00700044308E0322000EB31
:1030B00008106421B0FBF1F000F00F0004432C81F4
:1030C000BDE8FF87001001400014014001468888D8
:1030D000C0F308007047C1F308028280704700BF48
:1030E000FEE700000FB4054B10B503A9044A02988F
:1030F00000F0F0F810BC5DF814FB0000315A000835
:103100009C0000200FB4084B10B504A902AA039834
:1031100000F0E0F8044602A9002000F072FC20460E
:1031200010BC5DF814FB0000033A000837B51446E4
:103130000846064B6A46214600F0CCF8044669462C
:10314000002000F05EFC20463EBD0000033A00086F
:1031500002E008C8121F08C1002AFAD17047704760
:10316000002001E001C1121F002AFBD170470000BE
:103170002DE9FF5FDDE90220010DDDF838B00243E3
:1031800018D044F61050A1F2FF3141430D140F98AE
:10319000012820D0A5EB0B00401C5FEA000A4FF08D
:1031A0000004474EDFF81C91A046504616D5CAF1E0
:1031B000000728E00F98012443A2012808D000212D
:1031C00000980F9BC0E90021C0E90243BDE8FF9FC2
:1031D0006FEA0B01F4E7CBF10000DEE7074612E0EF
:1031E000F80707D02246334640464946FDF756F8D1
:1031F000804689462246334610461946FDF74EF86A
:1032000004460E467F10002FEAD1DDE90201BAF133
:10321000000F42464B4602DAFDF740F801E0FDF7A9
:1032200018FA04460E460022284BFDF799FA03D8F7
:103230004FF0FF30014607E00022254B2046314683
:10324000FDF760F9FDF774FA102409E0002C0ADBA1
:103250000A220023FCF7C6FF019B30321A55641E78
:1032600050EA0102F2D1641C019AC4F11103144422
:103270000F9A012A03D0012208430DD10AE0084326
:1032800004D000204FF0110B0F9080E7A3EB0B054B
:103290006D1E0DE05B4504DD4FF0000205F10105F8
:1032A00004E003DA4FF00002A5F10105002AECD09A
:1032B00000980F99C0E90231C0E9004586E7000097
:1032C000000024400000F03F300000000000F04308
:1032D0000000E03F2DE9FF4F95B09B46894606462A
:1032E00000250FE2252877D100242746F84A01213E
:1032F000059400E0044316F8013F203B01FA03F077
:103300001042F7D130782A2811D06FF02F0330788F
:10331000A0F13002092A16D8059A44F0020402EB03
:10332000820203EB42021044761C0590EFE759F845
:10333000042B0592002A03DA504244F4005405900D
:1033400044F00204761C30782E2816D116F8010FAE
:1033500044F004042A280DD06FF02F023078A0F139
:103360003003092B09D807EB870302EB4303C71887
:10337000761CF3E759F8047B761C30786C280FD064
:1033800006DC4C2817D068280DD06A2814D104E038
:10339000742810D07A280FD10DE044F400140AE00C
:1033A00044F4801401E044F440147278824202D163
:1033B00004F58014761C761C307866280BD013DC5C
:1033C000582877D009DC002875D04528F6D0462843
:1033D000F4D047281AD19DE118E0632835D064283D
:1033E00079D0652812D195E1702873D008DC672860
:1033F000F1D069286FD06E280DD06F2806D1B5E0C6
:1034000073282CD0752875D0782874D05A4617990F
:1034100090476D1C75E1C4F30250022809D00328BF
:103420000DD0D9F8001004280DD00D6009F1040961
:1034300067E1D9F80010EA17C1E90052F6E7D9F8B8
:1034400000100D80F2E70D70F0E719F8041B8DF8FD
:10345000001000208DF80100EA46012003E059F831
:1034600004AB4FF0FF3061074FF0000102D40DE0D4
:1034700008F101018846B9420FDA8045F8DB1AF8F5
:1034800008100029F4D108E008F1010188468142C2
:10349000FADB1AF808100029F6D105985B46A0EB74
:1034A000080721463846179A00F094FA284400EBA2
:1034B000080507E04DE029E10DE01AF8010B5A4636
:1034C00017999047B8F10108F7D25B462146384674
:1034D000179A13E142E00A220092C4F302524FF01D
:1034E000000A022A08D059F804CB032A4FEAEC71EB
:1034F0000AD00DE029E02AE009F1070121F00702D6
:10350000F2E802C1914609E00FFA8CFC4FEAEC7137
:10351000042A03D14FFA8CFC4FEAEC71002907DA38
:103520000A460021DCF1000C61EB02012D2202E0D1
:10353000220504D52B228DF80420012203E0E207A6
:1035400001D02022F7E7904659E00A2102E010223C
:103550000DE010214FF0000A00910BE010224FF017
:10356000000A44F004040827009203E008224FF008
:10357000000A0092C4F30252022A05D059F804CB83
:103580000021032A08D009E009F1070121F0070210
:10359000F2E802C1914605E01FFA8CFC042A01D131
:1035A0000CF0FF0C4FF00008220728D5702806D039
:1035B000009B83F0100353EA0A0305D00EE040227B
:1035C0008DF80420012208E05CEA010206D03022D6
:1035D0008DF804208DF8050002229046009B83F0B0
:1035E000080353EA0A030AD15CEA010201D1620727
:1035F00005D530228DF804204FF001087F1E582891
:1036000004D034A003900EA802900DE036A0F9E794
:1036100053466046009AFCF7E5FD84460398825CB9
:103620000298401E029002705CEA0100F0D10298FC
:1036300006A9081A00F1200A600702D524F4803494
:1036400000E00127574502DDA7EB0A0000E000205B
:1036500000EB0A01009005984144401A0590E003F0
:1036600006D45B462146179A059800F0B3F9054445
:10367000002706E001A85A46C05D179990476D1CC7
:103680007F1C4745F6DBE0030CD55B462146179AC5
:10369000059800F09FF9054404E030205A46179938
:1036A00090476D1C0099481E00900029F5DC08E049
:1036B000029802995A460078491C0291179990473E
:1036C0006D1CBAF10001AAF1010AF1DC65E100000C
:1036D00009280100303132333435363738396162E8
:1036E00063646566000000003031323334353637AC
:1036F00038394142434445460000000000F058F983
:103700000544761C307800287FF4ECAD19B02846CB
:10371000BDE8F08F620700D4062709F1070222F006
:10372000070CFCE80223E14603F000485FEA080CBE
:1037300002D00FF2702C0DE05FEA045C02D50FF2AC
:10374000682C07E05FEAC47C02D00FF2602C01E035
:10375000AFF2700C4FF0FF3823F00043CDF850C0AB
:1037600065280CD006DC452809D046281DD04728FE
:103770003DD13DE0662818D067287ED138E0002191
:10378000112F01DB112000E0781CCDE9000106A912
:103790000EA8FFF7EDFCDDE90F010E9A0391002161
:1037A000009207F1010A04914DE04FF000400097AC
:1037B000CDE9011006A90EA8FFF7DAFCDDE90F023A
:1037C00003920E9B11990022DDF80CA00093049245
:1037D00011B9791C00EB010AB7EB0A0004D4C0F15F
:1037E000FF3007F1010A0490AAEB0700019044E0C2
:1037F000012F00DA01270021112F01DD112000E047
:103800003846CDE9000106A90EA8FFF7B1FCDDE9B5
:103810000F010E9A0391002104910092BA462107EC
:103820000CD40399514500DA8A46BAF1010F05DD3F
:10383000009AAAF10101515C302908D0B84202DA9D
:1038400010F1040F06DA0121CDE9011015E0AAF10B
:103850000101E9E7002805DC049901440491AAEB81
:10386000000102E0411C514500DD8A460499401ADE
:10387000401C01904FF000400290200704D40198B2
:10388000504501DBCDF8048000208DF84F000298F0
:103890000DF14F07B0F1004F25D02B200E9002986C
:1038A0004FF0020800280CDA404202902D200E90C2
:1038B00007E00A210298FCF793FD3031029007F8E7
:1038C000011DB8F10001A8F10108F2DC02980028FE
:1038D000EFD1791E0E980870307800F0200040F08B
:1038E000450007F8020D12A8C01B00F10708149844
:1038F000007800B1012000EB0A01019801EBE071B2
:1039000005984144401A401E0590E00306D45B46EA
:103910002146179A059800F05DF805441498007840
:1039200018B15A46179990476D1CE00324D55B46A1
:103930002146179A059800F04DF805441CE00498BC
:10394000002807DBDDE90301884203DD0098405CC5
:10395000179901E0179930205A469047049805F1CD
:103960000105401C04900198401E019004D12E20B6
:103970005A46179990476D1CBAF10001AAF1010A45
:10398000DDDC05E017F8010B5A46179990476D1CCE
:10399000B8F10001A8F10108F4DC5B462146179A52
:1039A0000598ABE62D0000002B0000002000000071
:1039B0002DE9F041044600251E461746880404D42C
:1039C00005E039462020B0476D1C641EF9D5284615
:1039D000BDE8F0812DE9F041044600251E469046E1
:1039E000C80301D5302700E02027880404D505E06E
:1039F00041463846B0476D1C641EF9D52846BDE8DF
:103A0000F0810A68531C0B601070704770B5044653
:103A10000D4600202071401EE0622946204602F03B
:103A200085FC08B1032070BD94F82E1294F82F0283
:103A300041EA00204AF65521884201D00220F2E7EF
:103A400094F86900010694F8680041EA004194F88E
:103A5000670041EA002094F86610084320F07F4098
:103A60000D49884201D10020DDE794F88500010668
:103A700094F8840041EA004194F8830041EA002070
:103A800094F88210084320F07F400349884201D116
:103A90000020C8E70120C6E746415400024600E086
:103AA000521C107810B110788842F9D11078704704
:103AB0000246891E5069801E884201D80020704746
:103AC0009378906A01FB0300F9E700002DE9F047C5
:103AD00080460C46A17EE07E41EA002010B1002025
:103AE000BDE8F087207800F03F00401E00EB800129
:103AF00001EBC0064FF00109002524E01A48405DA3
:103B0000205C1949495D2144497840EA0127B9F10F
:103B1000000F11D0FF2E0BD2384601F0E7FC824691
:103B20003146761C38F8110001F0E0FC824501D0E6
:103B30000020D5E7B94605E04FF6FF70874201D077
:103B40000020CDE76D1C0D2DD8D3207800F040006B
:103B500038B1B9F1000F04D038F8160008B10020D0
:103B6000BEE70120BCE700003C6F00082DE9F047EC
:103B700004468946B9F1000F06D1E76817B16069BC
:103B8000B84215D8012713E04946204601F0F0FF5E
:103B90000646022E02D20120BDE8F087701C08B94B
:103BA0003046F9E76069B04201D93046F4E74F4644
:103BB0003D4600BF6D1C6069A84204D80225BD4285
:103BC00001D90020E8E72946204601F0D1FF06464A
:103BD00006B909E0701C08B1012E01D13046DBE7BF
:103BE000BD42E7D10020D7E700BF6FF07042294601
:103BF000204602F0E7FB8046B8F1000F08D1B9F18A
:103C0000000F05D02A464946204602F0DBFB8046DD
:103C1000B8F1000F0BD1E5602069401C78B1206934
:103C2000401E2061607940F00100607107E0B8F14A
:103C3000010F02D14FF0FF3000E001200546284679
:103C4000AAE700002DE9F34F83B08146049800688D
:103C5000019002E00198401C0190019800782F2803
:103C6000F8D0019800785C28F4D0D9F81CA0002581
:103C70002F4600BF38467F1C01990C5C202C03DBCB
:103C80002F2C01D05C2C00D132E0FF2D03D3062075
:103C900005B0BDE8F08FE4B2812C13DBE0B2FE2862
:103CA00010DC38467F1C01990E5C06EB042084B2C0
:103CB000402E01DB7E2E05DD802E01DBFE2E01DD98
:103CC0000620E5E70121204601F0D2FB04460CB9AD
:103CD0000620DDE7802C06DA214671A0FFF7DEFE24
:103CE00008B10620D4E728466D1C2AF81040C1E729
:103CF00000BF0198C11904980160202C01DA04204A
:103D000000E00020804608E0681E3AF81040202CB1
:103D100002D02E2C00D002E06D1E002DF4D100BF89
:103D20000DB90620B4E700202AF815000B22202147
:103D3000D9F8180002F0F0FA002700E07F1C3AF8EA
:103D400017002028FAD03AF817002E28F6D00FB125
:103D500048F0030800E06D1E25B1681E3AF8100017
:103D60002E28F8D10020064602904FF0080B00BF25
:103D700038467F1C3AF8104004B963E0202C03D089
:103D80002E2C04D1AF4202D048F00308F0E702988D
:103D9000584501D2AF4214D1BBF10B0F02D148F00C
:103DA00003084FE0AF4201D048F00308AF4200D90A
:103DB00048E02F46082002904FF00B0BB006060E8D
:103DC000D6E7802C09DB204601F090FB0021009013
:103DD00001F04EFB044648F00208FF2C11DDABF168
:103DE00001000299884204D848F00308CDF808B0D1
:103DF000BEE72212D9F818300298411C02911A54D9
:103E000019E024B1214629A0FFF748FE18B15F242C
:103E100048F003080FE0412C04DB5A2C02DC46F08A
:103E2000020608E0612C06DB7A2C04DC46F0010671
:103E3000A4F1200084B2D9F818300298411C0291F4
:103E40001C5495E700BFD9F818000078E52803D185
:103E50000520D9F818100870BBF1080F01D1B00681
:103E6000060E06F00C000C2803D006F00300032811
:103E700001D148F0020808F0020058B906F003002A
:103E8000012801D148F0100806F00C00042801D1E7
:103E900048F00808D9F8180080F80B800020F7E6F1
:103EA000222A3A3C3E3F7C7F000000002B2C3B3D09
:103EB0005B5D000010B50A4603230EE00146C417FF
:103EC00000EB14642412A0EB0424D454C41700EBB8
:103ED0001464201200B901E05B1EEFE700BF10BDC3
:103EE0002DE9F04104460E460021204600F0CDF9B0
:103EF0000546EDB9002700BF2169206802F016FAD7
:103F0000054605B113E060690078E52802D06069D4
:103F1000007820B9781C0746B04201D107E000279D
:103F20000121204600F07FF80546002DE4D000BFB7
:103F3000042D00D107252846BDE8F0812DE9F04782
:103F400004460021204600F0A0F9074617B1384684
:103F5000BDE8F0874FF0FF09CA464FF6FF70208496
:103F600000BF2169206802F0E1F9074607B157E078
:103F700065692E780EB9042752E0E87A00F03F0810
:103F8000E52E05D008F0080040B1B8F10F0F05D0BC
:103F90004FF0FF094FF6FF7020843AE0B8F10F0FA1
:103FA0001CD1E06978B306F0400030B195F80DA05F
:103FB00026F04006B146E08820844E450AD1687B51
:103FC000504507D12946E069FFF780FD10B1A9F1FE
:103FD000010000E0FF2000F0FF091AE0B9F1000F36
:103FE00005D1284602F012FE504500D118E0A06924
:103FF000C07A00F0010038B90B222846A16902F00E
:104000006BF908B90CE004E04FF0FF094FF6FF70C0
:1040100020840021204600F006F80746002FA0D09B
:1040200000BF384694E72DE9F04104468846E08811
:10403000461CB0B208B1206910B90420BDE8F08177
:1040400021684889C11700EBD1614911B6FBF1F233
:1040500001FB1261002971D12069401C2061E068D8
:1040600028B920680089B04268D80420E6E72168B2
:104070004889C11700EBD1614911B6FBF1F1226803
:104080009278521E1140002958D1E168206801F051
:104090006FFD0546012D01D80220CFE7681C08B945
:1040A0000120CBE720684069A84241D8B8F1000F51
:1040B00001D10420C2E7E1682068FFF757FD0546FB
:1040C0000DB90720BAE7012D01D10220B6E7681C1F
:1040D00008B90120B2E7206802F00CFE08B1012007
:1040E000ACE721684A8901F13000002102F014F99F
:1040F00029462068FFF7DCFC2168C86200270EE033
:10410000012021680871206802F0F4FD08B1012047
:1041100094E72068C06A401C2168C8627F1C206840
:104120008078B842ECD82068C06AC01B2168C86299
:10413000E56029462068FFF7BBFC2061E680216826
:104140004889C11700EBD1614911B6FBF1F201FBBF
:1041500012612268303202EB4111616100206DE78B
:104160002DE9FE4F0446D4F81880D4F81C900C2298
:104170004146684602F0C3F800BF9DF80B0000F00E
:10418000010020B3002088F80B00E06101260CE05C
:1041900033464A466946404601F084FC2046FFF714
:1041A000CDFE054605B102E0761C642EF0D300BFBB
:1041B000642E02D10720BDE8FE8F042D01D02846D1
:1041C000F9E79DF80B0088F80B00C4F81C909DF8E7
:1041D0000B0000F0020060B1002600E0761C39F808
:1041E00016000028FAD106F119000D21B0FBF1F7F5
:1041F00000E0012739462046FFF772FE054645BB21
:10420000781E070025D0E088C11B204600F03DF84D
:104210000546F5B9A06902F0F9FC824600BF2169A4
:10422000206802F083F8054605B111E0FAB2534662
:104230006169E06901F074FB0120216808710021C7
:104240002046FFF7F0FE054615B9781E0700E6D1B7
:1042500000BFC5B92169206802F068F8054695B924
:1042600020220021606902F057F80B22D4E90501F1
:1042700002F045F8A069C07A00F01800616908737F
:10428000012021680871284695E72DE9F041044690
:104290000E46E680A568012D03D020684069A8423B
:1042A00002D80220BDE8F0812DB9206800780328EB
:1042B00001D12068456A45B920680089B04201D81B
:1042C0000220EFE72068476A24E021684889C11787
:1042D00000EBD16149112268927811FB02F812E0DB
:1042E0002946206801F044FC0546681C08B90120F5
:1042F000D8E7022D03D320684069A84201D80220E4
:10430000D0E7A6EB08064645EAD229462068FFF723
:10431000CFFB0746E5600FB90220C3E72168488953
:10432000C11700EBD1614911B6FBF1F139442161AC
:1043300021684889C11700EBD1614911B6FBF1F240
:1043400001FB12612268303202EB411161610020F1
:10435000A8E770B50446012514B1012C09D107E086
:10436000FDF75EFC10B925F0010500E0012502E033
:1043700001E0012500BF00BF284670BD2DE9F047D0
:1043800005460E4614464FF0040915B1012D21D102
:104390001FE0CEB1012E0BD0022E02D0032E14D17D
:1043A00003E04FF4007020800FE0012020600CE05B
:1043B0000C48D0F850C062460023D0E9127138464C
:1043C000FBF710FF206000E000BF00BF4FF00009C6
:1043D00003E002E04FF0040900BF00BF4846BDE81B
:1043E000F0870000882E00202DE9F047ADF5007D14
:1043F00007460C4615461E464FF0040A4FF00008CB
:1044000017B1012F44D142E004F0030000B34FF094
:10441000000913E02A466D1C012369460020FFF7BE
:10442000E3FF8146B9F1000F00D00BE04FF40072BA
:1044300069462046FBF707FF04F500743000A6F13B
:104440000106E7D100BF48460DF5007DBDE8F087C5
:104450004FF4007069020A460023CDE900062046A9
:10446000FDF7F8FE8046B8F1000F07D1FDF7CEFF4B
:10447000804600BFFDF7C5FB0028FBD1B8F1000F57
:1044800002D04FF0040A01E04FF0000A03E002E01E
:104490004FF0040A00BF00BF5046D5E70146012097
:1044A00011B1012904D102E020F0010002E001E095
:1044B000012000BF00BF70472DE9F047ADF5007D3A
:1044C00007460C4616461D464FF0040A4FF00008FA
:1044D00025B904200DF5007DBDE8F08717B1012F47
:1044E00041D13FE004F00300E8B14FF0000913E0D0
:1044F0004FF4007221466846FBF7A5FE3246761C53
:10450000012369460020FFF7D7FF8146B9F1000F6C
:1045100000D005E004F500742800A5F10105E7D1FD
:1045200000BF4846D6E74FF4007071020A460023E8
:10453000CDE900052046FDF7E9FF8046B8F1000F00
:1045400007D1FDF7A3FF804600BFFDF75AFB002807
:10455000FBD1B8F1000F02D04FF0040A01E04FF098
:10456000000A03E002E04FF0040A00BF00BF50461B
:10457000B0E770B50546284600F01CFE044634B985
:10458000284602F0B9FC04460CB9002028602046F9
:1045900070BD70B50446204602F0AEFC05460DB96C
:1045A00000202060284670BD2DE9F147ADF50D7D56
:1045B00001F07EFB064601228DA984A800F0C4FF0D
:1045C0000546002D6FD181A88A9001A88B9084A800
:1045D0008D9901F0E5F9054605B9082500BF042DC0
:1045E000F0D100218498FFF7C1FA0746002507B9EA
:1045F0000725012F00D10225781C00B901251DB91E
:10460000849802F077FB0546002D5BD139468498EB
:10461000FFF74EFA8146849800F13004849842896D
:104620000021204601F078FE0B222021204601F0D7
:1046300073FE2E2020701020E072A675310AE175FD
:10464000310C2176310E61763946204602F0D6FAD9
:104650002022214604F1200001F051FE2E2084F892
:104660002100DDF818A284980078032804D18498EA
:10467000406A504500D1AA46514604F1200002F09C
:10468000BDFA849890F8028018E08498C0F82C90C5
:1046900009F10109012084990871849802F02AFB2C
:1046A00005460DB10DE02DE0849842890021204699
:1046B00001F032FEA8F1010000F0FF08B8F1000F90
:1046C000E3D100BF1DB984A8FFF74AFD054625B117
:1046D0003946849802F05AF914E0899C1020E0725F
:1046E000A675310AE175310C2176310E61763946B5
:1046F000204602F083FA012084990871849802F020
:1047000095FA054628460DF50E7DBDE8F0870000B8
:104710002DE9F74F90B091461198012803DD132041
:1047200013B0BDE8F08F10A801F0C6FA0F900F98F3
:10473000002801DA0B20F3E7FA490F9851F82050CE
:104740000DB90C20ECE7002028700F98C0B20C9037
:1047500000200B900C98FFF7FCFD0190019800F0F1
:10476000010008B10320DBE7019800F0040008B164
:104770000A20D5E705F10A0202210C98FFF7FEFD99
:1047800038B96889B0F5805F03DC6889B0F5007FCF
:1047900001DA0120C4E700BF04AA01210C98FFF749
:1047A000EDFD10B90498802801D20120B8E71198D6
:1047B00008B1002000E03F2082460498A0EB0A00E8
:1047C0000490A9F1010000EA090008B14FF00009C6
:1047D000B9F1000F1AD16889C11700EBD151491204
:1047E0004FF4FA6292FBF1F1049AB2FBF1F10A91F3
:1047F0004FF0000B01E00BF1010BCB4830F81B1020
:104800000A988142F7D8C94830F81B90B9F5007F63
:1048100002D36889B9FBF0F9B9F1000F01D14FF06B
:104820000109B9F1800F01D94FF080090498B0FB5C
:10483000F9F8012640F6F670804500D302264FF6BF
:10484000F670804500D30326032E0CD1082000EB20
:10485000880069890844401EB0FBF1F720200390CE
:104860000020029019E0012E05D108EB4800401C01
:104870004008C01C02E04FEA4800001D0746688956
:104880003844401E6989B0FBF1F701200390688924
:104890004FF48041B1FBF0F0029003985044079030
:1048A00007983844069002990698084405900598A0
:1048B0004844A0EB0A000499884201D90E202FE752
:1048C00009AA03210C98FFF759FD28B9099818B1D6
:1048D0000998B0F5004F01D9012009900999059870
:1048E0000844401E491E8843099009990598081AF2
:1048F0000990032E08D10999039808440390099957
:1049000007980844079001E009980744DDE903018E
:10491000081AC11B0298081AB0FBF9F8022E03D13D
:1049200040F6F670804505D3032E05D14FF6F6709C
:10493000804501D20E20F3E6032E02D10C200D900B
:1049400010E0012E06D10498B0F5803F02D201207C
:104950000D9007E00498B0F5803F01D2042000E0FC
:1049600006200D9000BF119810B1F0200E9043E08A
:104970006A89002105F1300001F0CEFC05F5F774DD
:1049800001206070A0700020E0700D982071FE2062
:104990006071049850443F21B0FBF1F0FF21B0FB5F
:1049A000F1F009903F21099841EA9000A07109981F
:1049B000E0713F20207200216172A172E1720498BF
:1049C00020730498010A61730498010CA173049880
:1049D000010EE173552185F82E12AA2185F82F12B8
:1049E0000123002205F130010C98FFF765FD08B1A5
:1049F000012095E6F8200E9005F130046A89002127
:104A0000204601F089FC0B2249A1204601F077FCE9
:104A1000B5F80AB084F80BB04FEA1B21217384F873
:104A20000D900398A0730398010AE173012020748C
:104A3000032E01D1002001E04FF40070834684F87A
:104A400011B04FEA1B21A1740498B0F5803F05D244
:104A50000498E0740498010A217510E0049884F821
:104A600020000498C0F30721212001550498C0F3C9
:104A70000741222001550498010E232001550E986C
:104A800060753F20207600216176FF20A076E176D8
:104A900084F81CA04FEA1A2161774FEA1A41A177E6
:104AA0004FEA1A61E17701F003F90990032E4BD127
:104AB000099884F843000998C0F307214420015560
:104AC0000998C0F30741452001550998010E462079
:104AD000015584F82470C7F3072125200155C7F339
:104AE000074126200155390E27200155022084F860
:104AF0002C0000212D2001552E2001552F2001557D
:104B0000012084F8300031200155062084F832005D
:104B100033200155802084F84000292084F8420089
:104B200013220BE08C0000204A6F0008606F000821
:104B3000EBFE904D53444F53352E30008AA104F1C3
:104B4000470001F0DCFB1FE0099884F82700099872
:104B5000C0F30721282001550998C0F307412920F7
:104B600001550998010E2A200155A775390AE175EA
:104B7000802084F82400292084F8260013227FA1B5
:104B800004F12B0001F0BBFB552084F8FE01AA21A3
:104B900040F2FF1001550123524621460C98FFF7C1
:104BA0008BFC08B10120BBE5032E06D101230AF1DD
:104BB000060221460C98FFF77FFC079808904FF0FB
:104BC000000B5FE06A890021204601F0A5FB0E98EA
:104BD0000990032E14D0012E01D16D4801E06FF031
:104BE000FF00099908430990099820700998000A64
:104BF00060700998000CA0700998000EE07019E030
:104C0000099860F0FF000990099820700998000A3F
:104C100060700998000CA0700998000EE070FF20E9
:104C20002071FF216171A171E17120726172A17225
:104C30000F21E1720898411C024601230891214688
:104C40000C98FFF739FC08B1012069E56A89002159
:104C5000204601F061FB012009900EE00898411CFC
:104C600002460123089121460C98FFF725FC08B164
:104C7000012055E50998401C09900998B842EDD3E8
:104C80000BF1010BBBF1000F9CD0032E01D1484664
:104C900000E00298834600BF0898411C02460123A9
:104CA000089121460C98FFF707FC08B1012037E571
:104CB000ABF101005FEA000BEED1032E49D1522087
:104CC000207060706120A0704120E070722084F834
:104CD000E401722140F2E51001554121401C0155CB
:104CE0006121401C0155A8F1010084F8E801C0F3DE
:104CF000072140F2E9100155A8F10100C0F3074176
:104D00004FF4F5700155A8F10100010E40F2EB10CF
:104D10000155022084F8EC01002140F2ED1001550C
:104D2000401C0155401C0155552084F8FE01AA2164
:104D300040F2FF10015501230AF1010221460C98AF
:104D4000FFF7BAFB01230AF1070221460C98FFF78F
:104D5000B3FB002211460C98FFF710FB08B10120AD
:104D6000DEE40020DCE400004E4F204E414D4520A3
:104D70002020204641543332202020004E4F204E28
:104D8000414D452020202046415420202020200055
:104D900000FFFF00F7B582B016460398019001A806
:104DA00000F08AFF0546002D02DA0B2005B0F0BDA9
:104DB0000E4850F825400CB100202070029810B128
:104DC0000020029908700949029841F825000298CC
:104DD00008B1012E01D00020E8E7002203A902A8B3
:104DE00000F0B2FB07463846E0E700008C000020E8
:104DF0002DE9F743ADF50C7D0546164625B909208A
:104E00000DF50F7DBDE8F0830020286006F01F0639
:104E100026F001028DA983A800F096FB0746002F1B
:104E200074D180A88990CDF828D283A88D9900F0FC
:104E3000B7FD0746889C0FB904B9062706F01C0089
:104E400000285CD04FB1042F03D183A8FFF788F965
:104E5000074646F00806889C09E0E07A00F0110059
:104E600008B1072703E006F0040000B10827002F6F
:104E700055D106F00800002851D000F019FF8046F7
:104E800084F80E804FEA1821E1734FEA184121742B
:104E90004FEA1861617484F816804FEA1821E175B1
:104EA0004FEA184121764FEA186161760020E072DE
:104EB000207700216177A177E1772146839800F080
:104EC00020FF81460021204601F098FE01208399B1
:104ED0000871B9F1000F22D08398D0F82C80494690
:104EE000839801F053FD0746CFB9A9F101008399DA
:104EF000C8604146839801F019FA07460FE077B978
:104F0000E07A00F0100010B1042708E02DE006F070
:104F1000020020B1E07A00F0010000B1072747B994
:104F200006F0080008B146F020068398C06AE861E0
:104F30002C62D7B9AE710020E8712146839800F049
:104F4000E0FE2861E07F0106A07F41EA0041607F2A
:104F500041EA0020217F0843E8600020A860A861A2
:104F6000839828602868C088A880384648E733B509
:104F7000ADF5057D04461CB909200DF5077D30BD52
:104F8000002286A984A800F0DFFA05462DBB84988C
:104F9000206081A8A06101A8E0612046869900F008
:104FA000FFFC0546B5B9606958B16069C07A00F088
:104FB000100028B16169849800F0A3FEA06000E0B1
:104FC00005253DB98498C088A08000212046FFF7C0
:104FD0005CF90546042D00D105250DB100202060A7
:104FE0002846CAE72DE9FF4F85B0044615469A4684
:104FF000DDF818B00020CAF80000204601F07CFF60
:105000000490049818B1049809B0BDE8F08FE079D5
:1050100008B1E079F8E7A07900F0010008B90720AD
:10502000F2E7D4E90210401A02900298854200D9B2
:10503000029DBAE021684989A068B0FBF1F201FB4A
:105040001200002877D121684989A068B0FBF1F0EF
:1050500021688978491E084000F0FF09B9F1000F66
:1050600017D1A06810B92069039004E06169206835
:1050700000F07EFD03900398022802D20220E07126
:10508000C2E70398401C10B90120E071BCE7039807
:10509000606161692068FEF70BFD064616B90220C3
:1050A000E071B1E74E4420684089B5FBF0F8B8F1F3
:1050B000000F2DD009EB080021688978884203D9B8
:1050C00020688078A0EB090821684878434632467A
:1050D0005946FFF789F910B10120E07194E7A079F2
:1050E00000F0400078B1A069801B40450BD2A16957
:1050F000891B23685B8901FB03B021684A8904F19D
:10510000240101F0FCF82068408900FB08F742E028
:10511000A069B04220D0A07900F0400080B12168A1
:105120004878012304F12401A269FFF7C5F918B1F9
:105130000120E07168E710E0A07920F04000A07144
:10514000216848780123324604F12401FFF74CF925
:1051500010B10120E07157E7A66121684989A06874
:10516000B0FBF1F201FB1200216849890F1AAF422E
:1051700000D92F4621684989A068B0FBF1F201FBF4
:10518000120104F1240008443A46014601905846B1
:1051900001F0B5F800BFBB44A0683844A060DAF85D
:1051A00000003844CAF80000ED1B002D7FF442AF28
:1051B000002029E72DE9F0410446204601F09CFE3D
:1051C0000746002F4CD1A07900F02000002847D0DE
:1051D000A07900F0400078B121684878012304F1FB
:1051E0002401A269FFF768F910B10120BDE8F08140
:1051F000A07920F04000A071E169206801F096F8E4
:105200000746002F2CD1256AE87A40F02000E8728A
:10521000207B2877A089010A6977E068010CA977CB
:10522000E068010EE9772846216901F0E7FC00F00B
:105230003FFD0646AE75310AE975310C2976310E0F
:1052400069760020A8740021E974A07920F020007C
:10525000A071012021680871206801F0E7FC074671
:105260003846C3E72DE9FF4F83B0044615469B46F9
:10527000049801900020CBF80000204601F03CFE8D
:105280000290029818B1029807B0BDE8F08FE0795B
:1052900008B1E079F8E7A07900F0020008B907202A
:1052A000F2E7A0682844A168884200D20025CFE038
:1052B00021684989A068B0FBF1F201FB12000028C7
:1052C0007ED121684989A068B0FBF1F02168897816
:1052D000491E084000F0FF0ABAF1000F1ED1A06875
:1052E00038B9276957B900212068FEF73FFC074607
:1052F00004E061692068FEF739FC074607B9AAE0B7
:10530000012F02D10220E071BEE7781C10B9012004
:10531000E071B9E76761206900B92761A07900F001
:10532000400078B121684878012304F12401A26982
:10533000FFF7C2F810B10120E071A5E7A07920F0D5
:105340004000A07161692068FEF7B2FB064616B9FD
:105350000220E07198E7564420684089B5FBF0F9D7
:10536000B9F1000F31D00AEB090021688978884231
:1053700003D920688078A0EB0A09216848784B4659
:1053800032460199FFF798F810B10120E0717BE7F0
:10539000A069801B484511D2A069831B2068B0F822
:1053A0000AC0019803FB0C012068428904F1240023
:1053B00000F0A5FFA07920F04000A071206800E077
:1053C00017E0408900FB09F835E0A069B0420FD032
:1053D000D4E9020188420BD2216848780123324681
:1053E00004F12401FFF700F810B10120E0714BE750
:1053F000A66121684989A068B0FBF1F201FB1200A7
:1054000021684989A1EB0008A84500D9A846216870
:105410004989A068B0FBF1F201FB120104F12400FC
:10542000084442460090019900F069FFA07940F0DD
:105430004000A07100BF019840440190A068404422
:10544000A060DBF800004044CBF80000A5EB0805A5
:10545000002D7FF42DAF00BFD4E90201884201D9AD
:10546000A068E060A07940F02000A07100200BE768
:105470002DE9F04102460F46802A01DA10462FE05E
:105480001FB1184B45F2205602E0174B45F220564B
:105490000025102416E0A6EB050C0CEBDC7805EBE0
:1054A00068014FEA410C33F81CC0944500D10BE071
:1054B0004FEA410C33F81CC0944501DA0D4600E078
:1054C0000E46641E002CE6D100BF34B14FF0010C33
:1054D0000CEB410C33F81CC001E04FF0000C6046AF
:1054E000BDE8F081FAC30108766F000830B5802866
:1054F00007DA612823DB7A2821DCA0F12005A8B295
:105500001DE00C2200234FF4F77400BFE51A03EBF3
:1055100055010B4D35F81150854200D10AE0084D78
:1055200035F81150854201DA0B4600E00C46551E55
:105530002A00EBD100BF12B1024D35F8110030BD89
:105540007E1803085A1C03082DE9F74F8AB0002182
:105550000A9801600B9800F0AFFB099009980028A9
:1055600003DA0B200DB0BDE8F08FE949099851F836
:1055700020400CB90C20F5E70A980460207878B137
:105580006078FEF78BFF814609F0010040B90C9866
:1055900020B109F0040008B10A20E3E70020E1E7A8
:1055A00000202070099860706078FEF7D2FE814676
:1055B00009F0010008B10320D4E70C9820B109F0EC
:1055C000040008B10A20CDE7607804F10A02022144
:1055D000FEF7D4FE38B96089B0F5007F03DB60893F
:1055E000B0F5805F01DD0120BCE700273946204689
:1055F000FEF70CFA0546012D01D09DBB32E00026D6
:105600001AE004F5F77000EB061898F8040070B182
:1056100098F80B00010698F80A0041EA004198F852
:10562000090041EA002098F80810084300E0002033
:1056300002A941F82600761C042EE2D3002606B10A
:10564000761E00BF02A850F8267027B139462046C2
:10565000FEF7DCF900E0022005461DB1701C06468D
:105660000428EFD3032D01D101207BE70DB10D20DC
:1056700078E73B20015D94F83C0041EA0020618915
:10568000884201D00D206DE74620015D94F8470067
:1056900041EA002ABAF1000F0ED194F85700010632
:1056A00094F8560041EA004194F8550041EA002080
:1056B00094F8541040EA010AC4F818A04020005D94
:1056C000E070E078012804D0E078022801D00D20B5
:1056D00048E7E0780AFB00FA3D20005DA070A07862
:1056E00018B1A078411E084008B10D203AE74120CA
:1056F000015D94F8420041EA002020816089C117D1
:1057000000EBD1614911228992FBF1F301FB1321D6
:1057100009B10D2026E74320015D94F8440041EAD9
:1057200000200890089870B994F85300010694F886
:10573000520041EA004194F8510041EA002094F8F7
:105740005010084308903E20015D94F83F0041EA64
:1057500000200190019808B90D2003E76089C11766
:1057600000EBD1614911228992FBF1F20199514478
:1057700011440791DDE90710884201D20D20F1E6BE
:10578000DDE90710401AA178B0FBF1FBBBF1000F77
:1057900001D10D20E6E6012540F6F670834500D3E1
:1057A00002254FF6F670834500D303250BF1020066
:1057B0006061E76101983844206207983844A0622C
:1057C000032D16D1208908B10D20CBE694F85F0097
:1057D000010694F85E0041EA004194F85D0041EA58
:1057E000002094F85C1008436062606980000690B5
:1057F00014E0208908B90D20B4E6206A50446062A4
:10580000022D02D16069400007E0207D00F0010018
:10581000616901EB410100EB510006906089401E77
:10582000069908446189B0FBF1F0A169884201D969
:105830000D2097E64FF0FF302061E060802060711E
:10584000032D5AD194F8601094F8610041EA0020C9
:10585000012852D1791C204600F068FDE8BB0020E9
:10586000607194F82E1294F82F0241EA00204AF653
:105870005521884241D13320005D01063220005D70
:1058800041EA00413120005D41EA002094F83010E7
:1058900008432049884230D194F81702010694F851
:1058A000160241EA004194F8150241EA002094F8FA
:1058B00014120843184988421FD194F81B020106AC
:1058C00094F81A0241EA004194F8190241EA0020D2
:1058D00094F818120843206100E00EE094F81F02CB
:1058E000010694F81E0241EA004194F81D0241EAC3
:1058F000002094F81C120843E060257007480088D7
:10590000401C80B205490880E08000202AE60000A3
:105910008C0000205252614172724161940000205B
:10592000F0B504461D464D730F27CF7200270F7345
:105930008F76BC4681F81BC0571E07EB870C0CEB1B
:10594000C706002738463B4600BF4FF6FF77B842F0
:1059500003D03746761C34F81700DFF840C01CF837
:1059600003C001F80C000712DFF830C01CF803C0B8
:105970008C448CF8017008B94FF6FF705F1C3B46F1
:105980000D2FE2D34FF6FF77B84202D034F81670ED
:105990000FB942F040020A70F0BD00003C6F0008F1
:1059A0002DE9F3410446019800782F2803D001988F
:1059B00000785C2802D10198401C01900020A06072
:1059C00001980078202807D200212046FEF75DFCD0
:1059D00005460020606128E000BF01A92046FEF7CF
:1059E00031F9054605B11FE02046FEF7A7FA054646
:1059F000A069C67A3DB1042D04D100BF06F00400B1
:105A000000B9052510E006F0040000B10CE067695C
:105A1000F87A00F0100008B9052505E0394620683D
:105A200000F06FF9A060D8E700BF2846BDE8FC8110
:105A300070B504460D46E1B20548FDF74CFB00BFCA
:105A400080210348FDF77CFA0028F9D0204670BD7C
:105A50000044004010B5002821D0114B0022001F47
:105A6000196803E0814203D80A4649680029F9D140
:105A700052B11368841A9C4204D100681844106023
:105A8000104602E0506000E0186039B102680B1A5D
:105A9000934203D10B681A4402604968416010BD0B
:105AA000A00000202DE9FF4F83B0074691461E4617
:105AB0000B223846049900F022FC052E19D9B04675
:105AC00012E039F802BB00250CE0584668F35F008D
:105AD00080464FEA6B0B08F4803010B1234888EA07
