:020000040800F2
:10000000F8AD0020C1010008270C0008230C0008EF
:10001000250C0008F1020008692300080000000018
:100020000000000000000000000000009120000817
:100030008508000800000000A50C000869210008E0
:10004000DB010008DB010008DB010008DB01000820
:10005000DB010008DB010008DB010008DB01000810
:10006000DB010008DB010008DB010008DB01000800
:10007000DB010008DB010008550500088D050008BC
:10008000DB010008DB010008DB010008DB010008E0
:10009000DB010008DB010008DB010008DB010008D0
:1000A000DB010008DB010008DB010008DB010008C0
:1000B000DB010008DB010008DB010008DB010008B0
:1000C000DB010008DB010008DB010008DB010008A0
:1000D000DB010008DB010008C9210008DB01000882
:1000E000DB010008DB010008DB010008DB01000880
:1000F000DB010008DB010008DB010008DB01000870
:10010000DB0100086D0F0008DB010008DB010008BF
:10011000DB010008DB010008DB010008DB0100084F
:10012000DB010008DB010008DB010008B505000861
:10013000DB010008DB010008DB010008DB0100082F
:10014000DB010008DB010008DB010008DB0100081F
:10015000B9050008DB010008DB010008DB0100082D
:10016000DB010008DB010008DB010008DB010008FF
:10017000DB010008DB010008DB010008DB010008EF
:10018000DB010008DB010008DB010008DB010008DF
:10019000DB010008DB010008DB010008DB010008CF
:1001A000DB010008DB010008DB010008DFF80CD0F0
:1001B00000F08CF80048004761450008F8AD0020C9
:1001C0000648804706480047FEE7FEE7FEE7FEE7F1
:1001D000FEE7FEE7FEE7FEE7FEE7FEE76D2100082B
:1001E000AD0100082DE9F05F0546002092469B46D0
:1001F00088460646814640241BE02846414647463D
:10020000224600F053F853465A46C01A914110D383
:1002100011461846224600F03AF82D1A67EB0108FD
:100220004F4622460120002100F031F817EB00096B
:100230004E41201EA4F10104DFDC484631462A4627
:100240004346BDE8F09F40EA01039B0703D009E065
:1002500008C9121F08C0042AFAD203E011F8013BB2
:1002600000F8013B521EF9D27047D2B201E000F80B
:10027000012B491EFBD270470022F6E710B513464A
:100280000A4604461946FFF7F0FF204610BD202A13
:1002900004DB203A00FA02F1002070479140C2F1DD
:1002A000200320FA03F3194390407047202A04DB0F
:1002B000203A21FA02F00021704721FA02F3D040DF
:1002C000C2F120029140084319467047064C074D81
:1002D00006E0E06840F0010394E807009847103416
:1002E000AC42F6D3FFF766FFE00103080002030803
:1002F000FEE770B500254FF4803400E0641E24B1A1
:10030000802000F00DFE0028F8D02CB140F2FF5004
:1003100000F0C4FD284670BD032070BD70B50546D1
:1003200000243B49086800E0086810F0450FFBD046
:10033000410705D50324042000F0B0FD204670BD20
:10034000C00705D00124012000F0A8FD204670BDA3
:1003500000F0E0FDA84201D0102070BD40F2FF5037
:1003600000F09CFD002000F0F7FD2A49084201D171
:10037000204670BD002801DA1C2070BD410001D567
:10038000092070BD810001D50A2070BDC10001D5D2
:100390000B2070BD010101D50C2070BD410101D5BC
:1003A0000D2070BDC10101D50E2070BD010201D527
:1003B0000F2070BD410201D5102070BD810201D512
:1003C000112070BDC10201D5122070BD010301D5FD
:1003D000132070BD410301D5142070BD810301D5E8
:1003E000152070BDC10301D5162070BD010401D5D3
:1003F000172070BD410401D5182070BD810401D5BE
:10040000192070BD000701D51A2070BD204670BDAF
:10041000342C014008E0FFFD10B500240E4A11689D
:1004200000E0116811F0450FFBD0480705D5032403
:10043000042000F033FD204610BDC80705D001247C
:10044000012000F02BFD204610BD40F2FF5000F0CF
:1004500025FD204610BD0000342C014010B50024BD
:100460000A4A116800E0116811F0450FFBD04807F7
:1004700005D50324042000F011FD204610BD40F2F4
:10048000FF5000F00BFD204610BD0000342C014051
:1004900070B506460C4600251C4A106800E010683E
:1004A00010F0450FFBD0410705D50324042000F0D0
:1004B000F5FC204670BDC00705D00124012000F0E6
:1004C000EDFC204670BD00F025FDB04201D01020AB
:1004D00070BD40F2FF5000F0E1FC002000F03CFD58
:1004E00010F4604F03D0810405D5132070BD000CBB
:1004F0002080284670BD410401D5102070BD000445
:1005000001D50F2070BD284670BD0000342C01407D
:1005100010B500204FF480310D4B1A6801E0491EE0
:100520001A6812F0450F01D10029F8D109B151071D
:1005300005D50324042000F0B1FC204610BD51066F
:10054000FCD50024402000F0A9FC204610BD00008E
:10055000342C014070B509A001F008FF094C0A4D88
:100560002146284600F01EF9002805D021462846DD
:10057000BDE8704000F04AB870BD00007263760DAF
:100580000A000000008000185860024070B5074C57
:10059000074D2146284600F005F9002805D02146E0
:1005A0002846BDE8704000F031B870BD20800020C2
:1005B0007060024001F042B970B5074C074D21460A
:1005C000284600F0EFF8002805D021462846BDE86F
:1005D000704000F01BB870BD0088002088640240A5
:1005E000074A904201D2074801E005481038064A00
:1005F0008B0001EA020101D5C1607047816070473C
:1006000010640240006002407D0F7D0F074A904257
:1006100001D2074801E005481038064A8B0001EA7C
:10062000020101D5C16070478160704710640240CB
:10063000006002407D0F7D0F002904D0016841F069
:10064000010101607047016821F0010101607047FC
:100650002DE9F043016821F00101016000210160F2
:1006600041608160C1600161212141613E493E4A92
:1006700010394FF03D08904203D1C1F80880BDE821
:10068000F083394A4FF474651832904201D18D607D
:10069000F5E7354A4FF474163032904201D18E603E
:1006A000EDE7314A4FF074674832904201D18F60D4
:1006B000E5E72D4B2D4A6033984201D1CA60DEE751
:1006C000294C2B4B7834A04201D1CB60D7E7DFF81F
:1006D00098C0284C0CF1900C604501D1CC60CEE75D
:1006E000DFF884904FF03D5C09F1A809484502D13C
:1006F000C1F80CC0C3E72049DFF87C9008394845B1
:1007000002D1C1F80080BAE7DFF86C8008F1180860
:10071000404501D10D60B2E7174D3035A84201D1F7
:100720000E60ACE7144D4835A84201D10F60A6E732
:10073000114D11496035091FA84201D10A609EE799
:100740000D4A7832904201D10B6098E70A4A903204
:10075000904201D10C6092E7074AA83290428ED1B4
:10076000C1F800C08BE70000106002403D0000208F
:10077000400F002000003D2010640240002904D0FA
:10078000016841F0200101607047016821F02001FB
:1007900001607047014600200968C90700D00120A8
:1007A0007047000030B500240F4A904201D20F4A32
:1007B00001E00D4A103A0E4B194205D01E2303EA00
:1007C000D12503682B4002E0406900F080038800D7
:1007D00001D5506800E01068064A1040084201D078
:1007E00003B10124204630BD106402400060024085
:1007F0003C0F3C0F7D0F7D0F0B0609D522B14369DD
:1008000043F08003436103E0436923F080034361C5
:10081000802905D001F01E011AB102680A43026066
:10082000704702688A4302607047000030B5036871
:10083000124A1340CC680A682243D1E905452C438B
:100840002243CC6922430C6A22434C6A22438C6ABD
:1008500022434C6B22438C6B22431A430260426951
:1008600022F00703D1E90B2422431A4342610A69AB
:1008700042604A6882608968C16030BD3F801CF078
:100880004160704770470000F0B587B00121082033
:1008900000F00AFA0121480400F014FA00248DF84F
:1008A0001A4001268DF81B6002258DF819508DF82D
:1008B000185020200590214F05A9384600F058F91E
:1008C0008DF818504021059105A9384600F050F9DF
:1008D00007220621384600F089F90722052138460B
:1008E00000F084F94FF4E1300190ADF80840ADF824
:1008F0000A40ADF80C40ADF810400C20ADF80E00E9
:100900000F4D01A9284601F0C9FC26218DF80010E1
:100910008DF801408DF802408DF80360684600F0C4
:1009200083F9012240F22551284601F09CFC012167
:10093000284601F065FC07B0F0BD0000000C024045
:100940000044004001B502E00098401E009000986D
:100950000028F9D108BD00002DE9FC470E4600240F
:10096000002700970197574D4FF0080AC5F800A0DF
:10097000102068604FF04009C5F80890EF604FF410
:100980008068C5F81080284600F01CFB1020FFF797
:10099000C5FC002832D14C4800890004286037206B
:1009A0006860C5F80890EF60C5F81080284600F030
:1009B00009FB3720FFF7B2FC00281FD1411E05F1CB
:1009C00014000160C0F804A0302181600221C160E0
:1009D00007610121416100F079FA2F6033206860DE
:1009E000C5F80890EF60C5F81080284600F0EAFAD4
:1009F0003320FFF793FC0546280001D0BDE8FC87B3
:100A00004FF4001A6F46DFF8C48040F22A6908E00C
:100A1000504600F085FA20B100F0CEFA47F82400E5
:100A2000641CD8F8000010EA090FF1D0082000F08B
:100A300077FA20B1082000F031FA0420DEE7022026
:100A400000F06EFA20B1022000F028FA0220D5E76B
:100A5000202000F065FA20B1202000F01FFA0620C7
:100A6000CCE74FF40074204600F05AFA20B120463B
:100A700000F014FA0720C1E740F2FF5000F00EFA30
:100A800000980099000601F47F4140EA0120009996
:100A900001F47F0140EA1120009940EA1160706082
:100AA00001980199000601F47F4140EA0120019973
:100AB00001F47F0140EA1120019940EA11603060A1
:100AC00028469BE7C8A9002024000020342C0140C0
:100AD0002DE9FC410121084600F0E6F801218020C3
:100AE00000F0E2F8012400948DF804408DF80740EE
:100AF00000258DF806508DF805501B4F6946384685
:100B000000F036F8022600968DF804408DF8074074
:100B10008DF806508DF805506946384600F028F8E3
:100B2000E00300908DF804508DF80740DFF83C801A
:100B30006946404600F01CF8A50300958DF8044076
:100B40008DF807606946404600F012F801213846EA
:100B500000F063F80221384600F05FF8294640466D
:100B600000F05DF8BDE8FC8100000240001C02407E
:100B70002DE9F041002201274FF0030C07FA02F59E
:100B80000B682B40AB422CD1066853000CFA03F4DF
:100B9000A64306600E79D0F800809E4046EA08061B
:100BA00006600E79012E01D0022E12D18668A6436E
:100BB00086604E79D0F808809E4046EA0806866036
:100BC0004668AE43466045688E799640B6B2354376
:100BD0004560C568A543C560CC799C40C3681C438B
:100BE000C460521C102AC9D3BDE8F08110B54B0770
:100BF000DB0E9A40C90800EB8100016A0F249C407B
:100C0000A1430162016A1143016210BD0246002046
:100C100012690A4200D00120704741837047018366
:100C20007047FEE7FEE7704730B50F23C278012515
:100C30000178002A1FD0154A126802F4E062C2F55A
:100C4000E062C2F30722C2F10404D3404278A2401A
:100C500084781C401443220101F1E02181F8002432
:100C6000007800F01F018D404009800000F1E02075
:100C7000C0F8005130BD01F01F00854048098000D8
:100C800000F1E020C0F8805130BD00000CED00E024
:100C90000249084302490860704700000000FA0555
:100CA0000CED00E070470000054A002903D01168F0
:100CB0000143116070471168814311607047000063
:100CC00030380240054A002903D011680143116001
:100CD000704711688143116070470000403802403E
:100CE000054A002903D0116801431160704711685B
:100CF000814311607047000044380240054A0029D2
:100D000003D011680143116070471168814311607D
:100D1000704700002438024070B5244B196801F078
:100D20000C01234C00291ED0224E04291DD0082975
:100D30001DD00460196801F0F00109091E4A545CD5
:100D40000168E14041601C6804F4E054A40A145DA9
:100D500021FA04F484601B6803F460435B0BD25CEB
:100D6000D140C16070BD0460E4E70660E2E70F4A6D
:100D7000121F1168C1F38055116801F03F0135B1B0
:100D8000B6FBF1F11468C4F38814614305E0B4FBC9
:100D9000F1F11468C4F3881461431268C2F301428C
:100DA000521C5200B1FBF2F10160C3E70838024067
:100DB0000024F40040787D01000000202DE9FC476C
:100DC0000646002400940194002000F0C5F880013C
:100DD00002D50E20BDE8FC872E4D6946288980B2D9
:100DE000FFF7BAFD0028F5D137202B4F4FF0060A48
:100DF0004FF040094FF48068012E22D00199C903B9
:100E000045D52989090439607860C7F80890FC60E5
:100E1000C7F81080384600F0D5F83720FFF77EFA83
:100E20000028D7D13C60C7F804A0C7F80890FC6040
:100E3000C7F81080384600F0C5F80620FFF76EFAB4
:100E4000C8E70199490320D52989090439607860E8
:100E5000C7F80890FC60C7F810800F4800F0B2F89F
:100E60003720FFF75BFA0028B4D102203860C7F8BA
:100E700004A0C7F80890FC60C7F81080064800F08E
:100E8000A1F80620FFF74AFAA4E72520A2E72520CB
:100E9000A0E7000024000020C8A900200149086044
:100EA00070470000382C014001490860704700007D
:100EB000382C01400149086070470000A08025429D
:100EC00001490860704700008C85254210B50A4A28
:100ED00001681160121D41681160141D216821F024
:100EE000F701D0E902231A43D0E9043003431A433F
:100EF0000A43226010BD0000242C014010B50121DE
:100F0000CC022046FFF7FAFE2046BDE81040002143
:100F1000FFF7F4BE01480068C0B27047102C0140D2
:100F200001460020024A12680A4200D001207047A0
:100F3000342C014001460020024A12680A4200D0C7
:100F400001207047342C01400248006800F0030083
:100F500070470000002C014008B503490844009088
:100F60000098006808BD0000142C014000F07ABC15
:100F7000054A002903D011680143116070471168C8
:100F800081431160704700003C2C014030B5094B93
:100F9000196847F6FF629143027D8468C568224361
:100FA00044682C43224304680069224302430A43F5
:100FB0001A6030BD042C01400148006870470000F1
:100FC000802C014010B5084A01681160141D216889
:100FD0006FF30A01D0E901231A43D0E90330034338
:100FE0001A430A43226010BD082C014001490860E1
:100FF00070470000002C014008B5012000909DF8CA
:10100000000008BD2DE9F041014600241C4840685D
:10101000032805D038B1012805D0022803D02DE0DF
:101020002720BDE8F081B1F5805F0CD04FF4006758
:101030000026144DB94212D10120FFF7BFFE04462D
:10104000200002D01AE02720EBE72E752E606E609C
:10105000AE60EF602E610B48FFF798FF0EE00020B6
:10106000FFF7ACFE0446200008D12E752E606E609E
:10107000AE60EE602E610348FFF788FF2046D0E7A0
:1010800024000020B0A900202DE9F04397494F68C3
:1010900080F856700989A0F85410DFF854C2DCF8C3
:1010A00000100A0E93090370C2F38303437002F029
:1010B000030282700A0CC2700A0A02714171DCF8E4
:1010C0000420110E0901C180C2F30741C38843EA1D
:1010D0001113C38001F00F010172C2F30721CB0984
:1010E0004372C1F380138372C1F34013C372C1F31F
:1010F000001303730023437364460126D4F8088069
:10110000002F4FEA1864C8F30745C8F3072904D035
:10111000012F02D0022F3AD051E08907090D016159
:10112000D1B2026942EA81010161016941EA941187
:101130000161C4F3C201017504F007014175690939
:101140008175C5F38201C175A907490F017649462A
:10115000027E42EAD11202760269521C047EA41C6D
:1011600006FA04F9A2FB094703FB09774FEAE97580
:1011700002FB0575027A06FA02F70765A4FB072948
:1011800005FB079504FB0354C0E9122417E0910600
:10119000890A0161016941EA042101610169294368
:1011A000016149460269521C43F10004E40444EA27
:1011B0005234D204C0E912244FF4007202651C308C
:1011C000C1F3801200F8032C8906490E00F8021CB6
:1011D00008F0FF0110F8022C42EAD11200F8022CAC
:1011E00001F07F0100F8011CDCF80C20110ECC0985
:1011F0000470C1F341144470C1F382048470890700
:10120000090FC170C2F30741C47844EA9114C47055
:10121000C1F340140471437101F001018171C2F303
:101220000721CC09C471C1F380140472C1F34014C6
:101230004472C1F300148472C1F38104C47201F0DA
:1012400003010173D1B2490841738673284A1032F1
:1012500011680C0E04740C0C24024482C1F30724A0
:10126000458A254345820906416151680C0E45694E
:1012700045EA04444461C1F30744456945EA04244E
:101280004461C1F3072445692543456101769168AE
:101290000C0E44760C0C2406C461C1F30724C56906
:1012A00045EA0444C461C9B2C46944EA0121C16188
:1012B000D1680A0EC4691443C461C1F3074290F8AF
:1012C000204044EA121480F820401207120D428494
:1012D000C1F30722448C14434484C9B2490880F8FE
:1012E000241080F825601846BDE8F0832400002013
:1012F00028A9002008B500200090FFF77DFE0128F6
:1013000001D0FF2008BD684600F078FB08B1FF203F
:1013100008BD0098C0F3432008BD10B5FFF7EAFFF1
:10132000042803D0FF2803D0012010BD002010BDE9
:10133000022010BD7CB5002401944FF4C060FFF77B
:10134000A7FC31208DF8000001258DF801508DF8A3
:1013500002408DF803506846FFF766FC3B208DF88D
:1013600000008DF801506846FFF75EFC00F052F96E
:10137000FFF7C4FD00F0A0F901909DF8040010B142
:101380009DF804007CBD00F02FF801909DF804004A
:1013900010B19DF804007CBD1248047504604460DF
:1013A0008460C4600461FFF7F1FD0E485838FFF710
:1013B0006BFE01909DF8040040B90A48002158389E
:1013C000B0F85400000400F003FB01909DF8040005
:1013D00020B94FF40060FFF715FE01909DF804005E
:1013E0007CBD0000B0A900202DE9F84F00240120A9
:1013F0000090FFF7A9FDE0B1DFF8FC8000263F4D2B
:10140000D8F804004FF0C0094FF4806704282AD0B0
:101410002E6002206860C5F80890EE602F612846B3
:10142000FFF7D0FDFEF7F8FF0446200003D0BDE82B
:10143000F88F2520FBE70020FFF78EFDDFF8BCA02A
:10144000AAF1900ACAF800000420FFF785FDCAF847
:1014500004000820FFF780FDCAF808000C20FFF701
:101460007BFDCAF80C00D8F8040028B1012803D08D
:10147000062801D0022811D12E6003206860402088
:10148000A860EE602F611D48FFF79CFD69460320B0
:10149000FEF7FEFF0446200000D0C8E7D8F804009D
:1014A000042826D0BDF80000C8F808000004286011
:1014B00009206860C5F80890EE602F610F48FFF7BB
:1014C00081FDFEF7A9FF0446200000D0AFE7002011
:1014D000FFF742FD094DA03D28600420FFF73CFDC9
:1014E00068600820FFF738FDA8600C20FFF734FD86
:1014F000E86020469BE7000024000020C8A90020E7
:1015000030B58FB004461E4D4FF0FA512846FFF714
:1015100067F800212846FFF78FF82846FFF798F86C
:101520004FF0006000901748019002940020039053
:101530000121049105908902069189000791890093
:10154000089109904FF440300A9004200B9003203A
:101550000C9048020D9080100E9069462846FFF7C7
:1015600065F9012210212846FFF746F92021284677
:10157000FFF704F901212846FFF75EF80FB030BDF0
:1015800058640240802C014030B58FB004461F4D96
:101590004FF0FA512846FFF723F800212846FFF7BD
:1015A0004BF82846FFF754F84FF0006000901848B9
:1015B00001900294402003900120049000200590A7
:1015C00029150691890007918900089109904FF427
:1015D00040300A9004200B9003200C9048020D909C
:1015E00080100E9069462846FFF720F9012210214D
:1015F0002846FFF701F920212846FFF7BFF801210F
:101600002846FFF719F80FB030BD000058640240BB
:10161000802C01407CB501210C20FFF745FB244DB7
:101620000C2208212846FFF7E1FA0C22092128465E
:10163000FFF7DCFA0C220A212846FFF7D7FA0C2222
:101640000B212846FFF7D2FA0C2211462846FFF755
:10165000CDFA184E0C2202213046FFF7C7FA4FF49C
:101660007060009002218DF805108DF804100024A0
:101670008DF8064001218DF8071069462846FFF7CE
:1016800077FA0421009169463046FFF771FAA814F1
:1016900000908DF8074069462846FFF769FA012156
:1016A000C802FFF71DFB01218805FFF7FDFA7CBD8D
:1016B00000080240000C02402DE9F84F0027009777
:1016C000BB460024A24600255948762101750760D3
:1016D00047608760C7600761FFF758FC0320FFF78A
:1016E00085FC0120FFF7E6FB514E18363760776026
:1016F000B760F7604FF48069C6F810903046FFF786
:1017000061FCFEF7F6FD00909DF8000018B19DF811
:101710000000BDE8F88F4FF4D5703060082070608D
:101720004FF04008C6F80880F760C6F810904048AF
:101730001830FFF747FCFEF7EBFE00909DF8000025
:1017400018B3376037207060C6F80880F760C6F8B5
:10175000109037481830FFF735FC3720FEF7DEFDD4
:101760000090376037207060C6F80880F760C6F8D0
:1017700010902F481830FFF725FC3720FEF7CEFDDC
:1017800000909DF8000090B34FE02A48012141608D
:101790008D07E6E7376037207060C6F80880F7608D
:1017A000C6F8109022481830FFF70CFC3720FEF7DF
:1017B000B5FD00909DF8000010B19DF80000A8E76D
:1017C0001D482843306029207060C6F80880F76003
:1017D000C6F8109016481830FFF7F4FBFEF73EFEEF
:1017E00000909DF8000018B19DF8000091E706E018
:1017F0000020FFF7B1FB83464FEADB7A641CBAF1A5
:10180000000F03D14FF6FF708442C3D34FF6FF7031
:10181000844204D31B2000909DF8000079E71BF060
:10182000804F02D00348022141609DF8000070E71C
:10183000B0A90020240000200000108007480068A4
:1018400010F0C05F08D006490120486103484FF0FE
:10185000C2515830FEF7C4BE704700000064024019
:101860002400002070B54FF480752846FFF762FB16
:10187000214C38B1002020702846FFF715FB0120CD
:10188000206132E00220FFF755FB28B10220FFF76C
:101890000BFB0220207028E00820FFF74BFB28B14B
:1018A0000820FFF701FB042020701EE02020FFF736
:1018B00041FB28B12020FFF7F7FA0620207014E042
:1018C0001020FFF737FB28B11020FFF7EDFA0520B5
:1018D00020700AE04FF400752846FFF72BFB20B17B
:1018E0002846FFF7E1FA0720207000214CF23A3039
:1018F000FFF73EFB207870BD240000202DE9F05F4B
:101900008346DDE90A6714461D46DFF8B8A04FF0AC
:1019100000088AF80080CAF810804FF00109CAF860
:101920000C902948C0F80080012140F22A30FFF7CE
:101930001FFB07FB06F15846FFF7E2FD0120FFF70A
:10194000BFFADAF80400022803D10602640A44EA66
:10195000C5541E4D2E60102068604FF0400AC5F837
:1019600008A0C5F80C804FF4806BC5F810B028466D
:10197000FFF728FB1020FEF7D1FC002820D1411EE4
:1019800005F11400016077434760902181600221D6
:10199000C160C0F81080C0F81490FFF797FA2C606F
:1019A00012206860C5F808A0C5F80C80C5F810B012
:1019B0002846FFF707FBBDE8F05F1220FEF7AEBC3C
:1019C000BDE8F09F240000202C2C0140C8A9002075
:1019D00010B5094A10600720506040209060002038
:1019E000D0604FF4806010611046FFF7EBFABDE85D
:1019F00010400720FEF792BCC8A9002070B505462C
:101A0000002D16D00F48008901040F4801600D21F8
:101A10004160402181600021C1604FF4806101611B
:101A2000FFF7D0FA0D20FEF779FC04461CB12046E2
:101A300070BD262070BD0020FFF78EFA286020467A
:101A400070BD000024000020C8A9002010B508487F
:101A5000002101600C22426040228260C1601101BD
:101A60000161FFF7AFFABDE810400C20FEF756BC4D
:101A7000C8A900202DE9F04100256C1E2146154E15
:101A800000E0491E706928B9306918B9307808B982
:101A90000029F6D1002777610F4800E0641E016835
:101AA000890401D5002CF9D1F068012803D1FFF792
:101AB000CDFF0546F7602C4300D1042540F2FF50CE
:101AC000FFF7ECF9307810B13078BDE8F0812846A6
:101AD000FBE7000024000020342C01402DE9F041F8
:101AE00000256C1E2146154E00E0491E706928B97C
:101AF000306918B9307808B90029F6D10027776124
:101B00000F4800E0641E0168C90401D5002CF9D11A
:101B1000F068012803D1FFF799FF0546F7602C43D1
:101B200000D1042540F2FF50FFF7B8F9307810B12A
:101B30003078BDE8F0812846FBE700002400002053
:101B4000342C01402DE9F05F8246DDE90A67144636
:101B50001D46DFF804914FF0000889F80080C9F8AD
:101B600010800120C9F80C003C48C0F80080012119
:101B700040F21A30FFF7FCF907FB06F15046FFF779
:101B800003FD0120FFF79CF9D9F80400022803D1D6
:101B90000602640A44EAC554314D2E601020686084
:101BA0004FF0400BC5F808B0C5F80C804FF4806AC0
:101BB000C5F810A02846FFF705FA1020FEF7AEFB87
:101BC000002847D1B9F80800000428603720686071
:101BD000C5F808B0C5F80C80C5F810A02846FFF776
:101BE000F1F93720FEF79AFB002833D12F60172038
:101BF0006860C5F808B0C5F80C80C5F810A0284684
:101C0000FFF7E0F91720FEF789FB002822D12C60AE
:101C100019206860C5F808B0C5F80C80C5F810A098
:101C20002846FFF7CFF91920FEF778FB002811D1DD
:101C300005F11402401E10607743576090209060B9
:101C4000C2F80C80C2F81080012050611046FFF7E6
:101C50003DF94046BDE8F09F240000202C2C0140B7
:101C6000C8A9002010B590B001218805FFF71CF825
:101C7000164C2046FEF7ECFC2046FEF78BFD0028B4
:101C8000FAD14FF0C06001901148029011480390C2
:101C9000002004904FF480410591069009110791AE
:101CA0000890099089100A9149020B910C900D90AF
:101CB0000E900F9001A92046FEF7B8FD01221021D9
:101CC0002046FEF799FD10B010BD000040640240B0
:101CD0000C3001402821002010B590B0012188056A
:101CE000FEF7E2FF164C2046FEF7B2FC2046FEF758
:101CF00051FD0028FAD14FF0C060019011480290C8
:101D000011480390402004900002059000200690A6
:101D10004FF480610791089009900A90C9010B91D6
:101D20000C900D900E900F9001A92046FEF77EFDBD
:101D3000012210212046FEF75FFD10B010BD00000B
:101D4000886402400C3001402861002010B590B03A
:101D500001214805FEF7A8FF134C2046FEF778FC4A
:101D60002046FEF717FD0028FAD101900F49029195
:101D70000F49039104904FF48061059106900791FB
:101D8000089009900A90C9010B910C900D900E904B
:101D90000F9001A92046FEF749FD0122102120469F
:101DA000FEF72AFD10B010BD586002400C3800400C
:101DB00028A5002010B590B001214805FEF774FF5A
:101DC000134C2046FEF744FC2046FEF7E3FC0028B7
:101DD000FAD101900F4902910F49039140210491DA
:101DE0000901059106900791089009900A90C90190
:101DF0000B910C900D900E900F9001A92046FEF7CC
:101E000015FD012210212046FEF7F6FC10B010BD92
:101E1000706002400C38004028A100202DE9F041FC
:101E200088B001210846FEF73FFF01210220FEF79E
:101E30003BFF01210803FEF753FF01218805FEF750
:101E400033FF2E4F052204213846FEF7CFFEDFF880
:101E5000B080052207214046FEF7C8FE0522032177
:101E60003846FEF7C3FE0820069002258DF81C5068
:101E700003268DF81D6000248DF81E4006A9384603
:101E8000FEF776FE102006908DF81C508DF81E404F
:101E90008DF81D6006A93846FEF76AFE8020069080
:101EA0008DF81C508DF81E408DF81D6006A9404627
:101EB000FEF75EFE134D0021284600F025F8ADF830
:101EC0000440ADF80640ADF80840ADF80A40ADF862
:101ED0000C40ADF80E40ADF81040ADF812400720B0
:101EE000ADF8140001A9284600F024F80121284685
:101EF00000F00AF808B0BDE8F081000000040240DC
:101F00000000024000300140002904D0018841F067
:101F1000400101807047018821F040010180704735
:101F2000002A03D082880A438280704782888A43CD
:101F30008280704730B5028802F441530A884C8889
:101F4000CD8822438C882C4322430C8922434C8920
:101F500022438C892243CC8922431A430280828BFC
:101F600022F400628283098A018230BD2DE9F043A8
:101F700087B001210220FEF797FE01210802FEF73B
:101F800093FE01218F033846FEF79CFE0121480590
:101F9000FEF78AFEDFF8EC8005220E214046FEF7B0
:101FA00025FE05220F214046FEF720FEDFF8D890DF
:101FB000052201214846FEF719FE05220021484668
:101FC000FEF714FE022505958DF818508DF81B506C
:101FD00003268DF8196000248DF81A4005A948469B
:101FE000FEF7C6FD05978DF818508DF81A400127A9
:101FF0008DF81B708DF8196005A94046FEF7B8FDF5
:10200000A80305908DF818508DF819608DF81A40C6
:1020100005A94046FEF7ACFD05978DF818708DF8C0
:1020200019608DF81A4005A94846FEF7A1FD012167
:102030004846FEF7F2FD154D00212846FFF764FFE4
:10204000ADF800404FF48271ADF80210ADF80440D5
:10205000ADF80640ADF808406815ADF80A00182044
:10206000ADF80C00ADF80E400720ADF81000694641
:102070002846FFF75FFF01212846FFF745FF07B01D
:10208000BDE8F08300040240002002400038004018
:10209000704700001CB50021019100912E4A106884
:1020A00040F4803010604FF4A043106800F400301A
:1020B00000900198401C0190009810B90198984236
:1020C000F3D11068800302D50120009000E0009158
:1020D000009801283FD120484030016841F08051EC
:1020E00001601E49086840F4404008601A48083002
:1020F00003680360036843F400430360036843F428
:10210000A0530360041F164B2360136843F08073D1
:10211000136013689B01FCD50A6842F480320A60A0
:102120004A68D203FCD50A6842F400320A604A6861
:102130009203FCD50B4A40F205711160016821F051
:1021400003010160016841F0020101600168C1F30F
:1021500081010229FAD11CBD003802400070004004
:10216000195A4007003C02407047000010B5124861
:10217000016841F4700101601048016841F00101FB
:1021800001600E4A00210832116002680C4B1A40AF
:102190000260031D0B4A1A60026822F4802202606A
:1021A00006480C300160FFF775FF03494FF00060EF
:1021B0008039086010BD000088ED00E00038024062
:1021C000FFFFF6FE1030002410B50B4C40F22551F5
:1021D000204600F028F800280CD0204600F0BCF87B
:1021E000C0B20649312801D101220A60322801D14A
:1021F0000220086010BD00000044004020000020C4
:10220000002904D0818941F400518181704781897E
:1022100021F40051818170470246002012880A4251
:1022200000D00120704770B5002440F66A12C1F357
:10223000421301F01F05012606FA05F2012B0CD00E
:10224000022B0DD0838A1340090A8E40008830404B
:102250000BB100B10124204670BD83891340F3E720
:10226000038A1340F0E710B540F66A13C1F3421336
:1022700001F01F040121A140012B07D0022B07D040
:1022800014303AB102680A43026010BD0C30F8E71E
:102290001030F6E702688A43026010BD7FB504463D
:1022A0000D46208A20F44051E88808432082A08906
:1022B00041F20C618843A9882A8911436A89024343
:1022C0001143A181A08A20F44071A8890843A0820B
:1022D0006846FEF721FD1E48844202D01D48844214
:1022E00001D1039800E00298A189090408D500EB08
:1022F000C00101EB001029684900B0FBF1F007E0D4
:1023000000EBC00101EB001029688900B0FBF1F07F
:102310006422B0FBF2F109010B096FF018056B4361
:1023200000EB8300A3891D044FF0320307D503EBB4
:10233000C000B0FBF2F000F00700084306E003EB3A
:102340000010B0FBF2F000F00F00084320817FBDC9
:1023500000100140001401408088C0F3080070475D
:10236000C1F3080181807047FEE700000FB4054B00
:1023700010B503A9044A029800F02CF810BC5DF8CF
:1023800014FB00003D430008480000200FB4084B38
:1023900010B504A902AA039800F01CF8044602A98B
:1023A000002000F048FA204610BC5DF814FB000045
:1023B0003728000802E008C8121F08C1002AFAD115
:1023C00070477047002001E001C1121F002AFBD1B5
:1023D000704700002DE9FF4F8DB00F4605460026DF
:1023E00006E025280BD0DDE90F1290476D1C761C06
:1023F00028780028F5D111B03046BDE8F08F0024D0
:10240000A246A1460122EC4900E0044315F8013F31
:10241000203B02FA03F00842F7D128782A2810D08E
:102420006FF02F022878A0F13001092914D80AEBA7
:102430008A0102EB410144F0020400EB010A6D1C29
:10244000F0E701CF5FEA000A03D544F40054CAF173
:10245000000A44F002046D1C28782E2817D115F8C4
:10246000010F44F004042A280ED06FF02F022878C0
:10247000A0F1300109290AD809EB890102EB4101D9
:1024800000EB01096D1CF2E757F8049B6D1C2878DE
:102490006C280FD006DC4C2817D068280DD06A288D
:1024A00014D104E0742810D07A280FD10DE044F440
:1024B00000140AE044F4801401E044F44014697804
:1024C000814202D104F580146D1C6D1C2A786E2A9D
:1024D0001FD00CDC632A31D004DC002A8BD0582AB0
:1024E00011D1A3E0642A68D0692A0CD165E0732A6F
:1024F0002ED004DC6F2A73D0702A04D19BE0752A99
:102500006FD0782A6ED01046DDE90F129047761C06
:1025100050E1C4F30250022806D0032809D0042851
:1025200001CF09D0066045E101CFF117C0E9006194
:1025300040E101CF06803DE106703BE117F8040B56
:102540008DF8000000208DF80100EB46012003E02B
:1025500057F804BB4FF0FF3061074FF0000102D481
:102560000DE008F10101884649450FDA8045F8DBA6
:102570001BF808100029F4D108E008F10101884691
:102580008142FADB1BF808100029F6D1DDE90F23A0
:10259000AAEB08008146214600F036F9304400EBF2
:1025A000080604E0DDE90F121BF8010B9047B8F1B3
:1025B0000108F7D221464846F7E00A21C4F3025346
:1025C0004FF0000B0891022B04D001CFC117032B51
:1025D00009D00AE0FF1D27F00707F7E8020108E02D
:1025E00032E01FE020E000B2C117042B01D140B25D
:1025F000C117031E71F1000307DA4FF0000CD0EB96
:102600000C006CEB01012D2302E0230504D52B23E4
:102610008DF82430012303E0E30701D02023F7E7FE
:10262000984658E00A2110E010210EE010204FF0EB
:10263000000B08900CE010214FF0000B44F0040454
:102640004FF00809089103E008214FF0000B0891B2
:10265000C4F30253022B04D001CF0021032B06D078
:1026600006E0FF1D27F00707F7E8020103E080B24C
:10267000042B00D1C0B24FF0000823072BD5702ADD
:1026800007D0DDF820C08CF0100C5CEA0B0C05D0F4
:102690000EE040238DF82430012308E050EA0103C6
:1026A00006D030238DF824308DF82520022398465B
:1026B000DDF820C08CF0080C5CEA0B0C0BD150EA62
:1026C000010301D1630706D530238DF824304FF084
:1026D0000108A9F10109582A04D038A20B9208AACE
:1026E0000A920BE03AA2F9E75B46089AFDF77AFDF9
:1026F0000B9B9B5C0A9A521E0A92137050EA0102CD
:10270000F2D10A98ADEB000000F1200B600702D572
:1027100024F4803401E04FF00109D94502DDA9EB32
:102720000B0000E0002000EB0B0141440890AAEBF5
:10273000010AE00306D4DDE90F232146504600F0EC
:1027400063F806444FF0000908E009A911F80900F0
:10275000DDE90F12904709F10109761CC145F4DB50
:10276000E0030CD5DDE90F232146504600F04CF87C
:10277000064404E0DDE90F1230209047761C0899EA
:10278000481E08900029F5DC08E00A980A990078AC
:10279000491C0A91DDE90F129047761CBBF100013C
:1027A000ABF1010BF1DC21465046DDE90F2300F0CF
:1027B00019F806446D1C1BE609280100303132333C
:1027C000343536373839616263646566000000006D
:1027D0003031323334353637383941424344454657
:1027E000000000002DE9F041044600251E46174672
:1027F000880404D405E039462020B0476D1C641ECF
:10280000F9D52846BDE8F0812DE9F04104460025C0
:102810001E469046C80301D5302700E020278804D3
:1028200004D505E041463846B0476D1C641EF9D515
:102830002846BDE8F0810A68531C0B601070704791
:1028400010B5044600202071401EE062204602F0D0
:1028500013F808B1032010BD94F82E0294F82F123B
:1028600040EA0120A0F52A41553901D0022010BDCF
:1028700014F8660FE178627840EA0161A078663C5E
:10288000000440EA022001430B48B0EB012F01D1C4
:10289000002010BD14F8821FE278637841EA0261DB
:1028A000A278120442EA03221143B0EB012F01D1B6
:1028B000002010BD012010BD0046415400E0401C26
:1028C00002780AB18A42FAD100787047891E4269BB
:1028D000921E8A4201D800207047826A807801FBEC
:1028E000002070472DE9F05F81460E46B07EF17EF4
:1028F00050EA012002D00020BDE8F09F307800F0BF
:102900003F00401E00EB800101EBC00401200025C8
:10291000DFF860A006F101081AF80510725C11F8E2
:10292000081042EA012788B1FF2C0BD2384601F08B
:10293000CFFA83462046641C39F8100001F0C8FA2B
:10294000834501D00020D7E7384605E0A7F57F4151
:10295000FF3901D00020CFE76D1C0D2DDCD331787D
:10296000490605D520B139F8140008B10020C3E7A5
:102970000120C1E7E45000082DE9F04106460F466A
:10298000002F08D03946304601F036FD022809D222
:102990000120BDE8F081F56815B17069A84207D83B
:1029A000012505E0411CF4D071698142F1D83D4612
:1029B0002C46641C7069A04204D80224022D01D266
:1029C0000020E6E72146304601F016FD38B1411CF3
:1029D000DFD00128DDD0AC42EBD10020D9E76FF089
:1029E00070422146304601F061FF28B927B12246E6
:1029F0003946304601F05AFF20B101280DD001249C
:102A00002046C6E7F4603069411CF9D0401E3061B1
:102A1000707940F001007071F2E74FF0FF34EFE79A
:102A20002DE9F35F8846D8F8006000E0761C307826
:102A30002F28FBD05C28F9D00098D0F81CA00024E7
:102A4000254628466D1C305C202808D32F2806D048
:102A50005C2804D0FF2C09D30620BDE8FC9F711927
:102A6000C8F8001020282AD2042532E0C0B2A0F114
:102A700081017D290ED829466D1C715C01EB002077
:102A800080B2A1F140023F2A04D380397F2901D3CB
:102A90000620E2E7012101F0EFF9074647B1802F58
:102AA00008D2394665A0FFF709FF18B10620D4E720
:102AB0000620D2E72046641C2AF81070C1E70025E2
:102AC00007E0601E3AF81000202801D02E2802D11D
:102AD000641E002CF5D154B100202AF8140000988F
:102AE0000B222021806901F0BFFE002702E00620B2
:102AF000B3E77F1C3AF817002028FAD02E28F8D028
:102B00001FB145F0030500E0641E24B1601E3AF8D1
:102B100010002E28F8D14FF00008C1464FF0080BE6
:102B200038467F1C3AF8106006B3202E03D02E2EB4
:102B300004D1A74202D045F00305F1E7D84501D200
:102B4000A74219D1BBF10B0F0ED0A74201D045F01F
:102B500003050BD827464FF008084FF00B0B4FEA40
:102B600089604FEA1069DBE745F00305009880694A
:102B70000178E5293DD03EE0802E08D3304601F0B3
:102B8000A7F9002101F078F9064645F00205FF2E6D
:102B90000FD9ABF10100804503D345F00305D846BA
:102BA000BEE70098310A8269404608F101081154D5
:102BB00018E026B1314624A0FFF780FE18B15F2649
:102BC00045F003050EE0A6F14100192802D849F0AE
:102BD000020907E0A6F16100192803D849F00109AC
:102BE000203EB6B200988169404608F101080E54B3
:102BF00096E705210170BBF1080F03D14FEA896008
:102C00004FEA1069C9F38100032803D06FEA090174
:102C1000890701D145F00205A90709D409F003018C
:102C2000012901D145F01005012801D145F0080521
:102C300000988069C57200200FE70000222A3A3C04
:102C40003E3F7C7F000000002B2C3B3D5B5D000085
:102C500010B50322C31700EB136388541812002821
:102C600001D0521EF6E710BD70B505460E46002194
:102C7000284600F08AF988B900242969286801F0FB
:102C8000FBFD58B969690978E5290BD051B10024D9
:102C90000121284600F06DF80028EED0042800D16C
:102CA000072070BD641CB442F8D0F1E72DE9F0476D
:102CB00004460021204600F068F9002857D1FF267D
:102CC000B1464FF6FF7AA4F820A02169206801F0F0
:102CD000D3FD80465FEA080048D167693D7865B159
:102CE000F87A00F03F00E52D03D0010708D50F2842
:102CF00006D0FF26A4F820A030E04FF0040835E00D
:102D00000F2801D0CEB11DE0E06938B3690606D5C1
:102D100097F80D9025F040052E46E1882184B542B4
:102D200008D1797B494505D13946FFF7DBFD08B16C
:102D3000761E00E0FF26F6B210E0384602F066F894
:102D4000484513D0A169C87AC00704D10B22384680
:102D500001F074FD50B1FF26A4F820A00021204608
:102D600000F007F880465FEA0800AED04046BDE8B4
:102D7000F0872DE9F04104460E46E7887F1C3804B1
:102D8000000C0AD0216941B1206842895209B7FB81
:102D9000F2F302FB13721AB166E00420BDE8F08181
:102DA000491C2161E16871B1428983785209B7FBFE
:102DB000F2F25B1E1A4257D101F01EFB0546012DAF
:102DC00006D80220EAE70089B8424DD80420E5E79A
:102DD000681C14D020684169A9423FD88EB1E168CF
:102DE000FFF7CAFD054628000DD0012D0DD0681C47
:102DF0000DD0206802F071F858B10120CEE7012013
:102E0000CCE70420CAE70720C8E70220C6E7012074
:102E1000C4E7206800214289303001F025FD2946B1
:102E20002068FFF753FD2168C86200264FF00108B3
:102E30000CE080F80480206802F04FF808B101200F
:102E4000ACE72068C16A491CC162761C20688178A1
:102E5000B142EED82168C96A891BC162E560294682
:102E60002068FFF733FD2061E78020684189490928
:102E7000B7FBF1F201FB1271302202EB4111084461
:102E8000606100208AE72DE9FE430446A769E669F0
:102E90000C223946684601F0DEFC9DF80B00C007A5
:102EA00018D00020F872E06101252B4632466946B1
:102EB000384601F055FA2046FFF7F8FE10B96D1CB0
:102EC000642DF2D3642D0BD004280AD19DF80B0099
:102ED000F872E6619DF80B0080070ED5002003E034
:102EE0000720BDE8FE83401C36F810100029FAD1F7
:102EF00019300D21B0FBF1F600E0012631462046E5
:102F0000FFF7B2FE054601271DBB761E21D0E088E3
:102F1000811B204600F039F80546280019D1A06928
:102F200001F074FF80462169206801F0A5FC054688
:102F30007DB9F2B243466169E06901F093F9206816
:102F4000077100212046FFF714FF05460DB9761ED4
:102F5000E9D1C5B92169206801F08EFC0546280039
:102F600011D120220021606901F07EFCD4E9050125
:102F70000B2201F070FCA0696169C07A00F01800B2
:102F80000873206807712846ABE770B504460D4604
:102F9000E580A368012B03D020684169994201D8DC
:102FA000022070BD1BB90178032900D1436A2BB1FF
:102FB00041898078490911FB00F618E00189A9428E
:102FC00001D8022070BD406A17E01946206801F060
:102FD00013FA0346581C07D0022B03D3206840691C
:102FE000984203D8022070BD012070BDAD1BB542D0
:102FF000EBD219462068FFF769FCE36098B12168BD
:103000004A895209B5FBF2F210442061488940090F
:10301000B5FBF0F200FB1250302202EB40100844E6
:103020006061002070BD022070BD10B50124002831
:1030300003D1FEF77FF900B90024204610BD00003F
:1030400010B5034614460420002B16D1A1B1012966
:103050000BD0022902D003290ED103E04FF40070F7
:10306000208009E00120206006E004490023483167
:1030700007C9FDF7B7F82060002010BD58A900204F
:103080002DE9F041ADF5007D07460E4614461D467C
:103090000420002F18D1B0074FF4007818D00FE0AB
:1030A0002246641C012369460020FFF7E9FF07461A
:1030B0004FB9424669463046FDF7C5F806F5007639
:1030C0006D1E681CECD138460DF5007DBDE8F08121
:1030D000CDE90085620200233046FEF70FFC04466E
:1030E00034B9FEF7C7FC0446FEF717F90028FBD1F8
:1030F0000CB10420E8E70020E6E7014601200029A2
:1031000000D100207047F0B5ADF5017D07460E46B1
:1031100014461D460420002D07D0002F06D1B0070D
:103120004FF4007719D0002013E004200DF5017D45
:10313000F0BD3A46314601A8FDF785F82246641CE9
:10314000012301A90020FFF7DEFF0028EED106F5DC
:1031500000766D1E691CECD1E8E7CDE900756202CE
:1031600000233046FEF7EEFC044634B9FEF7B6FC09
:103170000446FEF7D2F80028FBD10CB10420D5E7B5
:103180000020D3E710B50446204600F04BFD002890
:1031900006D1204601F08AFF002801D100212160DC
:1031A00010BD10B50446204601F080FF002801D173
:1031B0000021216010BD2DE9F14FADF50E7D01F02C
:1031C0009BF9064601228EA984A800F0A7FE0446BA
:1031D00020007ED181A88A9001A88B9084A88E9926
:1031E00001F076F80446200000D10824042C70D1A8
:1031F00000218498FFF7C0FB80460024B8F1000F3F
:1032000000D10724B8F1010F00D10224B8F1FF3F2B
:1032100000D101241CB9849801F05FFE04464FF0F0
:10322000100A4FF00109CCBB41468498FFF74EFBD2
:103230008346849D3035849800214289284601F0D8
:1032400013FB0B222021284601F00EFB2E272F70A6
:1032500085F80BA0AE75300AE875300C2876300E74
:1032600068764146284601F0C9FD05F1200020227C
:1032700029468D9001F0EFFA85F82170869984989F
:103280000078032804D18498406A884200D1002144
:103290008D9801F0B3FD8498877816E017E0849844
:1032A000C0F82CB00BF1010B849880F8049084983E
:1032B00001F013FE0446200009D1849800214289C0
:1032C000284601F0D1FA7F1EFFB2002FE7D12CB9BA
:1032D00000E01DE084A8FFF7D6FD044624B1414676
:1032E000849801F0B7FC13E0899880F80BA08675EC
:1032F000310AC175310C0176310E4176414601F03B
:103300007DFD849880F80490849801F08CFD04463B
:103310000DF50F7D2046BDE8F08F00002DE9F74F39
:1033200088B090460998012803D913200BB0BDE856
:10333000F08F08A801F0E4F8002801DA0B20F5E787
:10334000FE4951F8206056B100213170C0B205909D
:103350000598FFF76AFEC10703D00320E6E70C20BB
:10336000E4E7400701D50A20E0E706F10A0202215E
:103370000598FFF765FE30B97089B0F5805F02D817
:10338000B0F5007F01D20120D0E702AA0121059803
:10339000FFF756FE10B90298802801D20120C5E738
:1033A000099911B14FF0000A01E04FF03F0AA0EB7C
:1033B0000A010291A8F1010018EA000F01D04FF0B4
:1033C0000008B8F1000F13D170894FF4FA62400A77
:1033D000B2FBF0F0B1FBF0F20020D94B00E0401C52
:1033E00033F810509542FAD8D54A163232F8108088
:1033F000B8F5007F02D37089B8FBF0F8B8F1000F80
:1034000001D14FF00108B8F1800F01D94FF08008C9
:10341000B1FBF8F0012740F6F672904200D3022784
:103420004FF6F672904200D30327032F1BD0012FD3
:1034300024D04200121D7089521E0244B2FBF0F9E2
:103440000125AA03B2FBF0F001900AEB050B0BEB90
:103450000900019A841804EB0800A0EB0A008842D6
:1034600012D90E2062E77289072303EB8000104413
:10347000B0FBF2F9202500200190E6E700EB4000C8
:10348000401C4208D21CD6E703AA03210598FFF787
:10349000D7FD20B9039810B1B0F5004F01D9012034
:1034A000039003982118491E401E8143081B039076
:1034B000032F0CD081440298411BA1EB0902019912
:1034C000511AB1FBF8F10491022F03D007E0054433
:1034D0008344F0E7049940F6F672914206D3032F35
:1034E00006D104994FF6F672914201D20E201DE7E3
:1034F000032F02D0012F02D006E00C240AE0B0F521
:10350000803F01D2012405E0B0F5803F01D20424C0
:1035100000E00624099810B1F020069039E0728985
:1035200006F130000021079001F09EF906F5F770D2
:103530000121417081700022C2700471FE2141712D
:10354000029943F6C1635144B1FBF3F103913F2368
:1035500043EA91048471C171037242728272C27231
:10356000029901730A0A42730A0C8273090EC1732D
:10357000552086F82E02AA2086F82F020123002269
:1035800007990598FFF7BFFD08B10120CEE6F820A6
:10359000069006F1300472890021204601F064F99A
:1035A0000B2268A1204601F056F97089E072000AEA
:1035B000207384F80D80A573280AE073012020741D
:1035C000032F0BD040026074000AA0740298B0F57B
:1035D000803F05D2E074000A20750AE00020F2E77F
:1035E00004F8200F010A6170010CA170000EE07058
:1035F000203C069860753F20207600206076FF21F1
:10360000A176E07684F81CA04FEA1A2060774FEA92
:103610001A40A0774FEA1A60E07700F06DFF039040
:1036200080222921032F24D016346074030AA37446
:10363000030CE374000E207584F800904FEA192003
:103640006070A2732174163C132241A104F12B0077
:1036500001F001F9552084F8FE01AA2084F8FF0149
:103660000123524621460598FFF74DFD60B3012026
:103670005CE62534A077030AE377030C84F8203056
:10368000000E84F8210004F8019C4FEA19202070F4
:103690004FEA194060704FEA1960A0700220E07193
:1036A000002020726072A0720123E372207306234F
:1036B0006373A073E2766177253C132229A104F19C
:1036C000470001F0C8F8C5E7032F06D101230AF12E
:1036D000060221460598FFF716FD5D464FF0000BE8
:1036E00072890021204601F0BFF806980390032F4D
:1036F00012D0012F0ED06FF0FF0101430391217012
:103700000398000A60700398000CA0700398000EE4
:10371000E07039E01849F0E760F0FF000390207096
:103720000398000A60700398000CA0700398000EC4
:10373000E070FF2020716071A0711FE04000002048
:10374000F2500008EBFE904D53444F53352E30009D
:103750004E4F204E414D45202020204641542020F0
:10376000202020004E4F204E414D45202020204655
:10377000415433322020200000FFFF00E07120720E
:103780006072A0720F20E0722A466D1C0123214650
:103790000598FFF7B8FC08B10120C7E57289002140
:1037A000204601F061F8012003900CE02A466D1CD0
:1037B000012321460598FFF7A6FC08B10120B5E5D5
:1037C0000398401C039003984845EFD30BF1010B7D
:1037D000BBF1000F84D0032F01D0DDF804802A460E
:1037E0006D1C012321460598FFF78DFC08B10120CF
:1037F0009CE5B8F10108F2D1032F3AD15220207094
:1038000060706120A0704121E170722284F8E4218F
:1038100084F8E52184F8E61184F8E7010498401E55
:1038200084F8E801010A84F8E911010C84F8EA112E
:10383000000E84F8EB01022084F8EC01002084F8EB
:10384000ED0184F8EE0184F8EF01552084F8FE01C3
:10385000AA2084F8FF0101230AF1010221460598FC
:10386000FFF751FC01230AF1070221460598FFF7F3
:103870004AFC002211460598FFF7E2FB08B101203F
:1038800054E5002052E5000017B581B014460298B7
:103890000090684600F034FE002802DA0B2004B0E5
:1038A00010BD0B4B53F82010002201B10A70019992
:1038B000002900D00A7043F8201001D0012C01D05B
:1038C0000020ECE7002202A901A800F027FBE6E7B0
:1038D000400000202DE9F747ADF50D7D0646002E8E
:1038E0000FD04FF00008C6F8008002F01F0727F045
:1038F00001028EA984A800F011FB0546280005D01E
:1039000096E009200DF5107DBDE8F08781A88A902A
:1039100001A88B9084A88E9900F0DAFC0546899C5A
:103920000DB904B9062517F01C0F51D04DB1042D67
:1039300003D184A8FFF7A7FA054647F00807899C3A
:1039400008E0E07A10F0110F01D0072502E07807B7
:1039500000D50825DDBB380745D500F0CDFDA073A7
:10396000010AE173020C2274030E6374A075E17501
:103970002276637684F80B8084F81C8084F81D809E
:1039800084F81E8084F81F802146849800F0D9FDB9
:1039900081460021204601F031FA84990120087106
:1039A000B9F1000F1FD08498D0F82CA04946849814
:1039B00001F050F90546280015D18498A9F10109B4
:1039C000C0F80C905146849800F056FF05460AE076
:1039D0004DB9E07AC10601D5042504E0B90702D546
:1039E000C00700D007253DB9380701D547F02007AB
:1039F0008498C06AF0613462D5B9B77186F80780DF
:103A00002146849800F09DFD3061207FE17F627F38
:103A100040EA0160A17F090441EA02210843F06005
:103A2000C6F80880C6F8188084983060C088B080D6
:103A3000284667E733B5ADF5057D0546002D07D06F
:103A4000002286A984A800F069FA044624B126E081
:103A500009200DF5077D30BD8498286081A8A861F4
:103A600001A8E8612846869900F032FC04469CB91A
:103A7000696941B1C87AC00604D5849800F061FD37
:103A8000A86000E005243CB98498C088A880002183
:103A90002846FFF77AFA0446042C00D105240CB11D
:103AA000002028602046D4E72DE9F84F04468846D8
:103AB000164699460020C9F80000204601F0F6FAA3
:103AC000002812D1E07900280FD1A079C0070BD0CF
:103AD000D4E90210401A864200D9064604F12400B7
:103AE0004FF0010A009098E00720BDE8F88F2268A7
:103AF000A0685189B0FBF1F301FB1303002B6DD1DA
:103B0000B0FBF1F193785B1E1940CDB275B940B1AD
:103B10001046616900F070FC022804D20220E071B6
:103B2000E3E72069F8E7411C1CD060616169206807
:103B3000FEF7CCFED0B100EB050B20684189B6FB47
:103B4000F1F74FB38178EA198A4200D94F1B4078C8
:103B50003B465A464146FFF793FA50B184F807A016
:103B60000120C2E784F807A00120BEE70220E0712F
:103B7000BBE7A07940060BD5A069A0EB0B00B842CB
:103B800006D221684A89009900FB028000F063FE9A
:103B9000206845897D4336E0A2695A451CD0A17949
:103BA00049060DD5407801230099FFF7ACFA18B10A
:103BB00084F807A0012098E7A07920F04000A071C8
:103BC000206801235A4640780099FFF759FA18B146
:103BD00084F807A0012088E7C4F818B02068A1681D
:103BE0004089B1FBF0F200FB1212851AB54200D9F0
:103BF0003546B1FBF0F200FB1210011924312A46C0
:103C0000404600F028FEA844A0682844A060D9F8E7
:103C100000002844C9F80000761B002E7FF467AF2F
:103C2000002062E770B50446204601F03FFA002804
:103C30000ED1A1798A060BD548060ED5206801233E
:103C400004F124014078A269FFF75DFA08B1012070
:103C500070BDA07920F04000A071E169206800F0FB
:103C60000BFE0028F4D1256AE87A40F02000E872C3
:103C7000207B2877A089000A6877E068000CA87785
:103C8000E068000EE8772846216901F0B7F800F0F7
:103C900033FCA875010AE975010C2976000E6876D7
:103CA0000020A874E874A07920F02000A071216899
:103CB000012008712068BDE8704001F0B4B82DE91A
:103CC000F84F04468846164699460020C9F8000079
:103CD000204601F0EBF9002806D1E079002803D155
:103CE000A079800702D40720BDE8F88FA068811969
:103CF00000D3002604F124004FF0010A0090ADE04B
:103D00002268A0685189B0FBF1F301FB1303002B7B
:103D10007DD1B0FBF1F193785B1E1940CDB2F5B9BE
:103D200068B110466169FEF727FE002870D00128AF
:103D30000DD0411C0ED06061216979B10FE020697E
:103D40000028F2D100211046FEF716FEEDE7022012
:103D5000E071C9E784F807A00120C5E72061A079D8
:103D600040060FD520680123A26940780099FFF72B
:103D7000CAF918B184F807A00120B5E7A07920F0AE
:103D80004000A07161692068FEF7A0FDB0B100EBB2
:103D9000050B20684189B6FBF1F737B38178EA1942
:103DA0008A4200D94F1B40783B465A464146FFF7AE
:103DB000AAF930B184F807A0012095E70220E0714C
:103DC00092E7A069A0EB0B00B8420AD221684A89A9
:103DD00000FB0281009800F03EFDA07920F0400039
:103DE000A071206845897D432EE0A169594510D016
:103DF000D4E9021291420CD2407801235A4600992C
:103E0000FFF73EF928B184F807A001206CE702E033
:103E100027E0C4F818B02068A1684089B1FBF0F22F
:103E200000FB1212851AB54200D93546B1FBF0F2FB
:103E300000FB1210204424302A46414600F00BFDBE
:103E4000A07940F04000A071A844A0682844A06078
:103E5000D9F800002844C9F80000761B002E7FF432
:103E60004FAFD4E90201884200D9E060A07940F068
:103E70002000A071002037E770B580281FD345F2DD
:103E8000205409B1104D00E0104D00231022E11A1A
:103E900001EBD17103EB610135F82160864207D057
:103EA00001D20B4600E00C46A2F10102002AEED13D
:103EB00032B14FF0010000EB410035F8100070BD49
:103EC0004FF0000070BD0000A2A501081E510008BF
:103ED00070B5802806D2A0F16101192901D82038D7
:103EE00080B270BD0C2300224FF4F774094DA11A63
:103EF00002EB510135F81160864205D001D20A4625
:103F000000E00C465B1EF2D1002BEAD0024830F8EC
:103F1000110070BD26FA020802FE02082DE9FF47D3
:103F20008046084616460027C8F8007000F0E8FAF8
:103F30000546002D03DA0B2004B0BDE8F087C64823
:103F400050F825408CB1C8F80040207820B1607846
:103F5000FFF7D3F8C1070AD02770E8B26070FFF707
:103F600064F8C1070AD00320E6E70C20E4E71EB19D
:103F7000400701D50A20DFE70020DDE71EB140073A
:103F800001D50A20D8E7607804F10A020221FFF780
:103F900057F830B96089B0F5007F02D3B0F5805F83
:103FA00001D90120C8E7002529462046FEF748FC34
:103FB000012826D10021E84604EB011000F5F77036
:103FC000027952B1027AC37A42EA0362837A407A72
:103FD0001B0443EA0020024300E0002248F82120AD
:103FE000491C0429E8D3002658F8265025B1294653
:103FF0002046FEF725FC00E0022010B1761C042EBE
:10400000F2D3032802D018B10D2095E7012093E7E1
:1040100094F83B0094F83C10B4F80AC040EA012040
:10402000604501D00D2087E794F8460094F84710CA
:1040300040EA012058B914F8540FE178627840EA58
:104040000160A1780904543C41EA02210843A061BF
:1040500094F840A084F803A0BAF1010F04D0BAF19B
:10406000020F01D00D2067E70AFB00FA94F83D200B
:10407000A27012B1511E0A4201D00D205CE794F8E3
:10408000411094F8423041EA032323814FEA5C1641
:10409000B3FBF6F106FB113109B10D204CE794F8A2
:1040A000431094F8448041EA082179B994F85010FB
:1040B00094F8538094F8519041EA086194F8528042
:1040C0004FEA084848EA092841EA080194F83E8086
:1040D00094F83F9048EA0929B9F1000F08D0B3FBE2
:1040E000F6F609EB0A08B044414503D20D2023E758
:1040F0000D2021E7A1EB0801B1FBF2F141B301264C
:1041000040F6F672914200D302264FF6F6729142C3
:1041100000D30326891C6161E56105EB0902226277
:10412000A844C4F82880032E14D03BB352446262E2
:10413000022E25D001F0010201EB410102EB5101F9
:10414000491E6144B1FBFCF181421BD90D20F3E60D
:104150000D20F1E60BB10D20EEE694F85C2094F80A
:104160005F3094F85D8042EA036294F85E301B048D
:1041700043EA08231A4362628900E1E70D20DBE687
:104180004900DDE74FF0FF302061E0608020607182
:10419000032E57D194F8600094F8611040EA012092
:1041A00001284FD1691C204600F066FBF0BB677107
:1041B00094F82E0294F82F1240EA0120A0F52A412B
:1041C00055393FD114F8300FE178627840EA016048
:1041D000A178303C090441EA022108431F49884282
:1041E00030D194F8140294F8171294F8152240EA8A
:1041F000016094F81612090441EA022108431849A3
:1042000088421FD194F8180294F81B1294F81922CE
:1042100040EA016094F81A12090441EA02210843B5
:10422000206194F81C0294F81F1200E00AE040EAB2
:10423000016094F81E1294F81D22090441EA02213B
:104240000843E06026700449091F0888401C088064
:10425000E080002070E600004000002052526141E2
:10426000727241612DE9F0434B730F23CB7200232F
:104270000B738B76CB76531E03EB830404EBC305E1
:1042800000231C46114E01F1010C4FF6FF77BB4293
:1042900003D02B466D1C30F8133016F8048001F85B
:1042A000083016F804904FEA132809F80C8003B977
:1042B0003B46641C0D2CEAD3BB4202D030F81500FB
:1042C00008B942F040020A70BDE8F083E4500008EB
:1042D00073B50446019908782F2801D05C2801D1D4
:1042E000491C01910025A56001980078202805D27D
:1042F00000212046FEF749FE65617CBD01A92046EC
:10430000FEF78EFB0028F8D12046FEF7CFFCA1690E
:10431000C97A28B10428F0D14907EED405207CBD24
:104320004907FCD46169C87AC00601D405207CBD68
:10433000206800F006F9A060E0E7000070B50446D0
:10434000064DE1B22846FEF70BF880212846FDF71E
:1043500063FF0028F9D0204670BD000000440040F3
:104360007CB5054616461C460B22284600F073FA1B
:10437000052C11D91F480CE0B61C002322460C4620
:1043800062F35F044908E20300D544405B1C102B34
:10439000F4D331880029EFD107226B4604F00F01D6
:1043A0003031392901D9C91DC9B21046521E1954DC
:1043B0002409002CF2D17E2098540021541E06E0DE
:1043C00081387D2802D8A14206D0491C491C91425F
:1043D00002D2685C2028F3D1082A03D21046521C6E
:1043E000185C00E020200C46491C28550829F3D30E
:1043F0007CBD0000211001002DE9F04104460D466E
:10440000022D02D36069A84201D8012609E04FF0CD
:10441000FF362078012807D0022835D003284BD05A
:1044200001263046BDE8F08105EB55076089216A19
:10443000B7FBF0F00144204600F01EFA0028F0D14E
:1044400060893946B1FBF0F200FB121121447F1C58
:1044500091F83080B7FBF0F0216A0144204600F06B
:104460000BFA0028DDD16089B7FBF0F100FB117079
:10447000204490F8300048EA0020E90701D00609FE
:10448000CFE7C0F30B06CCE76089216A4008B5FB93
:10449000F0F00144204600F0EFF90028C1D1618915
:1044A0006800B0FBF1F201FB1200204430300178CB
:1044B000407841EA0026B4E76089216A8008B5FBAC
:1044C000F0F00144204600F0D7F90028A9D1618915
:1044D000A800B0FBF1F201FB12002044303001785B
:1044E000C27841EA026182784078120442EA0020F0
:1044F000014321F0704694E70048704700002146D0
:1045000010B504464FF0FF302368002B0BD019463E
:1045100000E0491C0A78202A01D33A2AF9D10A7806
:104520003A2A01D0002010BD13F8012B303A0A2A94
:10453000F9D28B42F7D1022AF5D21046491C2160EC
:1045400010BD0246887ECB7E40EA03201278032A03
:1045500005D10A7D497D42EA012140EA01407047C8
:1045600090B040216846FBF787FE6FF07F40FCF774
:10457000E9F9FCF789F9FCF7ABFA00F013FC00F05D
:1045800027FC01225AA15B48FFF77EF95A4D28709B
:104590000D2809D0002825D0014658A0FDF7E6FED9
:1045A0005FA0FDF7E3FEFEE766A0FDF7DFFE002259
:1045B00011464FA0FEF7B2FE287018B16CA0FDF7AF
:1045C000D5FEFEE770A0FDF7D1FE012248A1002034
:1045D000FFF75AF92870012245A14648FFF754F920
:1045E000287002E070A0FDF7C1FE754C4FF4004644
:1045F000744F75E04FF6FF70FCF7A4F900F09AFBDA
:1046000071A0FDF7B3FEA378627821786FA0FDF763
:10461000ADFE2078432863D160784D2860D1A07822
:1046200044285DD11021664800F048FB40F6FF7039
:10463000FCF788F9607B20B9A17B11B9E17B0129E6
:1046400001D030B10AE063A0FDF790FE00F0C4F99C
:1046500046E0A17B11B9E17B082901D040B10CE013
:104660005FA0FDF783FE00F0B7F900F061FC37E0D2
:10467000A17B11B9E17B052901D088BB1DE0E07960
:10468000012804D00A2805D0642806D007E00120BC
:10469000686004E00A20686001E0642068601648F1
:1046A000E178401C01702179417052A0FDF75EFE57
:1046B00053A06968FDF75AFE12E0A07B80B9E07B49
:1046C00009280DD152A0FDF751FE227954A1594875
:1046D000FDF75CFE574958A0FDF748FE00F028FCA6
:1046E00031463846FCF792FA0028F9D182E70000FB
:1046F000303A00004C00002010000020A3A1A3A12C
:104700005344BFA8B9D2D4D8CEC4BCFECFB5CDB324
:10471000CAA7B0DCA1A3282564290D0A0000000067
:10472000A3A1A3A1BFC9C4DCD4ADD2F2A3BA5344A0
:10473000BFA8B3F5CABCBBAFB2BBB3C9B9A6A1A3EE
:104740000D0A0000A1B75344BFA8BBB9C3BBD3D067
:10475000CEC4BCFECFB5CDB3A3ACBCB4BDABBDF82D
:10476000D0D0B8F1CABDBBAF2E2E2E0D0A0000006E
:10477000A1B6A1B6B8F1CABDBBAFCAA7B0DCA1A3B0
:10478000A1B7A1B70D0A0000A1B75344BFA8D2D169
:10479000B3C9B9A6B8F1CABDBBAFCEC4BCFECFB5D4
:1047A000CDB3A1A30D0A0000A1B7CEC4BCFECFB506
:1047B000CDB3B9D2D4D8B3C9B9A60D0A0000000050
:1047C00028A50020001C0240726376002578257819
:1047D00025780000B5A5D6A1B2C9BCAF0D0A00006E
:1047E000C9CFB7A2D7EED0C2B2C9BCAFCAFDBEDD39
:1047F0000D0A0000414443C5E4D6C30D0A00000081
:10480000B2C9D1F9B5E3CAFD25646B0D0A000000F9
:10481000C9CFB4ABC0FACAB7CEC4BCFE0D0A000003
:10482000303A2F61642F6164253033642E62696EE3
:1048300000000000C42000202573000010B50023F4
:10484000521E541C05D010F8013B11F8014B1B1BE4
:10485000F6D0184610BD03E011F8013B00F8013B0B
:10486000521E531CF8D17047C9B201E000F8011B79
:10487000521E531CFAD1704770B504460E460025EF
:10488000E06AB04210D0204600F027FB05465DB933
:1048900060780123324604F13001FEF7F1FB10B1DC
:1048A0004FF0FF360125E662284670BD2DE9F0473E
:1048B00004460D461646022D02D36069A84202D86E
:1048C0000220BDE8F087207806F0FF094FF00108CC
:1048D000012805D0022842D003285AD00220F0E750
:1048E00005EB55076089216AB7FBF0F001442046CB
:1048F000FFF7C2FF0028E4D1384661897F1CB0FB76
:10490000F1F201FB120020443030E90703D00178B6
:1049100069F31F1100E03146017084F8048060895A
:10492000216AB7FBF0F001442046FFF7A5FF0028FD
:10493000C7D16189B7FBF1F201FB1271214430311B
:10494000EA0702D0C6F3071205E00A78C6F303238C
:1049500002F0F0021A430A7084F80480B1E760891B
:10496000216A4008B5FBF0F001442046FFF784FFC0
:104970000028A6D162896900B1FBF2F302FB131192
:10498000214481F83090320A81F8312084F8048083
:1049900097E76089216A8008B5FBF0F00144204662
:1049A000FFF76AFF00288CD16289A900B1FBF2F3FE
:1049B00002FB1311214430314FF07043CA7803EAEF
:1049C000026232430A70130A4B70130C8B70120E82
:1049D000CA7084F8048074E72DE9F047ADF5806D66
:1049E000694E7068850369A16A48FFF723F8307043
:1049F00007E066A0FEF7DFFB64A16648FFF71AF840
:104A0000307030780028F4D1012440F2E737614853
:104A1000224661A12430FDF7B9FC5E490122243110
:104A20006248FEF757FF3070A8B1042803D0641C19
:104A3000A4B2BC42EBD35D48FEF7A4FBBC420ED14E
:104A40005BA0FDF793FC5348FEF7ABFB30700DF510
:104A5000806DBDE8F0875548FEF794FBE7E74D49C8
:104A60000A2224315148FEF735FF307060B101460B
:104A700055A0FDF77BFC4D48FEF784FB30704548A0
:104A8000FEF78FFB3070E2E7424956A02431FDF774
:104A90006DFC4FF47C74214604A80746FBF7ECFB41
:104AA0005848D0E901130268C068CDE901130092AB
:104AB000039021463846FBF7DFFB3348401C017862
:104AC0008DF8051040788DF806002F4928460831EA
:104AD000FEF7BEF82C48083001788DF809104178AF
:104AE0008DF80A1081788DF80B10C0788DF80C00C5
:104AF000254B4FF480640C33224669462B48FFF760
:104B0000DEF8307040A0FDF731FCDFF810810121A4
:104B10004046FBF791FD424FDFF808914FF4804A81
:104B200005F5806501213846FCF779F8494640468D
:104B3000FBF738FE0028F9D049464046FBF766FDF2
:104B400001213846FCF769F80F4B52460C333649C1
:104B50001648FFF7B4F8307004F58044AC42E1D158
:104B60001248FEF70FFB30700A48FEF71AFB307050
:104B70002EA0FDF7FBFB00214046FBF75DFD102159
:104B80002FA000F09BF862E710000020303A2F6160
:104B900064000000A0200020303A2F61642F61647F
:104BA000253033642E62696E000000007C10002006
:104BB000B4B4BDA8776176CEC4BCFECAA7B0DCA1F0
:104BC000A3A1A3A1A30D0A004F70656E20776176A3
:104BD00066696C65206661696C2121212D3E256422
:104BE0000D0A0000B4B4BDA8776176CEC4BCFEB394
:104BF000C9B9A6A3ACCEC4BCFEC3FBA3BA25730D32
:104C00000A000000D4500008BFAACABCBDD3CAD550
:104C10004144CAFDBEDD210D0A000000406402408F
:104C20000000024000802010282100204144CAFDDD
:104C3000BEDDD0B4C8EBCDEAB3C9210D0A00000037
:104C400073746F7073746F7073746F7073746F704C
:104C5000000000002DE9F04104460F46022F02D368
:104C60006069B84201D8022624E000261FE03946D8
:104C70002046FFF7C1FB0546E5B1012D09D0681CB0
:104C800009D0002239462046FFF710FE06468EB9AD
:104C900003E002260EE001260CE02069411C05D04D
:104CA000401C2061607940F0010060712F4660690E
:104CB000B842DCD83046BDE8F081000070B50A4645
:104CC00001461648FBF7BFFA154C4FF480412046C9
:104CD000FBF7D6FD01212046FBF7AEFC114D02216A
:104CE0002846FBF79CFF104E20463146FBF75AFD45
:104CF0000028F9D031462046FBF788FC08480B49CC
:104D00004838FBF783FC00212046FBF795FC022185
:104D10002846FBF782FF0648808970BD2861002085
:104D200088640240000002400088002000802010BB
:104D30000030014070B5174C00212046FBF77CFC89
:104D4000144D002118352846FBF776FC2615314610
:104D50002046FBF795FD31462846FBF791FD0E48AE
:104D6000008801212046FBF767FC01212846FBF75C
:104D700063FC0A4E20463146FBF714FD0028F9D0AB
:104D800031462046FBF72CFC2846BDE8704004491C
:104D9000FBF726BC586002400C3800400080001829
:104DA0002080002010B5FDF739F8FCF75BFFFCF719
:104DB00093FF064C012211462046FDF7B1F820462C
:104DC0000122BDE810400221FDF7AAB800300140E1
:104DD00010B5FDF7CBF8FCF7EDFFFCF7B7FF064C7D
:104DE000012202212046FDF79BF820460122BDE862
:104DF00010401146FDF794B80038004081760A0A49
:104E0000C2760A0C0275090E4175704701460020F2
:104E10000B22430803EBC01011F8013B1844C0B249
:104E2000521EF6D1704770B50446204600F055F882
:104E3000054628004FD12078032845D16079012804
:104E400042D104F13000628900210646FFF70CFDD3
:104E5000552084F82E02AA2084F82F02522084F8CC
:104E6000300084F83100612084F83200412184F858
:104E70003310722284F8142284F8152284F8161252
:104E800084F81702206984F81802010A84F81912BC
:104E9000010C84F81A12000E84F81B02E06884F8F2
:104EA0001C02010A84F81D12010C84F81E12000E67
:104EB00084F81F02E269521CE262607801233146E5
:104EC000FEF721F900206071002260781146FEF79C
:104ED000B7F800B10125284670BD2DE9F041044620
:104EE0000027207900281FD0E66A04F1300160789D
:104EF000012332468846FEF706F908B1012713E080
:104F000000202071206AA169301A88420CD2E5780D
:104F100008E0A06906446078012332464146FEF766
:104F2000F2F86D1E022DF4D23846BDE8F081000083
:104F30002DE9F04700240025012238493848FEF7C2
:104F4000C9FCDFF8E08088F8000050B1014636A0C7
:104F5000FDF70CFA3248FEF715F988F80000BDE8B5
:104F6000F08737A0FDF702FA4FF48049394F4FF42C
:104F700000464FF4806A35E0214637A0FDF7F6F988
:104F80003BA0FDF7F3F93EA0FDF7F0F92448FEF74A
:104F9000F9F888F80000E2E72148D0E902108142E0
:104FA00000D10125641C214638A0FDF7DFF94946F0
:104FB0003846FBF732FE3A48FBF7C4FC3146384628
:104FC000FBF724FE0128F9D0FFF7B4FE4946384626
:104FD000FBF725FE31463846FBF718FE0028F9D0CE
:104FE000012D0BD00F4B52460C332E490C48FEF7C7
:104FF0005BFD88F800000028CED0BDE71CA0FDF7BF
:10500000B5F91FA0FDF7B2F90548FEF7BBF888F81F
:105010000000254900200860A1E70000C42000200E
:105020007C10002010000020B4F2BFAACEC4BCFE49
:10503000CAA7B0DC2121212D3E25640D0A00000005
:10504000B4F2BFAACEC4BCFEB3C9B9A62121212D9A
:105050003E0D0A00001C0240B6C1C8A1B5DA2564A5
:10506000D6A1CAA7B0DCA3A1A3A10D0A000000002D
:105070002121C9CFB4ABBDE1CAF80D0A0000000080
:10508000B9D8B1D5CEC4BCFE0D0A0000C9CFB4ABAF
:10509000B5DA253030303564D6A10D0A00000000A5
:1050A0002222010028A100202000002010B50028A5
:1050B0000CD0016851B10A7842B1CA888088824216
:1050C00004D14878FEF719F8C00701D0092010BDB7
:1050D000002010BD414443020002C101FF000C80CA
:1050E0000043444101030507090E10121416181C51
:1050F0001E0000040002000180004000200010009B
:1051000008000400020000000080004000200010A1
:105110000008004000200010000800040002A40065
:10512000E8A1A700ECA1A800A7A1B000E3A1B100ED
:10513000C0A1B700A4A1D700C1A1E000A4A8E100CC
:10514000A2A8E800A8A8E900A6A8EA00BAA8EC006E
:10515000ACA8ED00AAA8F200B0A8F300AEA8F70032
:10516000C2A1F900B4A8FA00B2A8FC00B9A80101D4
:10517000A1A81301A5A81B01A7A82B01A9A8440158
:10518000BDA84801BEA84D01ADA86B01B1A8CE01D4
:10519000A3A8D001ABA8D201AFA8D401B3A8D6016F
:1051A000B5A8D801B6A8DA01B7A8DC01B8A85102A1
:1051B000BBA86102C0A8C702A6A1C902A5A1CA02D4
:1051C00040A8CB0241A8D90242A89103A1A692030C
:1051D000A2A69303A3A69403A4A69503A5A696034B
:1051E000A6A69703A7A69803A8A69903A9A69A031B
:1051F000AAA69B03ABA69C03ACA69D03ADA69E03EB
:10520000AEA69F03AFA6A003B0A6A103B1A6A303B9
:10521000B2A6A403B3A6A503B4A6A603B5A6A70386
:10522000B6A6A803B7A6A903B8A6B103C1A6B20340
:10523000C2A6B303C3A6B403C4A6B503C5A6B603EA
:10524000C6A6B703C7A6B803C8A6B903C9A6BA03BA
:10525000CAA6BB03CBA6BC03CCA6BD03CDA6BE038A
:10526000CEA6BF03CFA6C003D0A6C103D1A6C30359
:10527000D2A6C403D3A6C503D4A6C603D5A6C70326
:10528000D6A6C803D7A6C903D8A60104A7A71004A9
:10529000A1A71104A2A71204A3A71304A4A714048E
:1052A000A5A71504A6A71604A8A71704A9A718045C
:1052B000AAA71904ABA71A04ACA71B04ADA71C042A
:1052C000AEA71D04AFA71E04B0A71F04B1A72004FA
:1052D000B2A72104B3A72204B4A72304B5A72404CA
:1052E000B6A72504B7A72604B8A72704B9A728049A
:1052F000BAA72904BBA72A04BCA72B04BDA72C046A
:10530000BEA72D04BFA72E04C0A72F04C1A7300439
:10531000D1A73104D2A73204D3A73304D4A73404CD
:10532000D5A73504D6A73604D8A73704D9A738049B
:10533000DAA73904DBA73A04DCA73B04DDA73C0469
:10534000DEA73D04DFA73E04E0A73F04E1A7400439
:10535000E2A74104E3A74204E4A74304E5A7440409
:10536000E6A74504E7A74604E8A74704E9A74804D9
:10537000EAA74904EBA74A04ECA74B04EDA74C04A9
:10538000EEA74D04EFA74E04F0A74F04F1A7510478
:10539000D7A710205CA9132043A81420AAA1152088
:1053A00044A81620ACA11820AEA11920AFA11C2042
:1053B000B0A11D20B1A1252045A82620ADA13020F7
:1053C000EBA13220E4A13320E5A1352046A83B2003
:1053D000F9A1AC2080000321E6A1052147A80921FD
:1053E00048A81621EDA1212159A96021F1A261212E
:1053F000F2A26221F3A26321F4A26421F5A2652145
:10540000F6A26621F7A26721F8A26821F9A2692114
:10541000FAA26A21FBA26B21FCA27021A1A2712138
:10542000A2A27221A3A27321A4A27421A5A2752114
:10543000A6A27621A7A27721A8A27821A9A27921E4
:10544000AAA29021FBA19121FCA19221FAA1932172
:10545000FDA1962149A897214AA898214BA89921F6
:105460004CA80822CAA10F22C7A11122C6A1152249
:105470004DA81A22CCA11D22D8A11E22DEA11F22D6
:105480004EA82022CFA123224FA82522CEA1272239
:10549000C4A12822C5A12922C9A12A22C8A12B2240
:1054A000D2A12E22D3A13422E0A13522DFA13622BF
:1054B000C3A13722CBA13D22D7A14822D6A14C229D
:1054C000D5A1522250A86022D9A16122D4A1642280
:1054D000DCA16522DDA1662251A8672252A86E22B6
:1054E000DAA16F22DBA1952292A89922D1A1A5224F
:1054F000CDA1BF2253A81223D0A16024D9A2612438
:10550000DAA26224DBA26324DCA26424DDA2652487
:10551000DEA26624DFA26724E0A26824E1A2692457
:10552000E2A27424C5A27524C6A27624C7A2772459
:10553000C8A27824C9A27924CAA27A24CBA27B2447
:10554000CCA27C24CDA27D24CEA27E24CFA27F2417
:10555000D0A28024D1A28124D2A28224D3A28324E7
:10556000D4A28424D5A28524D6A28624D7A28724B7
:10557000D8A28824B1A28924B2A28A24B3A28B24FF
:10558000B4A28C24B5A28D24B6A28E24B7A28F24F7
:10559000B8A29024B9A29124BAA29224BBA29324C7
:1055A000BCA29424BDA29524BEA29624BFA2972497
:1055B000C0A29824C1A29924C2A29A24C3A29B2467
:1055C000C4A20025A4A90125A5A90225A6A90325F1
:1055D000A7A90425A8A90525A9A90625AAA90725DB
:1055E000ABA90825ACA90925ADA90A25AEA90B25AB
:1055F000AFA90C25B0A90D25B1A90E25B2A90F257B
:10560000B3A91025B4A91125B5A91225B6A913254A
:10561000B7A91425B8A91525B9A91625BAA917251A
:10562000BBA91825BCA91925BDA91A25BEA91B25EA
:10563000BFA91C25C0A91D25C1A91E25C2A91F25BA
:10564000C3A92025C4A92125C5A92225C6A923258A
:10565000C7A92425C8A92525C9A92625CAA927255A
:10566000CBA92825CCA92925CDA92A25CEA92B252A
:10567000CFA92C25D0A92D25D1A92E25D2A92F25FA
:10568000D3A93025D4A93125D5A93225D6A93325CA
:10569000D7A93425D8A93525D9A93625DAA937259A
:1056A000DBA93825DCA93925DDA93A25DEA93B256A
:1056B000DFA93C25E0A93D25E1A93E25E2A93F253A
:1056C000E3A94025E4A94125E5A94225E6A943250A
:1056D000E7A94425E8A94525E9A94625EAA94725DA
:1056E000EBA94825ECA94925EDA94A25EEA94B25AA
:1056F000EFA9502554A8512555A8522556A8532541
:1057000057A8542558A8552559A856255AA85725AD
:105710005BA858255CA859255DA85A255EA85B257D
:105720005FA85C2560A85D2561A85E2562A85F254D
:1057300063A8602564A8612565A8622566A863251D
:1057400067A8642568A8652569A866256AA86725ED
:105750006BA868256CA869256DA86A256EA86B25BD
:105760006FA86C2570A86D2571A86E2572A86F258D
:1057700073A8702574A8712575A8722576A873255D
:1057800077A8812578A8822579A883257AA88425F9
:105790007BA885257CA886257DA887257EA88825C9
:1057A00080A8892581A88A2582A88B2583A88C2595
:1057B00084A88D2585A88E2586A88F2587A8932562
:1057C00088A8942589A895258AA8A025F6A1A125B1
:1057D000F5A1B225F8A1B325F7A1BC258BA8BD255D
:1057E0008CA8C625F4A1C725F3A1CB25F0A1CE2511
:1057F000F2A1CF25F1A1E2258DA8E3258EA8E4250D
:105800008FA8E52590A80526EFA10626EEA109267A
:1058100091A84026E2A14226E1A10030A1A10130D9
:10582000A2A10230A3A10330A8A10530A9A106308E
:1058300065A9073096A90830B4A10930B5A10A308E
:10584000B6A10B30B7A10C30B8A10D30B9A10E3004
:10585000BAA10F30BBA11030BEA11130BFA11230D0
:1058600093A81330FEA11430B2A11530B3A11630A5
:10587000BCA11730BDA11D3094A81E3095A82130C1
:1058800040A9223041A9233042A9243043A9253020
:1058900044A9263045A9273046A9283047A92930F0
:1058A00048A94130A1A44230A2A44330A3A444306B
:1058B000A4A44530A5A44630A6A44730A7A44830E8
:1058C000A8A44930A9A44A30AAA44B30ABA44C30B8
:1058D000ACA44D30ADA44E30AEA44F30AFA4503088
:1058E000B0A45130B1A45230B2A45330B3A4543058
:1058F000B4A45530B5A45630B6A45730B7A4583028
:10590000B8A45930B9A45A30BAA45B30BBA45C30F7
:10591000BCA45D30BDA45E30BEA45F30BFA46030C7
:10592000C0A46130C1A46230C2A46330C3A4643097
:10593000C4A46530C5A46630C6A46730C7A4683067
:10594000C8A46930C9A46A30CAA46B30CBA46C3037
:10595000CCA46D30CDA46E30CEA46F30CFA4703007
:10596000D0A47130D1A47230D2A47330D3A47430D7
:10597000D4A47530D5A47630D6A47730D7A47830A7
:10598000D8A47930D9A47A30DAA47B30DBA47C3077
:10599000DCA47D30DDA47E30DEA47F30DFA4803047
:1059A000E0A48130E1A48230E2A48330E3A4843017
:1059B000E4A48530E5A48630E6A48730E7A48830E7
:1059C000E8A48930E9A48A30EAA48B30EBA48C30B7
:1059D000ECA48D30EDA48E30EEA48F30EFA4903087
:1059E000F0A49130F1A49230F2A49330F3A49B3050
:1059F00061A99C3062A99D3066A99E3067A9A1303B
:105A0000A1A5A230A2A5A330A3A5A430A4A5A5302A
:105A1000A5A5A630A6A5A730A7A5A830A8A5A930FA
:105A2000A9A5AA30AAA5AB30ABA5AC30ACA5AD30CA
:105A3000ADA5AE30AEA5AF30AFA5B030B0A5B1309A
:105A4000B1A5B230B2A5B330B3A5B430B4A5B5306A
:105A5000B5A5B630B6A5B730B7A5B830B8A5B9303A
:105A6000B9A5BA30BAA5BB30BBA5BC30BCA5BD300A
:105A7000BDA5BE30BEA5BF30BFA5C030C0A5C130DA
:105A8000C1A5C230C2A5C330C3A5C430C4A5C530AA
:105A9000C5A5C630C6A5C730C7A5C830C8A5C9307A
:105AA000C9A5CA30CAA5CB30CBA5CC30CCA5CD304A
:105AB000CDA5CE30CEA5CF30CFA5D030D0A5D1301A
:105AC000D1A5D230D2A5D330D3A5D430D4A5D530EA
:105AD000D5A5D630D6A5D730D7A5D830D8A5D930BA
