:020000040800F2
:1000000018040120C1010008830C00087F0C0008BF
:10001000810C0008E1030008711B000800000000CB
:100020000000000000000000000000009117000820
:100030004909000800000000FD0C000865180008D0
:10004000DB010008DB010008DB010008DB01000820
:10005000DB010008DB010008DB010008DB01000810
:10006000DB010008DB010008DB010008DB01000800
:10007000DB01000879050008DB010008DB0100084E
:10008000A1050008DB010008DB010008DB01000816
:10009000DB010008DB010008DB010008DB010008D0
:1000A000DB010008DB010008DB010008DB010008C0
:1000B0001F190008DB010008DB010008DB01000854
:1000C000DB010008DB010008DB010008DB010008A0
:1000D000DB010008011A0008DB010008DB01000851
:1000E000DB010008DB010008DB010008DB01000880
:1000F000DB010008DB010008DB010008DB01000870
:10010000DB010008DB010008DB010008DB0100085F
:10011000DB010008DB010008DB010008DB0100084F
:10012000C9050008DB010008DB010008DB0100084D
:10013000DB010008DB010008DB010008DB0100082F
:10014000DB010008DB010008DB010008DB0100081F
:10015000DB010008DB010008DB010008DB0100080F
:10016000DB010008DB010008DB010008DB010008FF
:10017000DB010008DB010008DB010008DB010008EF
:10018000DB010008DB010008DB010008DB010008DF
:10019000DB010008DB010008DB010008DB010008CF
:1001A000DB010008DB010008DB010008DFF80CD0F0
:1001B00000F05CF800480047991E00081804012070
:1001C0000648804706480047FEE7FEE7FEE7FEE7F1
:1001D000FEE7FEE7FEE7FEE7FEE7FEE76918000838
:1001E000AD01000840EA01039B0703D009E008C9FC
:1001F000121F08C0042AFAD203E011F8013B00F8EC
:10020000013B521EF9D270472DE9F05F05460020F0
:1002100092469B4688460646814640241BE0284677
:1002200041464746224600F042F853465A46C01A15
:10023000914110D311461846224600F029F82D1A94
:1002400067EB01084F4622460120002100F020F80C
:1002500017EB00094E41201EA4F10104DFDC4846E3
:1002600031462A464346BDE8F09F0000064C074D44
:1002700006E0E06840F0010394E807009847103476
:10028000AC42F6D3FFF796FFD41F0008F41F000816
:10029000202A04DB203A00FA02F100207047914046
:1002A000C2F1200320FA03F3194390407047202A3B
:1002B00004DB203A21FA02F00021704721FA02F310
:1002C000D040C2F1200291400843194670470029EE
:1002D000816802D041F0010101E021F0010181605B
:1002E00070470029816802D041F4807101E021F457
:1002F0008071816070470029816802D041F40071EB
:1003000001E021F4007181607047000030B542685F
:100310000F4B0C791A400B6842EA042213434360E6
:1003200082680C4B4D791A40D1E9034323438C6812
:1003300044EA4504234313438360C26A097D22F4DF
:100340007002491EC9B242EA0151C16230BD0000CB
:10035000FFFEFFFCFDF7FFC070B5072609290AD98B
:10036000C568A1F10A0404EB4404A640B543A340C8
:100370001D43C56007E0056901EB4104A640B54394
:10038000A3401D4305611F23072A09D2446B521E57
:1003900002EB820293409C4391400C43446370BD46
:1003A0000D2A09D2046BD21F02EB820293409C43B8
:1003B00091400C43046370BDC46A0D3A02EB8202A3
:1003C00093409C4391400C43C46270BD0021016086
:1003D000017141718160C160016101210175704746
:1003E000FEE70000044B01228240186809B1104367
:1003F00000E09043186070470074004030B5012160
:1004000087B0084600F07CFC0121480700F090FC12
:100410001020009003208DF8040000248DF8074080
:100420008DF80500144D8DF806406946284600F009
:10043000D1FB202100916946284600F0CBFB2C20FF
:10044000CDE902048001CDE9040402A9002000F0F6
:1004500021F802A9102000F01DF801210020FFF76B
:10046000C1FF01211020FFF7BDFF0121002000F096
:1004700005F807B030BD000000000240044B9A149C
:100480008240186809B1104300E09043186070473B
:100490000074004030B5084C236840F6FE7282407C
:1004A0009343D1E900252A43D1E902510D432A4360
:1004B00082401A43226030BD0074004070B590B095
:1004C0000024FFF79BFF0121042000F031FC0A20EB
:1004D00001901220ADF800000026224DADF8086012
:1004E000ADF802606946284601F04CFA2021284602
:1004F00001F040FA0121284601F026FA1A491B4D65
:1005000031F8140000EB004045F82400641CF7D0DB
:100510000121480500F0F4FB4FF0606000901448A2
:10052000CDE90105402003900120CDE904068002B9
:10053000069080000790800008908011099040028A
:10054000CDE90A060320CDE90C060A4C694620468F
:100550000E9600F0AFF90121204600F091F810B09E
:1005600070BD000000080040D01F000810000020EF
:10057000207400408860024070B5084D4FF08154EF
:100580002146284600F03CF9012805D1214628469D
:10059000BDE8704000F05EB870BD000040600240F1
:1005A00070B5074C074D2146284600F043F9002856
:1005B00005D021462846BDE8704000F04BB870BD1C
:1005C000008800208860024070B5114D114C29460A
:1005D000204600F015F9012818D12946204600F0E0
:1005E00039F861150C4800F041FB01280ED1204676
:1005F00000F0FEF8AA1308B1084900E008490948CC
:10060000FFF7F0FDBDE8704000F080B970BD00005C
:100610002000001010640240001802401840002022
:100620001800002018800020074A904201D2074895
:1006300001E005481038064A8B0001EA020101D5A5
:10064000C1607047816070471064024000600240E2
:100650007D0F7D0F074A904201D2074801E005480F
:100660001038064A8B0001EA020101D5C1607047CB
:100670008160704710640240006002407D0F7D0F72
:100680000029016802D041F0010101E021F00101DF
:10069000016070472DE9F043016821F0010101601C
:1006A0000021016041608160C160016121214161DF
:1006B0003C493C4A3D251039904202D18D60BDE84D
:1006C000F083384A4FF474661832904201D18E603C
:1006D000F5E7344A4FF474173032904201D18F60FD
:1006E000EDE7304A4FF0746C4832904202D1C1F8C5
:1006F00008C0E4E72B4B2C4A6033984201D1CA6012
:10070000DDE7284C294B7834A04201D1CB60D6E7F5
:10071000DFF89080264C08F19008404501D1CC606C
:10072000CDE7DFF880804FF03D5908F1A80840453B
:1007300002D1C1F80C90C2E71E49DFF87880083971
:10074000404501D10D60BAE71A4D1835A84201D1D4
:100750000E60B4E7174D3035A84201D10F60AEE707
:10076000144D4835A84202D1C1F800C0A7E7114D89
:1007700010496035091FA84201D10A609FE70D4A60
:100780007832904201D10B6099E70A4A9032904248
:1007900001D10C6093E7074AA83290428FD1C1F88B
:1007A00000908CE7106002403D000020400F0020C8
:1007B00000003D20106402400029016802D041F48D
:1007C000802101E021F4802101607047002A026845
:1007D00002D042F4002201E022F400220260016112
:1007E0007047014600200968C90700D00120704702
:1007F000014600200968090300D501207047000068
:100800000246094B00209A4201D2084A01E0064AFA
:10081000103A8B0001D5526800E01268044B1A4070
:100820000A4200D00120704710640240006002407C
:100830007D0F7D0F30B5104A0024904201D20F4A3F
:1008400001E00D4A103A0E4B194205D01E2303EA6F
:10085000D12503682B4002E0406900F08003880046
:1008600001D5506800E01068064A1040084201D0E7
:1008700003B10124204630BD1064024000600240F4
:100880003C0F3C0F7D0F7D0F0B0607D5436912B15E
:1008900043F0800301E023F080034361802908D006
:1008A000002A026801F01E0101D00A4300E08A43D9
:1008B0000260704730B50368124ACC6813400A687A
:1008C0002243D1E905452C432243CC6922430C6ADB
:1008D00022434C6A22438C6A22434C6B22438C6B2A
:1008E00022431A430260426922F00703D1E90B2434
:1008F00022431A4342610A6942604A6882608968F9
:10090000C16030BD3F801CF04160704710B50B4C9A
:1009100000212046FFF7B4FE4FF480412046FFF748
:10092000F3FF0749088807492046FFF77DFE204668
:10093000BDE810400121FFF7A3BE0000886002401F
:100940000C3C00400088002070470000F0B50121F9
:1009500087B0084600F0D4F90121102000F0F4F926
:10096000022500248DF8064001268DF80760280234
:10097000234F8DF8055000908DF804506946384695
:1009800000F028F9680200908DF804506946384656
:1009900000F020F907220A21384600F057F9072213
:1009A0000921384600F052F94FF4E1300290ADF8D9
:1009B00010400C20134DADF80C40ADF81200ADF80E
:1009C0000E40ADF8144002A9284601F073F8252026
:1009D0008DF818008DF819408DF81A408DF81B60BD
:1009E00006A800F04FF9012240F22551284601F0F7
:1009F00049F80121284601F015F807B0F0BD0000C4
:100A0000000002400010014000224FF02043102857
:100A10000AD0B0F5807F09D0B0F5805F09D0D3F857
:100A20005801814309D107E0586EFAE7D3F88400F2
:100A3000F7E7D3F8A400F4E7012210467047D0E9A5
:100A40000012114382686FF01F03C06803EB42126B
:100A500042EA402001434FF02040C0F85011704757
:100A6000F0B50668B100A1F1C041D1F84011CD0B3D
:100A7000D0E901121143D0E903231A43114342691B
:100A8000046A11438269436A1143C269ED03114349
:100A90002143194329434FF02045EEB3D5F8406177
:100AA00022436FF30E0633431A43C5F84021026810
:100AB0009200A2F1C042C2F840116FF00F02130180
:100AC00014030168160441B38900A1F1C041D1F8B3
:100AD000481101F0704C816AD1E9007E02EB0E12E0
:100AE0007F1E17438A6803EB022217430A8A04EB2E
:100AF00002421743D5F8482147EA0C0702F0704339
:100B0000CA68898A120306EB0151A2F580520A4392
:100B10001A43C5F8482101E007E009E000688000B9
:100B2000A0F1C040C0F84871F0BDC5F84011C4E75D
:100B3000D5F84811806A01F07047D0E9001C02EB3B
:100B40000C12491E1143826803EB022211430B4B26
:100B5000C26803EB02321143028A04EB02421143E2
:100B6000828A007E06EB025211431A0302EB0060F8
:100B700001433943C5F84811F0BD000000F0FFFF04
:100B80004FF02041D1F8542142EA4000C1F854010D
:100B9000704700007CB50121402000F0B1F84FF40F
:100BA000007000240A4E00908DF8044002258DF854
:100BB00007506946304600F00DF8680300908DF844
:100BC00004408DF807506946304600F003F87CBDBC
:100BD00000180240F0B5002201274FF0030C0B680B
:100BE00007FA02F52B40AB422CD1066853000CFAF1
:100BF00003F4A64306600E79D0F800E09E4046EA72
:100C00000E0606600E79012E01D0022E12D18668E2
:100C1000A64386604E79D0F808E09E4046EA0E066C
:100C200086604668AE43466045688E799640B6B2A7
:100C300035434560C568A543C560CC799C40C36811
:100C40001C43C460521C102AC9D3F0BD4B07DB0EF5
:100C50009A40C90810B500EB8100016A0F249C403E
:100C6000A1430162016A1143016210BD02460020E6
:100C700012690A4200D00120704741837047FEE7A5
:100C8000FEE7704730B50F23C27801780125FAB12D
:100C9000144A126801F1E02102F4E062C2F5E06258
:100CA000C2F30722C2F10404D3404278A240847800
:100CB0001C401443220181F80024007800F01F0139
:100CC0008D404009800000F1E020C0F8005130BDA7
:100CD00001F01F0085404809800000F1E020C0F8C5
:100CE000805130BD0CED00E0024908430249086024
:100CF000704700000000FA050CED00E070470000AE
:100D0000044A0029116801D0014300E081431160C9
:100D10007047000030380240044A0029116801D0B1
:100D2000014300E081431160704700003838024001
:100D3000044A0029116801D0014300E08143116099
:100D40007047000040380240044A0029116801D071
:100D5000014300E0814311607047000044380240C5
:100D600070B5204B1968204C11F00C0104D01F4EB7
:100D7000042903D0082903D004601BE0066019E0B1
:100D8000184A121F1168C1F38055116801F03F0124
:100D900015B1B6FBF1F101E0B4FBF1F11468126892
:100DA000C4F388146143C2F30142521C5200B1FBE8
:100DB000F2F1016019680F2202EA11110C4A545C29
:100DC0000168E14041601C68072505EA9424145D30
:100DD00021FA04F484601B6805EA5333D25CD140E5
:100DE000C16070BD083802400024F40040787D01E5
:100DF000000000202DE9FC4101210846FFF780FF9B
:100E0000032408268DF80440002500968DF807502D
:100E100069463448FFF7DEFE01212020FFF770FF0E
:100E20008020314F00908DF804408DF807506946BE
:100E30003846FFF7CFFE01212020FFF761FF700148
:100E400000908DF804408DF8075069463846FFF74A
:100E5000C1FE01212020FFF753FFB00100908DF863
:100E600004408DF8075069463846FFF7B3FE01216C
:100E70000420FFF745FF01201C4F00908DF804402F
:100E80008DF8075069463846FFF7A4FE012104207B
:100E9000FFF736FF022000908DF804408DF80750D0
:100EA00069463846FFF796FE01210420FFF728FF28
:100EB000042000908DF804408DF8075069463846AC
:100EC000FFF788FE01210420FFF71AFF8DF8044088
:100ED00000968DF8075069463846FFF77BFEBDE85F
:100EE000FC810000000002400014024000080240A3
:100EF000F0B5012197B08805FFF702FF4B4801903C
:100F00004B480024CDE902044FF4005104AACE104E
:100F100082E852008810CDE90701C01009900AA9A3
:100F20004002012581E831004002434F00900D94BA
:100F3000002240490E943846FFF748FC012138460C
:100F4000FFF73AFC69463846FFF7B4FC012210214E
:100F50003846FFF799FC38208DF854008DF855403D
:100F600002208DF856008DF8575015A8FFF78AFE1D
:100F700001213846FFF784FB01213046FFF7E4FEEC
:100F80000FA8FFF723FA280711904FF0C060CDE9B2
:100F900012048DF840500F948DF84140234C0820E6
:100FA0008DF850004C3C0FA92046FFF7AFF9012304
:100FB0001A4603212046FFF7CFF90123022205211B
:100FC0002046FFF7C9F90123032206212046FFF737
:100FD000C3F90123042207212046FFF7BDF90123AD
:100FE00005220A212046FFF7B7F9012306220B212B
:100FF0002046FFF7B1F9012307220C212046FFF715
:10100000ABF9012308220D212046FFF7A5F90121A4
:101010002046FFF770F901212046FFF762F9012110
:101020002046FFF754F917B0F0BD00004C220140F4
:1010300018000020184000201064024010B5FFF78F
:10104000D9FEBDE810401420FFF752BF2DE9FC5F28
:101050000121F820FFF754FE02208DF804008DF8DE
:10106000050000208DF806008DF807000124694670
:10107000D0480094FFF7AEFD0C220021CD48FFF7C9
:10108000E5FD022000906946CA48FFF7A3FD0C2247
:101090000121C848FFF7DAFD042000906946C548E1
:1010A000FFF798FD0C220221C248FFF7CFFD082070
:1010B00000906946BF48FFF78DFD0C220321BD4813
:1010C000FFF7C4FD10276946BA480097FFF782FD75
:1010D0000C220421B748FFF7B9FD20266946B54820
:1010E0000096FFF777FD0C220521B248FFF7AEFD11
:1010F0004FF4805B6946AF48CDF800B0FFF76AFD5A
:101100000C221146AB48FFF7A1FD60030090694631
:10111000A848FFF75FFD0C220D21A648FFF796FDBA
:101120004FF480486946A348CDF80080FFF752FD90
:101130000C220E219F48FFF789FDE50369469D4873
:101140000095FFF747FD0C220F219A48FFF77EFD1F
:10115000694699480094FFF73DFD0C22002196480E
:10116000FFF774FD0220009069469348FFF732FDB7
:101170000C2201219048FFF769FD69468E480097CF
:10118000FFF728FD0C2204218B48FFF75FFD69461D
:1011900089480096FFF71EFD0C2205218648FFF7BF
:1011A00055FD69468548CDF80080FFF713FD0C22F8
:1011B0000E218248FFF74AFD694680480095FFF7F7
:1011C00009FD0C220F217D48FFF740FD69467B4851
:1011D0000094FFF7FFFC0C2200217848FFF736FD52
:1011E0000220009069467548FFF7F4FC0C220121AB
:1011F0007248FFF72BFD8020009069467048FFF78A
:10120000E9FC0C2207216E48FFF720FD2702694602
:101210006B480097FFF7DEFC0C2208216848FFF7B7
:1012200015FD6002009069466548FFF7D3FC0C226B
:1012300009216348FFF70AFD4FF480696946604859
:10124000CDF80090FFF7C6FC0C220A215C48FFF79E
:10125000FDFC4FF4006A69465948CDF800A0FFF73D
:10126000B9FC0C220B215648FFF7F0FC69465448A4
:10127000CDF800B0FFF7AEFC0C2211465048FFF746
:10128000E5FC6003009069464D48FFF7A3FC0C2283
:101290000D214B48FFF7DAFC69464948CDF800803C
:1012A000FFF798FC0C220E214548FFF7CFFC69465A
:1012B00043480095FFF78EFC0C220F214048FFF7B2
:1012C000C5FC69463D480097FFF784FC0C220821C5
:1012D0003A48FFF7BBFC6002009069463748FFF7C9
:1012E00079FC0C2209213548FFF7B0FC69463348E8
:1012F000CDF80090FFF76EFC0C220A212F48FFF773
:10130000A5FC4020DFF8BC80009069464046FFF70E
:1013100061FC0C2206214046FFF798FC69464046D6
:101320000096FFF757FC0C2205214046FFF78EFC84
:1013300069462048CDF800A0FFF74CFC0C220B2199
:101340001C48FFF783FC69461B480095FFF742FCE9
:101350000C220F211848FFF779FC694616480097C0
:10136000FFF738FC0C2208211348FFF76FFC8020A0
:10137000009069464046FFF72DFC0C2207214046AD
:10138000FFF764FC0220009069460D48FFF722FC3D
:101390000C2201210A48FFF759FC694608480094CD
:1013A000FFF718FC0C2200210548FFF74FFCBDE8B1
:1013B000FC9F00000014024000180240000C024094
:1013C00000100240001C024000B593B0FFF73EFE43
:1013D00001210846FFF7A0FC0421022007220D91FD
:1013E000CDE90B02CDE90E20109011900120009064
:1013F0000020CDE9010110210391402104918900D1
:10140000CDE90510C90007914900CDE908100BA8E6
:101410000A906846FFF724FB00F002F813B000BD05
:10142000F0B585B00126082500240096CDE90154C9
:10143000039420210120FFF7E7FA0028F9D168463C
:10144000FFF7FDFA0A201E480490401E0490FCD1CC
:101450000227CDE90264CDE9007520210120FFF7C4
:10146000D3FA0028F9D16846FFF7E9FA032003947C
:101470008DE8A10020210120FFF7C6FA0028F9D14C
:101480006846FFF7DCFA40F222200421CDE9026031
:10149000CDE9001520210120FFF7B6FA0028F9D187
:1014A0006846FFF7CCFA40F26A50FFF769FB20214B
:1014B0000120FFF7A9FA0028F9D105B0F0BD00001E
:1014C00040420F0010B5012190B04805FFF718FC0D
:1014D000144C2046FFF7DEF82046FFF782F900287B
:1014E000FAD11149CDE900011049CDE902104FF4BC
:1014F0008041CDE904100911CDE90610C901089019
:10150000CDE909010B900C900D900E906946204694
:10151000FFF7D0F9012210212046FFF7B5F910B0EE
:1015200010BD0000406002400C3C004018C000208C
:1015300010B5012190B04805FFF7E2FB154C20469D
:10154000FFF7A8F82046FFF74CF90028FAD1124916
:10155000CDE9000111490291402103910902CDE931
:1015600004100911CDE90610C9010890CDE909015F
:101570000B900C900D900E9069462046FFF79AF95B
:10158000012210212046FFF77FF905A000F0F2FAB2
:1015900010B010BD886002400C3C00401880002054
:1015A000696E6974000000000029018802D041F0D2
:1015B000400101E021F0400101807047F0B587B0A3
:1015C00001210420FFF79CFB01210846FFF798FB4F
:1015D0000121CE033046FFF7ABFB364F06220B212D
:1015E0003846FFF733FB06220C213846FFF72EFB67
:1015F00006220A213846FFF729FB022570118DF8D3
:10160000045000908DF8055000248DF8064069467E
:101610003846FFF7DFFAA8028DF8045000908DF8E5
:1016200006408DF8055069463846FFF7D3FAE802C0
:101630008DF8045000908DF805508DF806406946ED
:101640003846FFF7C7FA01208DF804008DF80640F0
:101650008DF80550184D009669462846FFF7BAFAEE
:10166000164F00213846FFF79FFFADF808404FF4B2
:101670008270ADF80A00ADF810406815ADF81200A0
:101680000720ADF80C40ADF81440ADF81800ADF8E7
:101690000E40ADF8164002A9384600F05DF8012171
:1016A0003846FFF781FF31462846FFF7E6FA07B0D4
:1016B000F0BD00000008024000000240003C004075
:1016C0002DE9F0411C4E00213046FEF7D9FF1A4C9F
:1016D0000021483C2046FEF7D3FF4FF480452946C1
:1016E0003046FFF711F929462046FFF70DF9134F51
:1016F00030463946FEF798FF114D20462946FEF741
:1017000093FF1048008801213046FEF7B9FF012100
:101710002046FEF7B5FF29462046FFF78BF8002844
:10172000F9D039463046FEF77FFF29462046BDE80E
:10173000F041FEF779BF0000886002400088002079
:10174000008020100C3C0040002A828801D00A430F
:1017500000E08A438280704730B502884C8802F4EA
:1017600041530A88CD8822438C882C4322430C891C
:1017700022434C8922438C892243CC8922431A4339
:101780000280828B22F400628283098A018230BD4A
:10179000704700001CB500212E4A0091019110688D
:1017A00040F4803010604FF4A043106800F4003023
:1017B00001900098401C0090019810B90098984240
:1017C000F3D11068800342D50120019021484030B8
:1017D000016841F0805101601F49086840F44040B1
:1017E00008601C48083003680360036843F4004342
:1017F0000360036843F4A0530360041F174B236086
:10180000136843F08073136013689B01FCD50A686A
:1018100042F480320A604A68D203FCD50A6842F476
:1018200000320A604A689203FCD50D4A40F2057105
:101830001160016821F003010160016841F00201BB
:1018400001600168C1F381010229FAD11CBD019137
:101850001CBD00000038024000700040195A4007CB
:10186000003C024070470000124810B5016841F486
:10187000700101601048016841F0010101600E4AE9
:1018800000210832116002680C4B1A400260031DEF
:101890000B4A1A60026822F48022026006480C306B
:1018A0000160FFF777FF03494FF00060803908605F
:1018B00010BD000088ED00E000380240FFFFF6FE9A
:1018C000103000241FB501210846FFF731FA13201C
:1018D000029042F22730ADF804004FF0804401A995
:1018E000204600F04FF80121204600F027F8202183
:1018F000204600F03FF84FF4E060FFF7F5F91C20B8
:101900008DF8000000208DF8010003208DF8020002
:1019100001208DF803006846FFF7B4F91FBD10B52C
:1019200001218C07204600F019F8002805D0204638
:10193000BDE81040012100F004B810BDC943018288
:101940007047C943018270470029018802D041F0E5
:10195000010101E021F001010180704702460020F1
:10196000138A92890B4202EA010202D0002A00D0B7
:1019700001207047828822F07002828082880A43A8
:101980008280704730B50288164C174DA0420DD0AA
:10199000A8420BD0B0F1804F08D0144B984205D02C
:1019A000134B984202D0134B984203D122F070039C
:1019B0004A881A43104B984206D0104B984203D0E5
:1019C00022F440730A891A4302804A68C2620A8874
:1019D0000285A04201D0A84201D1897A0186012165
:1019E000818230BD0000014000040140000400403D
:1019F00000080040000C00400010004000140040AF
:101A000010B5074C40F22551204600F01CF8002884
:101A100004D02046BDE8104000F0A2B810BD000080
:101A2000001001400029818902D041F4005101E0F9
:101A300021F40051818170470246002012880A4239
:101A400000D00120704770B501F01F050126002469
:101A5000C1F3421306FA05F2012B0FD0022B0FD06F
:101A6000838A4FEA11210088134206FA01F600EA40
:101A7000060001D000B10124204670BD8389F0E743
:101A8000038AEEE710B5C1F3421301F01F040121F0
:101A9000A140012B07D0022B07D01430002A026886
:101AA00005D00A4304E00C30F8E71030F6E78A432B
:101AB000026010BD7FB50446008A0D46C98820F437
:101AC000405001432182A08941F20C618843A988DA
:101AD0002A8911436A8902431143A181A08A20F413
:101AE0004071A8890843A0826846FFF739F91A486F
:101AF000844202D01948844201D1039800E0029840
:101B0000A189090400EBC00101EB0010296801D58F
:101B1000490000E08900B0FBF1F06422B0FBF2F173
:101B200009010B096FF018056B4300EB8300A389D3
:101B30001D044FF0320306D503EBC000B0FBF2F0FA
:101B400000F0070005E003EB0010B0FBF2F000F03E
:101B50000F00084320817FBD0010014000140140A8
:101B60008088C0F308007047C1F308018180704786
:101B7000FEE700000FB4054B10B503A9044A029814
:101B800000F018F810BC5DF814FB0000751E00088A
:101B90001400002002E008C8121F08C1002AFAD170
:101BA00070477047002001E001C1121F002AFBD1DD
:101BB000704700002DE9FF4F8DB09B460F4604464D
:101BC000002606E025280BD05A460F999047641C42
:101BD000761C20780028F5D111B03046BDE8F08F92
:101BE0000025A8460122984900E0054314F8013F6A
:101BF000203B02FA03F00842F7D120782E2817D1B3
:101C000014F8010F45F004052A280ED06FF02F02BA
:101C10002078A0F1300109290AD808EB880102EBED
:101C2000410100EB0108641CF2E757F8048B641CC7
:101C300020786C280DD004DC4C2812D06A2811D1F1
:101C400004E074280DD07A280CD10AE045F4001580
:101C500007E0617845F48015814202D1641C05F5E6
:101C60008015641C2278692A45D008DC002AB3D08C
:101C7000582A69D0632A10D0642A08D13BE0702A20
:101C800067D0732A13D0752A5CD0782A5CD01046AE
:101C90005A460F999047761CD3E017F8040B8DF83D
:101CA000000000208DF80100E946012003E057F80C
:101CB000049B4FF0FF3069074FF0000501D40AE0A4
:101CC0006D1C45450DDA8542FADB19F8051000292F
:101CD000F6D106E06D1C8542FCDB19F805100029E1
:101CE000F8D12E4404E019F8010B5A460F99904799
:101CF0006D1EF8D2A5E00A200021CDE90801C5F348
:101D0000025002280DD001CFC117031E71F100034C
:101D10000DDA4FF0000CD0EB0C006CEB01012D2321
:101D200008E0FF1D27F00707F7E80201EDE72B05A4
:101D300004D52B238DF8283001233BE0EB0739D065
:101D40002023F7E70A2000E010200021CDE9080158
:101D500007E01020002145F00405CDE908014FF00F
:101D60000808C5F3025002280FD001CF00214FF020
:101D7000000A2B071FD5702A0DD0DDE908C38CF0AF
:101D8000100C5CEA030C0CD015E0FF1D27F00707D0
:101D9000F7E80201EBE740228DF828204FF0010A16
:101DA0000BE050EA010306D030238DF828308DF87F
:101DB000292002239A46582A04D024A20DF1200992
:101DC0000B9209E026A2F9E7DDE90823FEF71CFAE9
:101DD0000B9B9B5C09F8013D50EA0102F4D1ADEB8D
:101DE000090020300890680701D44FF001080899D5
:101DF000884502DDA8EB010000E0002080460025B8
:101E000006E00AA85A46405D0F9990476D1C761C63
:101E10005545F6DB04E030205A460F999047761C72
:101E2000B8F10001A8F10108F5DC05E019F8010B93
:101E30005A460F999047761C0899481E0890002929
:101E4000F4DC641CC5E6000009280100303132339F
:101E500034353637383961626364656600000000E6
:101E600030313233343536373839414243444546D0
:101E70000000000070B5074D0446C1B22846FFF7C8
:101E800073FE80212846FFF7D7FD0028F9D02046B1
:101E900070BD000000100140FEF758FDFFF712FD75
:101EA000FEF778FEFFF790FAFFF7C8F8FEF706FB9B
:101EB00000F078F801218E073046FFF745FD23A09A
:101EC000FFF758FEDFF88C80234D37143946404623
:101ED000FEF7CCFE0128F9D1FFF7F2FB00241FA08A
:101EE000295DFFF747FE641C102CF8DB1CA0FFF7F0
:101EF00041FE687B40B9A87B30B9E87B05280ED04D
:101F000001281DD008281BD028787328DED115A001
:101F1000FFF730FE00213046FFF716FDD6E7E878E0
:101F2000042808D00228D1D12879C128CED110A008
:101F3000FFF720FECAE72879E228C7D111A0F7E70A
:101F400015A0FFF717FE0121E5E700007374617229
:101F5000740000000018024018C0002025782000FE
:101F60000D0A000073746F70206164630D0A000035
:101F70007265636F6E666967757265414443720A84
:101F8000000000007265636F6E6669677572654177
:101F900044430D0A00000000737461727420616490
:101FA000630D0A0010B5FFF709FBFFF7C1FAFFF751
:101FB00089FA064C012202212046FFF7C5FB204684
:101FC0000122BDE810401146FFF7BEBB003C0040B7
:101FD00014050000F41F0008000000201800000095
:101FE000941B00080C2000081800002000040100C9
:101FF000A41B000800000000010203040102030406
:0C200000060708090000000000000000B6
:04000005080001AD41
:00000001FF
